:020000040800F2
:10000000005000207516000815130008171300088B
:10001000191300081B1300081D130008000000003E
:100020000000000000000000000000006143000824
:100030001F13000800000000F1430008D12D000844
:10004000BD160008BD160008BD160008BD16000844
:10005000BD160008BD160008BD160008BD16000834
:10006000BD160008BD160008BD160008BD16000824
:10007000BD160008BD160008BD160008BD16000814
:10008000BD160008BD160008BD160008BD16000804
:10009000BD160008BD160008BD160008BD160008F4
:1000A000BD160008BD160008BD160008BD160008E4
:1000B00021130008BD160008BD160008BD16000873
:1000C000BD160008BD160008BD160008BD160008C4
:1000D000BD1600082D130008391300084513000849
:1000E000BD160008BD160008BD160008000000007F
:1000F0000000000000000000000000000000000000
:0C01000000000000000000005FF808F1A3
:1001100010B5054C237833B9044B13B10448AFF341
:1001200000800123237010BD6C000020000000003F
:10013000DC65000808B5034B1BB103490348AFF366
:10014000008008BD0000000070000020DC65000891
:1001500010F8012B11F8013B012A28BF9A42F7D071
:10016000D01A7047034613F8012B002AFBD1181A46
:10017000013870474FF0FF3C06E000BF4FF0010C24
:1001800002E000BF4FF0010C4DF804CD4FEA4002F1
:100190004FEA41037FEA226C18BF7FEA236C11D03B
:1001A00001B052EA530C18BF90EA010F58BFB2EBEE
:1001B000030088BFC81738BF6FEAE17018BF40F06E
:1001C000010070477FEA226C02D15FEA402C05D122
:1001D0007FEA236CE4D15FEA412CE1D05DF8040BA7
:1001E000704700BF844608466146FFE70FB5FFF73A
:1001F000C9FF002848BF10F1000F0FBD4DF808EDF2
:10020000FFF7F4FF0CBF012000205DF808FB00BFE2
:100210004DF808EDFFF7EAFF34BF012000205DF83C
:1002200008FB00BF4DF808EDFFF7E0FF94BF012089
:1002300000205DF808FB00BF4DF808EDFFF7D2FF86
:1002400094BF012000205DF808FB00BF4DF808EDC9
:10025000FFF7C8FF34BF012000205DF808FB00BF96
:100260002DE9F74F0D46644904F01EFC00260446B4
:100270003746DFF8889114B903B0BDE8F08F052246
:1002800020465F4904F0EAFB50B92A465D49204602
:1002900004F05EFB0020584904F006FC0446EAE73F
:1002A00005222046584904F0D9FB18B9574905F1F1
:1002B0002002ECE705224946204604F0CFFB18B99E
:1002C000534905F14002E2E705222046514904F076
:1002D000C5FB18B9504905F15002D8E70522204660
:1002E0004E4904F0BBFB18B94D4905F15402CEE765
:1002F000052220464B4904F0B1FBB0B95FB1002E96
:10030000C8D12046484905F15C0204F021FB431E98
:100310005E425E41BEE72046444905F1580204F0C2
:1003200017FB0128EBD10746B4E7052220464049D8
:1003300004F094FB18B93F4905F15D02A7E70522D7
:1003400020463D4904F08AFB28BBDFF8F0A0DFF827
:10035000F0B005346A465146204601AB04F0F8FA85
:10036000022897D1DDF8008008F1FF32072A0AD869
:10037000594601A8FFF7ECFEB0FA80F005EB080340
:10038000400983F85D002021204604F05AFB002834
:1003900080D0441CDEE7052220462A4904F05EFB9B
:1003A00000287FF477AFDFF894A0DFF894B005342D
:1003B0006A465146204601AB04F0CAFA02287FF48F
:1003C00069AFDDF8008008F1FF32022A0AD85946E9
:1003D00001A8FFF7BDFEB0FA80F005EB0803400965
:1003E00083F865002021204604F02BFB00283FF411
:1003F00051AF441CDCE700BF3F6800082A660008D4
:100400000066000806660008156600081B660008FE
:10041000306600083F660008456600084E66000822
:10042000546600085D6600086C6600086366000894
:10043000756600087B660008846600088D66000803
:100440008A660008956600082DE9F041402193482E
:10045000A8B001F005FC924C924A70BB237863B3BC
:10046000117851BB013B23708F4BFA201970012387
:10047000137002F02BFD8021884801F0F1FB8B4BBB
:10048000F0B91A78E2B9884922700A700122FA207C
:100490001A7002F01BFD23780C2B3AD8DFE813F01A
:1004A0001300200050008700C2002E0160011300DD
:1004B00013008901AC011300130000231370DAE765
:1004C00000221A70E7E72021744801F0C9FB00BB45
:1004D00023780B2B9CBF0133D8B22070724BD6E02F
:1004E00001F0A2F8724B1A789AB100257149724A4C
:1004F0000DA81D7004F00AFA70480DA904F030FB35
:10050000D0B16F4800F0F4FF237801332370664BBD
:100510001D7023780C2B00F20A82DFE813F08E01A5
:10052000C4011F0238029702A002C502ED020F03A8
:100530004C03710386039403624800F0D9FFE8E797
:1005400001F072F85A4B1A78002AE2D000216C228E
:100550000DA8197004F06DFA0DA95848FFF780FE38
:10056000564800F0C5FF219D4FF082412846FFF715
:1005700063FE20B128465449FFF754FEA8B95348FA
:1005800000F0B6FF0025229E51493046FFF754FE89
:1005900030B130464F49FFF745FE002840F06783F1
:1005A0004D4800F0A5FF4D48C7E70125EBE701F0F6
:1005B0003BF83F4B1A78002AABD000256C22294625
:1005C0000DA81D7004F035FA3C480DA9FFF748FE50
:1005D0000126DFF80C810DF1910717F8013F013575
:1005E00043B12A464146684604F090F9684600F057
:1005F0007FFF0026082DF0D13A4D76B13A4800F041
:1006000077FF4FF4FA7002F061FC2378264A013339
:10061000237000232B7013707BE7344800F068FFD1
:100620002E7076E701F000F8214B1A78002A3FF48B
:1006300070AF00256C2229460DA81D7004F0F9F951
:100640001E480DA9FFF70CFE0123DFF8A4800DF171
:10065000910616F8017F013547B92A46414668469A
:1006600004F054F9684600F043FF3B46082DF0D1F2
:1006700083B1204800F03CFF4FF4FA7002F026FCF2
:100680000022237801332370074B1A70154B002288
:100690001A703EE7184800F02BFFF7E7000801400A
:1006A000950000208B0000208A0000208900002097
:1006B0001B0400209B6600088C000020EE02002036
:1006C000A4660008C466000800002041F566000822
:1006D00000003041000060411767000861670008B2
:1006E000A867000888000020BF670008D2670008DC
:1006F0002A680008426800085468000800F094FF67
:10070000B44B1A78002A3FF404AF00256C22294626
:100710000DA81D7004F08DF9AF480DA9FFF7A0FDDD
:1007200001230DF1990616F8012F013542B12A4631
:10073000AA49684604F0EAF8684600F0D9FE0023AA
:10074000032DF0D1002B3FF4E4AEA54800F0D0FE1D
:100750004FF4FA7002F0BAFB237801332370BDE640
:1007600000F062FF9B4B1A78002A3FF4D2AE0025BE
:100770006C2229460DA81D7004F05BF996480DA95E
:10078000FFF76EFD01230DF1990616F8017F013583
:1007900047B92A469349684604F0B8F8684600F01D
:1007A000A7FE3B46032DF0D1002B3FF4B2AE8E489E
:1007B000CCE720218D4801F053FA054600287FF44C
:1007C000A8AE00F031FF834B1A78002A3FF4A1AEA7
:1007D0006C2229460DA81D7004F02BF97E480DA946
:1007E000FFF73EFD9DF890304A2B01D18048ADE7E0
:1007F000804800F07DFE71E620217C4801F030FA4F
:10080000054600287FF485AE00F00EFF714B1A7884
:10081000002A3FF47EAE6C2229460DA81D7004F01C
:1008200008F96D480DA9FFF71BFD9DF890304E2B80
:1008300001D171488AE77148DBE7714D2C78002CB3
:1008400075D122464FF480416E4801F00FFA012223
:100850004FF400416B4801F009FA01224FF40041C6
:10086000624801F003FA01220821664801F0FEF90E
:1008700022462021634801F0F9F9224640216148CF
:1008800001F0F4F9224680215E4801F0EFF95E485C
:1008900000F02EFE0A2002F019FB5C4800F028FE52
:1008A00001232B7043E0564C23783BB9584800F0A5
:1008B0001FFE584800F01CFE01232370564B1A7887
:1008C000AAB30024554E254637461C703846FFF71C
:1008D00049FCA0422ED805F1A0030DEB030500232F
:1008E000684605F8A03CFFF73DFC082802462FD1DA
:1008F00069464B4804F0C4F8494A4A490DA804F037
:1009000005F80DA800F0A0FD0A2002F0DFFA0DA8FE
:1009100000F09AFD444800F0EBFD4FF47A7002F0CD
:10092000D5FA424800F090FD322002F0CFFA28B00C
:10093000BDE8F08116F8013B0D2B07D00A2B1FBF35
:1009400005F1A0026A4402F8A03C01350134BDE77C
:10095000374828B0BDE8F04100F0CABD284C2378E4
:10096000002BE4D1334800F0C3FD334800F0C0FD54
:100970004FF4FA7002F0AAFA304800F065FD4FF427
:10098000FA7002F0A3FA144800F0B2FDD3E01C4C58
:1009900023785BB92A4800F0ABFD2A4800F0A8FD97
:1009A0004FF4FA7002F092FA0123237020210F48CD
:1009B00001F056F90028BAD1234B1B78002BB6D191
:1009C0000122214B1D481A7028B0BDE8F04100F00B
:1009D0003BBD00BF1B040020EE020020AA680008F7
:1009E000C3680008DA680008F468000800080140DD
:1009F0000A690008206900084F6900086569000855
:100A00008A000020000C014094690008A8690008D1
:100A1000CF690008E26900089F0200203A02002026
:100A20008C000020116A0008196A00083F6A00085B
:100A3000446A0008826A0008966A0008AE6A0008E4
:100A4000B36A0008C76A000888000020904C237829
:100A5000002BABD18F4800F04BFD8F489EE78C4CAC
:100A60002378002B7FF463AF8C4800F041FDFA201F
:100A700002F02CFA8A4800F03BFD01224FF40041BD
:100A8000884801F0F3F801224FF40041864801F054
:100A9000EDF884480122082101F0E8F84FF47A705B
:100AA00002F014FA814844E0794D2C78002C7FF450
:100AB0003EAF7F4800F01CFD7E4800F019FD4FF46A
:100AC0007A7002F003FA22464FF40041754801F0B3
:100AD000CDF822464FF40041734801F0C7F8714841
:100AE0002246082101F0C2F84FF4FA7002F0EEF944
:100AF0006E4800F0A9FCD3E6654C2378002B7FF408
:100B000016AF01224FF40041664801F0AFF8012210
:100B10004FF40041644801F0A9F80122082161481E
:100B200001F0A4F8644800F0E3FC644800F0E0FC45
:100B3000634800F089FC01232370F8E6544D2C78BB
:100B4000002C7FF4F4AE5F4800F07EFC5E4800F0BD
:100B5000CFFC5E4800F0CCFC40F6C41002F0B6F9C1
:100B6000012220214F4801F081F840F6C41002F024
:100B7000ADF9224620214B4801F078F801224021AE
:100B8000484801F073F840F6C41002F09FF922467D
:100B90004021444801F06AF801228021414801F0D7
:100BA00065F840F6C41002F091F9224680213D48D4
:100BB00001F05CF874E6364D2C78002C7FF4B7AE6B
:100BC0004FF47A7002F082F922462021354801F074
:100BD0004DF822464021334801F048F82246802152
:100BE000304801F043F83A4800F082FC394800F000
:100BF0007FFC01224FF400612B4801F037F877E7C2
:100C0000234C2278002A7FF492AE4FF400612648EC
:100C100001F02CF84FF47A7002F058F92E4800F0E9
:100C200067FC2E4800F064FC3CE7194C2378002B4D
:100C30007FF47DAE4FF47A7002F048F9284800F056
:100C400057FC2848A0E6124C2378002B7FF46FAEA7
:100C50004FF47A7002F03AF9234800F049FC114849
:100C600001224FF4804101F001F820488CE6002D6C
:100C70003FF499AC1E4800F03BFC4FF4FA7002F0D0
:100C800025F90022024B1A7023780133237040E4C7
:100C90008A000020F86A00080C6B0008556B0008F9
:100CA000696B0008000C014000080140AE6A0008B2
:100CB0008B6B00089F6B0008C06B0008D36B0008AB
:100CC000676C00086E6C0008756C0008896C000881
:100CD000596D00086D6D0008CF6D0008E46D0008C7
:100CE000486E00085D6E0008D46E0008E96E0008CA
:100CF0004567000808B5FFF7A7FB322002F0E6F8C9
:100D0000F9E708B54FF47A7002F0E0F8FAE7036803
:100D1000B3F1804F01D100F0E5BC704708B572B661
:100D2000024C204600F0E4FBFBE700BF6E6F0008BA
:100D300010B594B0142200210CA803F07AFE1422FE
:100D400000210DEB020003F074FE1022002101A827
:100D500003F06FFE02244FF480330122CDE91143EA
:100D6000CDE90A234FF4E0130AA80E92139301F081
:100D700033F808B1FFF7D2FF0F23CDE905344FF464
:100D800080630790CDE90830214605A801F0E6F917
:100D90000028EFD14FF4404301A80194039301F0E0
:100DA000B7FA0028E6D114B010BD0000F0B58FB03E
:100DB00000F086FCFFF7BCFF102200210AA803F018
:100DC00038FE734B4FF4C0419A69724842F01002EA
:100DD0009A619A69002402F010020192019A9A69BC
:100DE000012742F020029A619A69022502F020024E
:100DF0000292029A9A694FF4805642F004029A6174
:100E00009A6902F004020392039A9A6942F0080276
:100E10009A619B69002203F008030493049B00F08D
:100E200025FF002248F610015B4800F01FFF00225A
:100E30004EF2FE01594800F019FF4FF4C0435548E7
:100E40000AA9CDE90A37CDE90C4500F035FE4FF48B
:100E5000004350480AA9CDE90A340C9400F02CFE56
:100E6000E3234D480AA9CDE90A340C9400F024FE8E
:100E700048F6100348480AA9CDE90A37CDE90C45E0
:100E800000F01AFE4EF2FE0344480AA9CDE90A37E3
:100E9000CDE90C4500F010FE414B40480AA9CDE9D0
:100EA0000A630C9400F008FE3E483F4A3F4BC0E9FD
:100EB0000244C0E900234FF48043C0E90644C0E97E
:100EC0000434046200F0E0FE044608B1FFF726FF98
:100ED000374D00F097FA00F0C7FA00F0E7FA354B0B
:100EE00028462B604FF46023CDE907440994AC6099
:100EF0002C732C75EB616C602F6100F0A9FC00284D
:100F0000E4D10823099007A92846CDE9073700F066
:100F1000FBFB04460028D9D1014610220AA803F0A1
:100F200088FD254D254B2846C5E900344FF6FF7353
:100F3000CDE90544C5E90334C5E90544AC6001F0D9
:100F400055FB0028C2D128460AA90A9601F084FB65
:100F50000028BBD1CDE9050005A9284601F016FC03
:100F600004460028B2D101F041FF2146144A154839
:100F700001F068FF144B2146144A1860144801F030
:100F800061FF144B186001F043FF20460FB0F0BD25
:100F9000001002400010014000080140000C014018
:100FA00000001110E800002000540040A08601005D
:100FB0003C01002000240140A0000020002C014042
:100FC000C4700008030D00089C000020A0700008F9
:100FD000F50C000898000020114B07B59A690F2105
:100FE00042F001029A619A696FF0010002F0010279
:100FF0000092009ADA6942F08052DA61DB690022DD
:1010000003F080530193019B00F0B2FC054A536842
:1010100023F0E06343F00073536003B05DF804FB1A
:10102000001002400000014010B5044686B01022B6
:10103000002102A803F0FDFC2268104B9A421BD14C
:1010400003F56C439A690E4842F400729A619A69FA
:1010500002A902F400720092009A9A6942F0080212
:101060009A619B69012203F008030193019B03230A
:10107000CDE9022300F020FD06B010BD00240140A0
:10108000000C014010B5044686B01022002102A8D1
:1010900003F0CFFC2268154B9A4224D1144C4FF434
:1010A0004072A369134843F00803A361A36902A92E
:1010B00003F008030093009B1223CDE902230323CE
:1010C000059300F0F9FC0C4A536843F0E06343F0E9
:1010D00002035360E36943F40013E361E36903F43B
:1010E00000130193019B06B010BD00BF00540040E7
:1010F00000100240000C0140000001400268084B53
:1011000082B09A420AD103F564439A6942F40062BC
:101110009A619B6903F400630193019B02B07047DD
:10112000002C014010B504468AB01022002106A808
:1011300003F07FFC23684B4A934231D14A4B4FF472
:1011400000709A6906A942F480429A619A69002463
:1011500002F480420092009A9A6942F004029A6175
:101160009B6903F004030193019B0223CDE906036D
:1011700003233E48099300F09FFC4FF480633B48F3
:1011800006A9CDE90634089400F096FC25202246F5
:10119000052100F0EDFB252000F01AFC0AB010BD7F
:1011A000334A93422CD1304B0421DA692F4842F460
:1011B0000032DA61DA69002402F400320292029A03
:1011C0009A6942F004029A619B6903F00403039355
:1011D000039B0223CDE90613032306A9099300F01C
:1011E0006BFC0823214806A9CDE90634089400F0D9
:1011F00063FC26202246052100F0BAFB2620CBE71F
:101200001C4A9342CAD1184B1B48DA6906A942F41A
:101210008022DA61DA69002402F480220492049ABE
:101220009A6942F008029A619B694FF4806203F068
:1012300008030593059B0223CDE9062303230993A5
:1012400000F03AFC4FF400630B4806A9CDE90634E0
:10125000089400F031FC27202246052100F088FB8D
:10126000272099E7003801400010024000080140A3
:101270000044004000480040000C014070B5214B84
:1012800088B0DA69054642F00102DA61DB6901A93A
:1012900003F00103029303A8029B01F01BF8069BD5
:1012A00053BB00F0F7FF4FF08043174E336040F21E
:1012B000E733F360154BB0FBF3F3013B736000239E
:1012C00030463361B360B36101F090F9044680B9F0
:1012D000304601F097F8044658B91C2000F078FB1E
:1012E0000F2D0DD8224629461C2000F041FB084B4B
:1012F0001D60204608B070BD00F0CCFF4000D2E772
:101300000124F6E7001002406C01002040420F006B
:1013100008000020FEE7FEE7FEE7FEE7FEE7704775
:10132000014801F09DB800BF6C010020014801F0A8
:10133000DBBB00BF1C040020014801F0D5BB00BF8F
:10134000F0010020014801F0CFBB00BFA002002047
:101350000120704708B503F0BDFC162303604FF071
:10136000FF3008BD08B503F0B5FC16230360FEE7A7
:1013700070B50D4614460E46731B9C4201DC204698
:1013800070BDAFF3008006F8010BF5E770B50D46B0
:1013900014460E46731B9C4201DC204670BD16F8B5
:1013A000010BAFF30080F5E74FF0FF3070474FF4CB
:1013B000005300204B6070470120704700207047A9
:1013C0000B4A0346116810B509B90A491160106843
:1013D00009490A4C0344091B8B4206D903F07AFCE5
:1013E0000C2303604FF0FF3010BD1360FCE700BF1B
:1013F000B4010020981F00200050002000040000CD
:101400007047000008B54FF416530C480C4AC0E969
:10141000002300230C22C0E90233C0E90523036145
:10142000C36101F07DFA08B1FFF778FCBDE8084020
:1014300001220449014801F0BABC00BF1C0400208D
:10144000003801401A04002010B50446FEF78AFE59
:101450002146BDE8104082B24FF0FF33014801F051
:101460008EBA00BF1C04002008B54FF416530C4878
:101470000C4AC0E9002300230C22C0E90233C0E972
:1014800005230361C36101F04BFA08B1FFF746FC85
:10149000BDE8084001220449014801F088BC00BFB2
:1014A000F001002000440040EC01002008B54FF49A
:1014B00016530C480C4AC0E9002300230C22C0E953
:1014C0000233C0E905230361C36101F029FA08B1C1
:1014D000FFF724FCBDE8084001220449014801F05F
:1014E00066BC00BFA0020020004800409E02002011
:1014F00010B50446FEF736FE2146BDE8104082B224
:101500004FF0FF33014801F03ABA00BFA0020020BB
:1015100038B504461021304800F0ADFB22682F4B4F
:101520009A4215D100F0EAF82D4B2E4918602E4B47
:1015300018782E4B002836D01A88B2F5957F32D80D
:10154000551C1D80885401222749294801F02FFC91
:101550002268284B9A4210D1274B284A18782849EC
:101560000D28138827D0622B25D85D1C1580C85400
:1015700001222149234801F01AFC2268224B9A4299
:1015800028D1224B224A197822481388D9B1302B0E
:1015900019D85C1C1480C1540122BDE838401B4995
:1015A0001D4801F004BC002218881A800A5401204A
:1015B0001A490870C7E70D20C8540121184B19704B
:1015C00000231380D4E70021C1540120154B118062
:1015D0001870E1E738BD00BF000C01400038014041
:1015E000E8020020EE0200201A040020EC02002095
:1015F0001C040020004800409E0200203802002009
:101600003A020020A002002000440040EC0100202B
:10161000B8010020BA010020F00100201B040020C6
:101620009F020020ED01002038B50E4D2B78BBB98C
:101630000D4C2388A3B100F061F80C4B1B68C01A55
:10164000C8280DD923880A49B3F5967F24BF40F2F4
:101650002B1323800023228823808B5401222A709D
:1016600038BD00BF1B040020EC020020E80200206F
:10167000EE020020FFF7C4FE0B480C490C4A002381
:1016800002E0D458C4500433C4188C42F9D3094A38
:10169000094C002301E013600432A242FBD303F0A3
:1016A0001FFBFFF783FB7047000000206C00002049
:1016B000247200086C000020981F0020FEE7000044
:1016C000074A08B51368032043F01003136000F0C5
:1016D0003DF90F20FFF7D2FDFFF77EFC002008BD8B
:1016E00000200240034A044B11681B780B4413602E
:1016F000704700BF6404002004000020014B1868FC
:10170000704700BF64040020002373B5019390F874
:1017100024300446012B6CD0012380F824304D681E
:101720000268062D086805EB850322D81F26556B35
:10173000053B9E4025EA060500FA03F32B4353635D
:1017400009288B6800EB40054FF0070129D9D668BE
:101750001E3DA94026EA0101AB400B43D360A0F136
:101760001003012B25D90020002384F8243002B077
:1017700070BD0C2D4FF01F0509D8166B233B9D4003
:1017800026EA050500FA03F32B431363D8E7D66A6C
:10179000413B9D4026EA050500FA03F32B43D36243
:1017A000CEE71069A94020EA0101AB400B43136169
:1017B000D9E7114B9A4216D193681B02D3D4936890
:1017C000102843F400039360CDD10C4B0C4A1B68E6
:1017D000B3FBF2F30A2253430193019B002BC2D0C7
:1017E000019B013BF8E7A36A012043F02003A362B9
:1017F000BAE70220BBE700BF002401400000002040
:1018000040420F0038B5036804469A68D10701D4F6
:10181000002038BD9A6822F001029A60FFF76EFF3F
:10182000054623689B68DB07F2D5FFF767FF401B7F
:101830000228F6D923689B68DA07F2D5A36A01204B
:1018400043F01003A362E36A43F00103E362E0E7BD
:10185000F8B5044600286DD0836A23B9C36280F8C6
:101860002430FFF7E1FB2046FFF7CCFFA36A13F01B
:10187000100361D100285FD1A26A616822F4885206
:1018800022F0020242F00202E569A668A262227B0F
:101890002943B6F5807F41EA420136D0771E7D426A
:1018A0007D412D02277D012F06D182BBA269013A1D
:1018B00045EA423242F400652268B6F5807F5768F7
:1018C00027F4694745EA0705556097681D4D05EA05
:1018D000070545EA0105956001D0012E02D1236973
:1018E000013B1B05D56A25F470052B43D362926832
:1018F000154B1340994213D10023E362A36A23F0EE
:10190000030343F00103A362F8BD3546CAE7A26AA8
:1019100042F02002A262E26A42F00102E262CBE7F8
:10192000A36A23F0120343F01003A362E36A43F0B7
:101930000103E3620120E7E7A36A43F01003A36217
:10194000F8E700BFFDF7E1FFFE0E1FFF07490302A6
:10195000CA6803F4E06322F4E0621204120C134339
:1019600043F0BF6343F40033CB60704700ED00E009
:10197000154B30B5DC68C4F30224C4F10703251D00
:10198000042B28BF0423062D4FF0FF3594BF0024FD
:10199000033C05FA03F321EA0303A54022EA05020A
:1019A000A340002843EA0203ACBF00F16040074AAD
:1019B0004FEA0313DBB2ABBF00F5614000F00F004C
:1019C00080F80033135430BD00ED00E014ED00E06A
:1019D000002807DB01234109034A00F01F00834070
:1019E00042F82130704700BF00E100E090F821206C
:1019F0000346022A06D0042282630120002283F8D3
:101A0000202070470268C06B116821F00E01116040
:101A1000116821F00101116001211A6C01FA02F232
:101A20004260002083F82110E8E7000008B590F834
:101A30002130022B03D004238363012008BD0368F7
:101A40001A6822F00E021A601A6822F001021A6067
:101A5000174A93421FD0143293421ED0143293423D
:101A60001DD0143293421DD0143293421DD0143233
:101A7000934214BF4FF080734FF480130D4A5360AC
:101A8000012380F82130002380F82030436B03B11C
:101A900098470020D2E70123F0E71023EEE74FF448
:101AA0008073EBE74FF48053E8E74FF48033E5E7CA
:101AB00008000240000002402DE9F74F00244FF0DB
:101AC0000F0E2646DFF884C1614B00F104080A6856
:101AD00032FA06F502D103B0BDE8F08F012505FA10
:101AE00006F702EA070537EA020276D14A68032AB6
:101AF00007D8013A022A00F28380DFE802F09196CB
:101B00009C00122A00F0948069D8112A00F08A8083
:101B1000FF2D94BF8146C1464FEA8602D9F8007076
:101B200088BF203A0EFA02FA27EA0A0704FA02F2FC
:101B30001743C9F80070D1F8049019F0805F4CD0B9
:101B4000DCF8182026F0030742F00102CCF8182038
:101B5000DCF8182007F1804702F00102019207F536
:101B6000803706F0030A019A4FEA8A0ABA680EFA29
:101B70000AFB22EA0B0B374A904260D002F58062E2
:101B800090425ED002F5806290425CD002F58062A5
:101B9000904214BF0422032202FA0AF242EA0B0224
:101BA000BA609A6819F4801F14BF2A43AA439A6046
:101BB000DA6819F4001F14BF2A43AA43DA605A688E
:101BC00019F4003F14BF2A43AA435A601A6819F453
:101BD000803F14BF2A43AA431A60013677E7DFF833
:101BE00078904A450CD014D8A9F580194A4507D0F9
:101BF00009F570294A4503D0A9F580194A4587D1CE
:101C00008A68D2B1012A4FF008040CBF076147610E
:101C10007EE7DFF848904A45F2D009F58039EDE7D4
:101C2000CC6875E7CC68043472E7CC6808346FE799
:101C3000CC680C346CE700246AE7042468E70022CF
:101C4000AAE70122A8E70222A6E700BF001002408F
:101C50000004014000080140000022100000311083
:101C60008368194214BF0120002070470AB1016146
:101C700070470904FBE7C36801EA030221EA030194
:101C800041EA02410161704770B5044608B901207C
:101C900070BD90F83D3003F0FF021BB980F83C2086
:101CA000FFF7F0F9242384F83D3023681A6822F006
:101CB00001021A601A6842F400421A601A6822F49B
:101CC00000421A6000F0E6FA3F4B65689D4294BFFF
:101CD0003E4B3F4B98428CBF00230123002BD6D1B3
:101CE000394E3C4BB542B0FBF3F388BF4FF49676C8
:101CF0002268516821F03F0141EA030182BF73432A
:101D00004FF47A76B3FBF6F35160116A013321F098
:101D10003F010B431362D169431E2B4821F44F410D
:101D2000854221F0FF0132D86D00B3FBF5F340F698
:101D3000FC700133034242D0C3F30B031943D1615A
:101D40001168D4E9073021F0C00103430B4313604D
:101D50009168D4E9030321F40341034321F0FF0117
:101D60000B439360D168D4E9053021F0FF010343B0
:101D70000B43D3601368002043F00103136020235A
:101D8000206484F83D30206384F83E0080E7A0683A
:101D900050B905EB4505B3FBF5F30133C3F30B0372
:101DA0007BB143F40043C9E719206843B3FBF0F368
:101DB0000133C3F30B0323B143F44043BEE70423D1
:101DC000BCE70123BAE700BFA08601007F841E00A4
:101DD000FF083D0040420F002DE9F341054638B3AE
:101DE0000368DB0710D42B689F075ED42B681907A4
:101DF00000F195802B685A0700F1C180EB69002B38
:101E000040F02C81002029E0904C636803F00C0323
:101E1000042B07D0636803F00C03082B0AD1636816
:101E2000DE0307D523689C03DDD56B68002BDAD170
:101E3000012013E06B68B3F5803F12D1236843F4AF
:101E400080332360FFF75AFC064623689803CAD400
:101E5000FFF754FC801B6428F7D9032002B0BDE8CB
:101E6000F0819BB9236823F480332360236823F433
:101E700080232360FFF742FC064623689903B2D50E
:101E8000FFF73CFC801B6428F7D9E6E7B3F5A02FE9
:101E9000236803D143F480232360CFE723F4803306
:101EA0002360236823F48023CBE7684C636813F036
:101EB0000C0F07D0636803F00C03082B10D1636884
:101EC000DA030DD423689B0702D52B69012BAFD110
:101ED00023686A6923F0F80343EAC203236085E7B5
:101EE0002A695B4B6AB101221A60FFF707FC0646BC
:101EF00023689F07ECD4FFF701FC801B0228F7D969
:101F0000ABE71A60FFF7FAFB0646236898077FF5F0
:101F10006DAFFFF7F3FB801B0228F6D99DE7AA6996
:101F20004A4E4B4BE2B10122C3F88024FFF7E6FB97
:101F30000446736A9B070DD54FF4FA52454B1B6854
:101F4000B3FBF2F3019300BF019B5A1E0192002BD9
:101F5000F9D14FE7FFF7D2FB001B0228E9D97CE754
:101F6000C3F88024FFF7CAFB0446736A9F077FF516
:101F700041AFFFF7C3FB001B0228F6D96DE7334CD6
:101F8000E369D80024D40127E36943F08053E36177
:101F9000E36903F080530093009B2F4E3368D9050B
:101FA00018D5EB68012B26D1236A43F00103236285
:101FB000FFF7A4FB41F288380646236A9B073FD50A
:101FC000002F3FF41BAFE36923F08053E36115E773
:101FD0000027E2E7336843F480733360FFF78EFB3A
:101FE00080463368DA05DCD4FFF788FBA0EB0800F5
:101FF0006428F6D931E7ABB9236A41F2883823F077
:1020000001032362236A23F004032362FFF776FBB4
:102010000646236A9807D3D5FFF770FB801B40451F
:10202000F7D91AE7052B236A03D143F0040323628F
:10203000BAE723F001032362236A23F00403B6E71F
:10204000FFF75CFB801B4045B7D906E70010024054
:102050000000424200000020007000402A4C6268EC
:1020600002F00C02082A3ED00022022B274B1A66EF
:102070002CD1FFF743FB06462368990120D42B6A35
:10208000B3F5803F05D16268A96822F400320A43A3
:102090006260696A62680B4322F47412134301227E
:1020A00063601A4B1A66FFF729FB054623689A01FD
:1020B0003FF5A8AEFFF722FB401B0228F6D9CCE67D
:1020C000FFF71CFB801B0228D6D9C6E6FFF716FBDC
:1020D000054623689B017FF595AEFFF70FFB401B7C
:1020E0000228F6D9B9E6012B3FF4A2AE60682B6A4C
:1020F00000F480329A427FF49BAE6B6A00F4701059
:10210000C01A18BF0120A9E6001002400000424298
:102110000D4A536803F00C01082912D10B48C3F390
:102120008341DB03405C09D55368094AC3F340434C
:102130005043084AD35CB0FBF3F07047064B58435A
:1021400070470348704700BF00100240027100084A
:1021500000127A000071000800093D002DE9F041ED
:102160000D46044610B90120BDE8F081444A1368C9
:1021700003F007038B4228D321688E0730D4CA07A7
:1021800043D43F4A136803F00703AB4265D8226883
:102190003C4D12F0040F6CD1130706D56B68226911
:1021A00023F4605343EAC2036B60FFF7B1FF6B682F
:1021B000354AC3F30313D35CD840344B1860344B17
:1021C0001868FFF75BF80020CEE7136823F00703D9
:1021D0000B431360136803F007038B42C3D1CBE7B3
:1021E000284B11F0040F1EBF5A6842F4E0625A6097
:1021F000080742BF5A6842F460525A605A68A068A1
:1022000022F0F00202435A60B9E762681D4E012ACB
:1022100033681AD113F4003FA5D0736841F28838AF
:1022200023F0030313437360FFF768FA07467368EC
:10223000626803F00C03B3EB820FA2D0FFF75EFAE3
:10224000C01B4045F3D903208EE7022A02D113F0C8
:10225000007FE1E713F0020FDEE7136823F00703C6
:102260002B431360136803F00703AB427FF47BAF8B
:102270008DE76B68E16823F4E0630B436B608BE7E9
:102280000020024000100240F07000080000002012
:1022900008000020044B054A5B68C3F30223D35CAB
:1022A000034A1068D840704700100240E8700008E8
:1022B00000000020044B054A5B68C3F3C223D35CD3
:1022C000034A1068D840704700100240E8700008C8
:1022D000000000200F2303600B4B5A6802F003023A
:1022E00042605A6802F0F00282605A6802F4E062CA
:1022F000C2605B68DB0803F4E0630361034B1B68A7
:1023000003F007030B6070470010024000200240FA
:1023100003682DE9F3410546D80721D5364CE3691A
:10232000D9002BD40126E36943F08053E361E369CC
:1023300003F080530193019B304F3B68DA051FD5B2
:10234000236A6A6813F440732ED1236A6A6823F4FF
:102350004073134323621EB1E36923F08053E361AA
:102360002A68910706D52449A8684B6823F440439E
:1023700003434B60D30636D4002012E00026DBE78F
:102380003B6843F480733B60FFF7B8F980463B68D5
:10239000DB05D5D4FFF7B2F9A0EB08006428F6D925
:1023A000032002B0BDE8F08102F440729A42CCD022
:1023B0000120134A236AC2F84004002023F440712C
:1023C000DF07C2F840042162BFD5FFF797F941F259
:1023D00088380746236A9807B7D4FFF78FF9C01BE0
:1023E0004045F7D9DCE7044AE968536823F48003E1
:1023F0000B435360C0E700BF001002400070004074
:102400000000424290F83D30012B20D1022380F899
:102410003D300368DA6842F00102DA600D4A934207
:102420000AD0B3F1804F07D0A2F59432934203D083
:1024300002F58062934204D19A6802F00702062AEC
:1024400003D01A6842F001021A6000207047012090
:10245000704700BF002C01407047704770477047BD
:10246000036870B5DD681E690446B1070DD5AA077B
:102470000BD56FF002021A61012202779B699B075C
:1024800069D0FFF7EAFF00232377710710D56A07A9
:102490000ED56FF00402236820461A6102222277CB
:1024A0009B6913F4407F5CD0FFF7D7FF00232377AD
:1024B00033070FD528070DD56FF008022368204693
:1024C0001A6104222277DB69990750D0FFF7C5FF14
:1024D00000232377F20610D5EB060ED56FF010021D
:1024E000236820461A6108222277DB6913F4407FB3
:1024F00043D0FFF7B2FF00232377F00708D5E907A1
:1025000006D56FF00102236820461A61FEF7FFFB33
:10251000320608D52B0606D56FF0800223682046C8
:102520001A6100F062F9700608D5690606D56FF0E9
:102530004002236820461A61FFF791FFB20622D5B8
:10254000AB0620D56FF0200223682046BDE870401E
:102550001A6100F049B9FFF77FFF2046FFF77EFFC1
:1025600091E7FFF779FF2046FFF778FF9EE7FFF737
:1025700073FF2046FFF772FFAAE7FFF76DFF2046C3
:10258000FFF76CFFB7E770BD174A036890420AD0A7
:10259000B0F1804F07D0A2F59432904203D002F5FB
:1025A0008062904207D14A6823F070031343CA68DF
:1025B00023F4407313434A6923F0800313430360F9
:1025C0008B68C3620B688362074B984204BF0B6938
:1025D0000363012343610369DB0742BF036923F0FF
:1025E00001030361704700BF002C014010B5044691
:1025F00030B390F83D3003F0FF021BB980F83C2067
:10260000FEF77CFD0223206884F83D30211DFFF792
:10261000BBFF0123002084F8463084F83E3084F864
:102620003F3084F8403084F8413084F8423084F8F8
:10263000433084F8443084F8453084F83D3010BD90
:102640000120FCE710B584680A4324F47F4442EA81
:1026500003222243826010BD38B590F83C30044616
:10266000012B4FF0020000F08E80012284F83D0023
:10267000206884F83C20836823F47F4323F07703A9
:1026800083600B68602B4FD032D8402B64D016D8B3
:10269000202B0DD00AD833F0100109D0012384F883
:1026A0003D30002384F83C30104638BD302BF5D146
:1026B000826822F07002134343F0070328E0502B96
:1026C000ECD14A68CD68016A036A21F00A0123F05F
:1026D0000103036283690A4323F0F00343EA05130D
:1026E00083610262836823F0700343F057030FE0B5
:1026F000B3F5805F0DD0B3F5005F0CD0702BCDD15A
:10270000CB68D1E90121FFF79DFF836843F0770390
:1027100083600022C2E7CB68D1E90121FFF792FF75
:10272000836843F48043F3E7036A026A4D6822F04A
:102730001002C9680262826923F0A00322F4704289
:1027400043EA051342EA013282610362836823F09F
:10275000700343F06703DBE74A68CD68016A036AE8
:1027600021F00A0123F00103036283690A4323F085
:10277000F00343EA051383610262836823F0700368
:1027800043F04703C4E702468EE7000030B590F8F7
:102790003C300246012B4FF0020022D0136882F831
:1027A0003D005C680D6824F070042C4398685C6000
:1027B0000C4CA3420AD0B3F1804F07D0A4F5943457
:1027C000A34203D004F58064A34204D1496820F0F9
:1027D0008000014399600123002082F83D3082F897
:1027E0003C0030BD002C014070477047026802F188
:1027F0000C0353E8003F23F490730C3242E800319D
:1028000002680029F2D102F1140353E8003F23F0DB
:10281000010302F1140C4CE800310029F3D1036BE1
:10282000012B0BD102F10C0353E8003F23F01003FE
:1028300002F10C0C4CE800310029F3D1202380F880
:10284000423000230363704710B504460368C16833
:102850001A6922F440520A431A6182680069D968F1
:102860000243606921F4B05121F00C0102430A4394
:10287000DA605A69A16922F440720A435A610E4A29
:10288000934215D1FFF716FD192343436268206870
:102890009200B3FBF2F36422B3FBF2F102FB1133BB
:1028A0001B013233B3FBF2F303EB0113836010BD62
:1028B000FFF7F0FCE8E700BF00380140F7B5054638
:1028C0000C4617461E462A68136834EA030301D1F2
:1028D000002021E0701CF7D0FEF710FFC01B8642DD
:1028E0001CD3DEB12B68DA685107ECD5802CEAD016
:1028F000402CE8D01A681207E5D5002401941A6824
:10290000284601925B680193019BFFF76FFF082344
:1029100001206B6485F8404003B0F0BD0320FBE765
:1029200010B5044648B390F8413003F0FF021BB9DC
:1029300080F84020FEF7F6FB2423226884F841301B
:10294000D368204623F40053D360FFF77DFF23684C
:1029500000201A6922F490421A615A6922F02A0270
:102960005A61DA6842F40052DA602023606484F825
:10297000413084F84230606310BD0120FCE72DE94E
:10298000F843984690F841300446202B0E461746EF
:102990003FD100293FD0002A3DD0212300254564A6
:1029A00080F84130FEF7AAFEA3688146B3F5805F48
:1029B000A784E78403D123690BB935461E46E38C0F
:1029C0009BB253B943464A4640212046FFF776FF63
:1029D000202350B984F841300AE043464A4680211A
:1029E0002046FFF76BFF28B12023032084F84130F5
:1029F000BDE8F88322684EB935F8023BC3F30803FB
:102A00005360E18C013989B2E184D8E716F8013BC3
:102A1000F6E70220ECE70120EAE77047704708B5C7
:102A20000023406AC385C384FFF7F8FF08BD7047E1
:102A300090F8423007B5222B42D181680268B1F587
:102A4000805F836A3FD1016900293FD15268C2F398
:102A5000080223F8022B8362C38D013B9BB2C3851E
:102A6000002B2DD10268D16821F02001D160D168FE
:102A700021F48071D160516921F00101516120225E
:102A800080F842204363026B012A026828D1036365
:102A900002F10C0353E8003F23F0100302F10C0C89
:102AA0004CE800310029F3D11368DB0605D501910C
:102AB0001368019353680193019B818DFFF7B7FF62
:102AC00003B05DF804FB39B9016929B95268D2B283
:102AD0001A70836A0133BEE7526802F07F02F7E79B
:102AE000FEF716FDECE70000036873B51A680446AC
:102AF0001607D9685D6908D1960668D58D0666D532
:102B000002B0BDE87040FFF793BF05F0010001F48B
:102B1000907505435BD0D60705D5CD0542BF636CE4
:102B200043F001036364530704D518B1636C43F0A9
:102B300002036364960704D518B1636C43F0040381
:102B40006364150707D501F0200303431EBF636CC0
:102B500043F008036364636C002B32D0920604D503
:102B60008B0602D52046FFF763FF2668204673696F
:102B7000626C03F0400302F0080253EA020522D01F
:102B8000FFF734FE73695E0618D5226802F114035C
:102B900053E8003F23F04003143242E8003100299B
:102BA000F3D1E06B50B1744B4363FEF73FFF40B18C
:102BB000E06B436B02B0BDE8704018472046FFF75A
:102BC0002DFF02B070BDFFF729FF6564F9E7206BA8
:102BD000012840F09480D50640F19180C80640F16C
:102BE0008E80002201921A6801925A680192019A1D
:102BF0005A6952064DD5E16B0A68526892B2002AB2
:102C0000DFD0A08D9042DCD9E2858A69202A36D0B7
:102C100003F10C0252E8002F22F4807203F10C0041
:102C200040E800210029F3D103F1140252E8002FFB
:102C300022F0010203F1140040E800210029F3D141
:102C400003F1140252E8002F22F0400203F11400B5
:102C500040E800210029F3D1202284F8422021639A
:102C600003F10C0252E8002F22F0100203F10C00D5
:102C700040E800210029F3D1E06BFEF7B7FE022304
:102C80006363E38DA18DC91A89B22046FFF7CFFE99
:102C900097E7E28DE08DA18D80B292B2002890D0AE
:102CA000891A89B200298CD003F10C0252E8002F56
:102CB00022F4907203F10C0545E800200028F3D1BE
:102CC00003F1140252E8002F22F0010203F114056F
:102CD00045E800200028F3D1202284F84220206318
:102CE00003F10C0252E8002F22F0100203F10C0550
:102CF00045E800200028F3D102236363C5E71606E8
:102D000028D50D0626D594F84120212A7FF459AF05
:102D1000A168226AB1F5805F17D12169A9B932F89B
:102D2000021BC1F3080159602262E28C013A92B29F
:102D3000E284002A7FF445AFDA6822F08002DA608C
:102D4000DA6842F04002DA603BE7511C21621278F7
:102D50005A60EAE750067FF534AF4A067FF531AF97
:102D6000DA68204622F04002DA60202384F84130FD
:102D7000FFF753FE25E700BF1F2A00080023C28586
:102D8000436422238285026980F8423081620368AD
:102D90001AB1DA6842F48072DA605A69002042F0AF
:102DA00001025A61DA6842F02002DA60704770B4BA
:102DB00090F84260202E06D141B13AB1002404635C
:102DC00070BCFFF7DBBF022070BC70470120FBE73F
:102DD00008B54FF0E0231B6901F046F8012803D045
:102DE000BDE8084001F026BB08BD0000EFF30583F5
:102DF0002BB9064B186828B901221A6070476FF08A
:102E0000050070474FF0FF30704700BFB80B00203F
:102E100010B5EFF305845CB9084B1A68012A0AD192
:102E2000074AD47702221A6000F086FD204610BDC2
:102E30006FF00500FBE74FF0FF30F8E7B80B00201C
:102E400000ED00E0F0B51446002287B00B46059275
:102E5000EFF30582FAB9F0B154B3A56925B1691E43
:102E6000372902D9002017E018256268D207F9D463
:102E700066699EB1B2082168D4E9027C87B1BCF1D1
:102E8000A70F08D9246934B12EB1CDE901470095C7
:102E900000F0ECFC0590059807B0F0BD8022EAE751
:102EA000BCF1000FF7D12469002CF4D10C4601E0ED
:102EB0001825802205A9CDE9005192B2214600F0E3
:102EC0000DFD01281CBF00230593E4E708B5EFF3CF
:102ED000058222B908B100F099FE002008BD6FF00C
:102EE0000500FBE7034B0360034B0B60802313607B
:102EF000704700BF100B002010090020034B036037
:102F0000034B0B604FF48073136070476808002018
:102F1000680400204FF0FF3200F10803C0E90223EB
:102F2000436003610023036070470023036170471F
:102F300043689A684B608A605160996003680861D1
:102F400001330360704730B50C68631C0AD1036914
:102F50005A684A6091608B60596003680861013368
:102F6000036030BD00F10802134652681568A5429F
:102F7000FAD9EDE70369D0E901128A605160596816
:102F8000814208BF5A60002202611A68013A1A6041
:102F90001868704710B5044601F0F4F9A46B01F00D
:102FA00011FAB4FA84F0400910BD70B51646026CEF
:102FB0000446856B42B906689EB9806800F064FFDC
:102FC000A6600135A56370BD6EB9406801F0AFFE23
:102FD0006368226C1344A2686360934224BF236831
:102FE00063600020EDE7C06801F0A1FE226CE36899
:102FF00051429B1A2268E36093423EBFA3685B186C
:10300000E360022EEDD10DB1013DEAE72846D8E795
:1030100003461A6C084610B462B1DC68996814441F
:103020008C4228BF1968DC6028BFD960D96810BC01
:1030300001F07DBE10BC704770B5044601F0A2F9E6
:1030400094F8455004F124066DB2002D01DD636A49
:10305000B3B9FF2384F8453001F0B4F901F092F9D7
:1030600094F8445004F110066DB2002D01DD23697F
:103070007BB9FF2384F84430BDE8704001F0A2B969
:10308000304600F063FE08B100F0E8FE013D6DB28D
:10309000DBE7304600F05AFE08B100F0DFFE013DEC
:1030A0006DB2E2E738B50D46044640B94FF0500323
:1030B00083F31188BFF36F8FBFF34F8FFEE701F0EB
:1030C00061F9D4E90F314B432268D0185B1AA06034
:1030D000626000201A44FF23A063E26084F8443059
:1030E00084F84530A5B9236973B104F1100000F0EC
:1030F0002DFE48B14FF0E0234FF08052C3F8042D6D
:10310000BFF34F8FBFF36F8F01F05CF9012038BD23
:1031100004F11000FFF7FEFE04F12400FFF7FAFEB1
:10312000F2E737B50D461C4640B94FF0500383F324
:103130001188BFF36F8FBFF34F8FFEE743B94FF096
:10314000500383F31188BFF36F8FBFF34F8FFEE7F8
:103150004AB191B94FF0500383F31188BFF36F8FD9
:10316000BFF34F8FFEE741B14FF0500383F3118857
:10317000BFF36F8FBFF34F8FFEE750230193019B87
:10318000502B08D04FF0500383F31188BFF36F8F9B
:10319000BFF34F8FFEE70121002D08BF2246C4E98F
:1031A0000F0584F8461020462260019BFFF77AFF46
:1031B00020469DF8183084F84C3003B030BD2DE91E
:1031C000FF410F461E460446019240B94FF050039E
:1031D00083F31188BFF36F8FBFF34F8FFEE751B9B1
:1031E000036C43B14FF0500383F31188BFF36F8F2B
:1031F000BFF34F8FFEE7022E0BD1E36B012B08D0FC
:103200004FF0500383F31188BFF36F8FBFF34F8FDD
:10321000FEE700F029FE054620B300254FF0000828
:1032200001F0B0F8A26BE36B9A4227D232463946DE
:103230002046FFF7BAFE636A1BB104F1240000F0D8
:1032400085FD48B14FF0E0234FF08052C3F8042DC4
:10325000BFF34F8FBFF36F8F01F0B4F8012004B0BC
:10326000BDE8F081019B002BD8D04FF0500383F3D1
:103270001188BFF36F8FBFF34F8FFEE7022ED5D0BB
:10328000019B1BB901F09EF80020E8E715B902A8E0
:1032900000F09CFD01F096F800F09EFB01F072F842
:1032A00094F84430FF2B08BF84F8448094F84530EC
:1032B000FF2B08BF84F8458001F084F801A902A81B
:1032C00000F090FD38BB01F05DF8A26BE36B9A4211
:1032D0000ED101F077F8019904F1100000F0FCFC28
:1032E0002046FFF7A9FE00F01DFC48B1012597E735
:1032F00001F068F82046FFF79FFE00F013FCF5E7A9
:103300004FF0E0234FF08052C3F8042DBFF34F8FEE
:10331000BFF36F8FEAE72046FFF78EFE00F002FC56
:10332000B2E72DE9F843894617461E46044640B9E0
:103330004FF0500383F31188BFF36F8FBFF34F8FAC
:10334000FEE751B9036C43B14FF0500383F311888A
:10335000BFF36F8FBFF34F8FFEE7022E0BD1E36BEE
:10336000012B08D04FF0500383F31188BFF36F8F08
:10337000BFF34F8FFEE701F0DDF8EFF311884FF058
:10338000500383F31188BFF36F8FBFF34F8FA26B8E
:10339000E36B9A4201D3022E1ED194F84550324677
:1033A000494620466DB2A36BFFF7FFFD6B1C0ED1A3
:1033B000636A3BB104F1240000F0C8FC10B10FB106
:1033C00001233B60012088F31188BDE8F8830135B3
:1033D0006DB284F84550F5E70020F4E72DE9FF4190
:1033E0000E460446019240B94FF0500383F3118812
:1033F000BFF36F8FBFF34F8FFEE751B9036C43B13B
:103400004FF0500383F31188BFF36F8FBFF34F8FDB
:10341000FEE700F029FD054618B300254FF000082F
:1034200000F0B0FFA76B47B331462046013FFFF7DE
:10343000EFFDA763236973B104F1100000F086FC6F
:1034400048B14FF0E0234FF08052C3F8042DBFF392
:103450004F8FBFF36F8F00F0B5FF012004B0BDE8C0
:10346000F081019B002BD9D04FF0500383F31188DA
:10347000BFF36F8FBFF34F8FFEE7019B1BB900F0C7
:10348000A1FF0020EAE715B902A800F09FFC00F0B8
:1034900099FF00F0A1FA00F075FF94F84430FF2B7B
:1034A00008BF84F8448094F84530FF2B08BF84F8A7
:1034B000458000F087FF01A902A800F093FC00BB43
:1034C0002046FFF767FDB0B1019904F1240000F038
:1034D00003FC2046FFF7B0FD00F024FB48B94FF095
:1034E000E0234FF08052C3F8042DBFF34F8FBFF39A
:1034F0006F8F012594E72046FFF79EFD00F012FB39
:10350000F7E72046FFF798FD00F00CFB2046FFF799
:1035100041FD0028EDD0B4E7002330B5064A52F84B
:10352000335002EBC3041DB942F83310606030BD64
:103530000133082BF3D1FAE7BC0B002070B5044629
:103540000D46164600F01EFF94F84430FF2B04BFD2
:10355000002384F8443094F84530FF2B04BF002347
:1035600084F8453000F02EFFA36B2BB93246294674
:1035700004F1240000F0CAFB2046BDE87040FFF7CC
:103580005BBD00002DE9F041044600F0FBFE304B2E
:10359000304E1A68304F01321A603568002D4BD119
:1035A00034601B68012B1FD1B84640460135FFF738
:1035B000B1FC382D08F11408F7D1DFF8A080284DB0
:1035C0004046FFF7A7FC2846FFF7A4FC2548FFF775
:1035D000A1FC2548FFF79EFC2448FFF79BFC244BE9
:1035E000C3F80080234B1D601420234A1368013365
:1035F0001360224A63641168E36A8B4200FB037024
:1036000004F1040188BF1360FFF792FC00F0DAFEBA
:103610001B4B1B6873B13368DA6AE36A9A4209D2BA
:103620004FF0E0234FF08052C3F8042DBFF34F8FCB
:10363000BFF36F8FBDE8F081114B1A68E36A002A6F
:10364000D2D13268D26A9A4298BF3460CCE700BFC8
:10365000200C0020F4100020940C0020800C00208E
:103660006C0C0020500C00203C0C0020240C00208E
:10367000680C0020640C0020040C0020180C0020B2
:10368000140C0020F8B50646144B154D1C6828682C
:103690000F460430FFF76EFC731C07D137B1296861
:1036A00010480431BDE8F840FFF742BC2B68A4196C
:1036B0005C6007D30C4B18682968BDE8F8400431FA
:1036C000FFF741BC094B186829680431FFF73BFC40
:1036D000074B1A68A24288BF1C60F8BD1C0C002072
:1036E000F4100020240C0020640C0020680C002042
:1036F000000C0020064A13681968064B19B94FF0F0
:10370000FF321A6070471268D268D2685268F8E7D0
:10371000680C0020000C002010B50446543001F065
:1037200045FA94F8A5303BB9206B00F0EFFF204636
:10373000BDE8104000F0EABF012BF8D0022B08D002
:103740004FF0500383F31188BFF36F8FBFF34F8F98
:10375000FEE710BD80B5134C134F144D236873B9A9
:10376000134B1B68012BF8D94FF0E0234FF0805228
:10377000C3F8042DBFF34F8FBFF36F8FEDE700F059
:1037800001FEFB68DE68301DFFF7F4FB2B68013B90
:103790002B602368013B236000F014FE3046FFF7E6
:1037A000BBFFDBE7380C00203C0C0020200C002085
:1037B000940C00202DE9F0470D46DDE909949600B0
:1037C00032460746A521206B984601F032F9236B5B
:1037D000043E1E4426F00706002D41D06B1E04F166
:1037E00033020F3513F8011F02F8011F09B1AB4274
:1037F000F8D1002384F84330089D4FF0000A372D9C
:1038000028BF3725201DE562E564C4F850A0FFF706
:103810008CFBC5F1380504F11800FFF786FB4C223C
:103820005146C4F8A0A02461A561646284F8A4A0F4
:1038300004F1540001F0FDF80B4B394603F1680226
:10384000A365D033E26530464246236600F076FD3C
:103850002060B9F1000F01D0C9F80040BDE8F08741
:1038600084F83450C8E700BF4C1E002070B586B005
:10387000DDE90B5445B94FF0500383F31188BFF3D2
:103880006F8FBFF34F8FFEE744B94FF0500383F3C0
:103890001188BFF36F8FBFF34F8FFEE7A826059601
:1038A000059EA82E08D04FF0500383F31188BFF374
:1038B0006F8FBFF34F8FFEE72563022584F8A55075
:1038C00004AD01950A9D02940095059EFFF772FFD5
:1038D0002046FFF757FE049806B070BD2DE9F0436F
:1038E000074685B0900088461646994600F076FE59
:1038F000054620B94FF0FF3005B0BDE8F083A820A1
:1039000000F06CFE044698B1002380F8A5300D9BB2
:10391000056301930C9B3246414602900093384662
:103920004B46FFF747FF2046FFF72CFE0120E3E759
:10393000284600F0EBFEDDE710B5002488B007AAAA
:1039400006A905A8CDE90544FFF7CCFA059B079A1F
:103950000293069B1949CDE9004319482346FFF716
:1039600085FF40B300F024FB012819D14FF050032C
:1039700083F31188BFF36F8FBFF34F8F114B124A40
:103980001B68543313604FF0FF32104B1A60104B1A
:103990001860104B1C6008B0BDE8104000F072BD0C
:1039A000013008D14FF0500383F31188BFF36F8FBC
:1039B000BFF34F8FFEE708B010BD00BF916F000846
:1039C00055370008F41000201C000020000C0020D7
:1039D000140C00201C0C0020024A136801331360F1
:1039E000704700BFFC0B0020014B1868704700BFF8
:1039F0001C0C0020404B2DE9F74F1B68002B73D1A6
:103A00003E4B1C6801341C60BCB93D4B1A681268FF
:103A100042B14FF0500383F31188BFF36F8FBFF3B0
:103A20004F8FFEE7374A1968106818601160364AF0
:103A3000136801331360FFF75DFE344D4FF0000B48
:103A40002B68334E9C42334F12D214213A68D26A0B
:103A50004A43B258022A304A28BF4FF0010B12687D
:103A6000002A18BF4FF0010B584603B0BDE8F08F95
:103A7000DFF88C90DFF8A4A0D9F8002012681AB9FA
:103A80004FF0FF322A60E0E7D9F80020D268D2F880
:103A90000C80D8F804108C4201D22960D5E708F1D7
:103AA000040318460193FFF765FAD8F8281019B1F6
:103AB00008F11800FFF75EFA1423D8F82C00DAF8A2
:103AC0000010884288BFCAF8000008F1040103FB17
:103AD0000060FFF72DFA3868D8F82C10C26A9142BE
:103AE00028BF4FF0010BC7E70D4A4FF0000B1368DA
:103AF00001331360B8E700BFFC0B00201C0C002052
:103B0000680C0020640C0020080C0020000C002031
:103B1000940C0020F41000200C0C0020180C002045
:103B2000100C00202DE9F041304C236843B94FF0D0
:103B3000500383F31188BFF36F8FBFF34F8FFEE7FE
:103B400000F020FC2368013B236024682CB1002492
:103B500000F038FC2046BDE8F081254B1B68002BA7
:103B6000F5D0244D244EDFF894801DE0EB68DC682E
:103B7000271D04F11800FFF7FDF93846FFF7FAF9A1
:103B80001420E36A326800FB03809342394688BF01
:103B90003360FFF7CDF91A4BE26A1B68DB6A9A4281
:103BA00002D30122174B1A602B68002BDED10CB117
:103BB000FFF7A0FD144D2C6844B10127114EFFF70B
:103BC00019FF00B13760013CF9D12C600D4B1B6827
:103BD000002BBCD04FF0E0234FF08052C3F8042DEF
:103BE000BFF34F8FBFF36F8F0124B1E7FC0B0020B1
:103BF000200C0020500C0020180C0020940C0020F9
:103C0000F41000200C0C0020100C002008B550B956
:103C10004FF0E0234FF08052C3F8042DBFF34F8FD5
:103C2000BFF36F8F08BD0A4B196841B14FF05003C5
:103C300083F31188BFF36F8FBFF34F8FFEE7FFF75A
:103C4000CBFEFFF71FFDFFF76DFF0028E0D0E9E78F
:103C5000FC0B00201A4B70B51A681A4B12B10122E6
:103C60001A6070BD1426184D1A602A68174906FBA1
:103C700002F3CC58C818B4B14468083364680B44E4
:103C80009C4208BF6368446008BF4360142303FB81
:103C900002114B68D9680E4B19602A601B680D4AE7
:103CA00054331360DDE742B94FF0500383F31188BA
:103CB000BFF36F8FBFF34F8FFEE7013AD7E700BF27
:103CC000FC0B00200C0C0020180C0020940C002091
:103CD000F41000201C00002010B50C4640B94FF035
:103CE000500383F31188BFF36F8FBFF34F8FFEE74D
:103CF000054B19681831FFF726F92046BDE810403A
:103D00000121FFF7BFBC00BFF410002038B50D46FD
:103D1000144640B94FF0500383F31188BFF36F8FFF
:103D2000BFF34F8FFEE7084B19681831FFF700F912
:103D3000002C214608BF2846BDE8384018BF4FF088
:103D4000FF30FFF79FBC00BFF410002038B5C368F8
:103D5000DC6844B94FF0500383F31188BFF36F8FD1
:103D6000BFF34F8FFEE704F118052846FFF702F96D
:103D7000104B1B68DBB9251D2846FFF7FBF80E4AE0
:103D800014201168E36A8B42294688BF13600B4AEE
:103D900000FB0320FFF7CCF8094BE26A1B68DB6AE3
:103DA0009A4285BF0120074B0020186038BD294684
:103DB0000548EFE7FC0B0020180C0020940C0020B5
:103DC000F41000200C0C0020500C0020034B1B684A
:103DD0000360034B1B684360704700BF080C002062
:103DE0001C0C002070B50C46054640B94FF050033E
:103DF00083F31188BFF36F8FBFF34F8FFEE741B995
:103E00004FF0500383F31188BFF36F8FBFF34F8FD1
:103E1000FEE700F0B7FA0F4B196823685A1C10D060
:103E20000D482E6800686A68864201D08A420FD920
:103E3000881A83420AD95B1A134428462360FFF785
:103E4000C5FF002400F0BEFA204670BD00232360A9
:103E50000124F7E71C0C0020080C00200122014B74
:103E60001A6070470C0C0020054B1B6833B1054BE2
:103E70001868B0FA80F04009400070470120704790
:103E8000140C0020FC0B002038B508B9002038BD08
:103E90001B4B1C68844208D04FF0500383F31188F9
:103EA000BFF36F8FBFF34F8FFEE7236D43B94FF022
:103EB000500383F31188BFF36F8FBFF34F8FFEE77B
:103EC000E16AE26C013B91422365DFD0002BDDD13A
:103ED000251D2846FFF74EF81420E36CC3F1380285
:103EE000A261084AE36211688B4288BF1360064AE8
:103EF000294600FB0320FFF71BF80120C7E700BF9E
:103F0000F4100020180C0020940C0020914208B5F9
:103F1000416000610AD8D21A83699A420DD2084BD7
:103F2000011D1868FFF70FF8002008BD9A4201D262
:103F3000994202D2034B011DF3E70120F5E700BFD0
:103F4000F4110020F8110020F7B5114C00F01AFA16
:103F50002568BDB90F4F104E3846FEF7DBFF3046DF
:103F6000FEF7D8FF0D4B10211F600D4B0A201E607D
:103F70000C4A0D4B0095FFF7D4F8206010B10B49A7
:103F8000FFF7CAFA03B0BDE8F04000F01BBA00BF6B
:103F9000F011002010120020FC110020F811002068
:103FA000F411002048110020F8100020966F00083E
:103FB00010B588B0FFF7C8FF124B1B68B3B10024DF
:103FC00007AA06A905A8CDE90544FEF797FF059BBA
:103FD000079A0293069B0C49019302230B48009316
:103FE0002346FFF743FC0A4B186040B94FF05003DB
:103FF00083F31188BFF36F8FBFF34F8FFEE701206C
:1040000008B010BDF01100209B6F0008114100089E
:10401000EC1100207FB5164604461A4640B94FF011
:10402000500383F31188BFF36F8FBFF34F8FFEE709
:104030000D4D286880B10529CDE9001602940DDCEC
:10404000FFF712FF0023022818BF1A46694608BF6F
:10405000089A2868FFF7B3F804B070BD00236946DA
:10406000FFF75FF9F8E700BFF01100202DE9F347F3
:104070000646FFF7B9FCDFF88C800546D8F800301B
:10408000834209D9204F3B681A686AB91F4A1168F0
:1040900013603960012300E0002328463360C8F82C
:1040A000005002B0BDE8F087DB68DC68D3F8009010
:1040B00004F1040A5046FEF75DFF236A2046984744
:1040C00094F828305B07DED5A3694B44994506D2A6
:1040D0005146386863602461FEF735FFD3E700235B
:1040E0004A46194620460093FFF794FF0028CAD19C
:1040F0004FF0500383F31188BFF36F8FBFF34F8FDF
:10410000FEE700BFE8110020F8110020F4110020A4
:104110002DE9F0436E4D6F4E89B02B68D3F80080C7
:10412000B8F1000F35D00024DB68D3F80080FFF72A
:1041300053FC04A8FFF79AFF049B8146002B69D12A
:10414000002C4CD1404550D3FFF7ECFC2B68DB68CA
:10415000DF68381DFEF70EFF97F8283058071AD58C
:10416000B96943464A4638464144FFF7CFFEB0B1ED
:1041700023464246214638460094FFF74BFF70B96C
:104180004FF0500383F31188BFF36F8FBFF34F8F4E
:10419000FEE70124CBE723F0010387F828303846F7
:1041A0003B6A98470022306804A9FFF717F90028F6
:1041B000B3D0049B0698002B2FDB069C6369002B71
:1041C00032D103A8FFF752FF049B0246092BE9D81E
:1041D000DFE803F02E2E2E575E762E2E575E3E4BD6
:1041E0001B681C68B4FA84F4640922463068A8EBA2
:1041F0000901FFF7A3F9FFF795FC0028D2D14FF092
:10420000E0234FF08052C3F8042DBFF34F8FBFF36C
:104210006F8FC7E7FFF786FCC4E7059B07999847B0
:10422000049B002BBEDBC8E7201DFEF7A3FEC8E7FA
:1042300094F82830A16943F0010384F82830059BE5
:1042400020461944FFF762FE0028ABD0236A2046BF
:10425000984794F828305907A4D50023A2690599F6
:1042600020460A4400931946FFF7D4FE002899D14E
:104270004FF0500383F31188BFF36F8FBFF34F8F5D
:10428000FEE794F8283023F0010384F8283089E70A
:1042900094F8283043F0010384F828300599A1618F
:1042A00041B94FF0500383F31188BFF36F8FBFF311
:1042B0004F8FFEE7034601442046FFF727FE71E7D4
:1042C00094F828309A07DED4204600F01FFA69E7F8
:1042D000F8110020F0110020F411002006480068B9
:1042E000006880F3088862B661B6BFF34F8FBFF3F2
:1042F0006F8F00DF00BF000008ED00E0002382B0F8
:1043000001930D4B1B68013308D04FF0500383F32A
:104310001188BFF36F8FBFF34F8FFEE74FF050034D
:1043200083F31188BFF36F8FBFF34F8F019B002B77
:10433000FCD002B0704700BF0C0000204FF080732B
:1043400040F8043C054B21F0010140F8081C40F8FE
:104350000C3C40F8202C4038704700BFFD4200085C
:10436000074B19680868B0E8F00F80F30988BFF3BD
:104370006F8F4FF0000080F311884EF00D0E7047E4
:10438000F41000204FF0500383F31188BFF36F8FB8
:10439000BFF34F8F0A4A13680133012B13600ED10C
:1043A0004FF0E023D3F8043DDBB243B14FF05003AC
:1043B00083F31188BFF36F8FBFF34F8FFEE7704712
:1043C0000C000020084A136843B94FF0500383F3F0
:1043D0001188BFF36F8FBFF34F8FFEE7013B136070
:1043E0000BB983F3118870470C0000200000000017
:1043F000EFF30980BFF36F8F0D4B1A6820E9F00FC0
:1044000010602DE908404FF0500080F31188FFF74D
:1044100021FC4FF0000080F31188BDE808401968C6
:104420000868B0E8F00F80F30988BFF36F8F70471A
:10443000F410002008B54FF0500383F31188BFF348
:104440006F8FBFF34F8FFFF7D5FA28B14FF0E023FE
:104450004FF08052C3F8042D002383F3118808BD68
:104460004FF0E02200234FF47A7113619361044B03
:104470001B68B3FBF1F3013B5361072313617047E2
:104480000000002013B5274B1A78D2B20192FF2208
:104490001A701B78244ADBB28DF803309DF8033084
:1044A00003F0500313700723204A13609DF8031094
:1044B000136809060AD4032B11D04FF0500383F37D
:1044C0001188BFF36F8FBFF34F8FFEE7013B13607F
:1044D0009DF803305B00DBB28DF80330E6E74FF464
:1044E00040731360019B0F4ADBB213704FF0E0235F
:1044F0000024D3F8202D42F47002C3F8202DD3F805
:10450000202D42F07042C3F8202DFFF7A9FF084B81
:104510001C60FFF7E3FEFFF79DFB2046FFF7EEFE72
:1045200002B010BD00E400E0281200202412002098
:104530000C000020EFF305830F2B0ED9114A9B5C72
:10454000114A12789A4208D94FF0500383F3118828
:10455000BFF36F8FBFF34F8FFEE74FF0E0230B4A9F
:10456000D3F80C3D126803F4E063934208D94FF08E
:10457000500383F31188BFF36F8FBFF34F8FFEE7B4
:10458000704700BFF0E300E0281200202412002052
:1045900010B5104B1A461B688342FBD3546811199F
:1045A000884201BF416810460919516044680119E9
:1045B0008B420CD1084909688B4203D059682144C9
:1045C000416019689042016018BF106010BD194623
:1045D000F8E700BF44120020401200202DE9F0410E
:1045E0000446FFF7F9F94249424D0B680BBB424ABA
:1045F00056071FBFD01D20F0070002F54062131AB6
:104600000CBF4FF440630246002013443B4E083B6E
:1046100023F0070370603260C3E90000981AC2E912
:1046200000300B60364B1860364B18604FF000437B
:104630002B602E68264255D1002C46D004F1080389
:1046400060071CBF23F007030833002B4AD02D4F0F
:104650003C689C4246D3294A15686868984204D24F
:10466000D5F800C0BCF1000F15D10968A94239D0B6
:104670002968D2F800801160C21A102A12D9E818ED
:1046800041070BD04FF0500383F31188BFF36F8FB6
:10469000BFF34F8FFEE72A466546DEE742606B6058
:1046A000FFF776FF00236A681549A41A1643164AD5
:1046B00008682B601368844203F101033C6038BF33
:1046C0000C606E6008F108041360FFF72BFA6307B3
:1046D0000AD04FF0500383F31188BFF36F8FBFF3FD
:1046E0004F8FFEE70024F0E72046BDE8F08100BFD1
:1046F000401200202C1200204C12002044120020F6
:10470000381200203C1200203412002010B504465C
:1047100090B31A4A50F8043C1268134208D14FF083
:10472000500383F31188BFF36F8FBFF34F8FFEE702
:1047300050F8081C41B14FF0500383F31188BFF3C8
:104740006F8FBFF34F8FFEE723EA020340F8043C6C
:10475000FFF742F90A4A54F8043C1168A4F1080032
:104760000B441360FFF714FFBDE81040054A1368BF
:1047700001331360FFF7D6B910BD00BF2C12002023
:104780003C12002030120020002310B50446C0E97E
:104790000033C0E90433836081814366C281836151
:1047A000194608225C3000F044F90D4B2462636224
:1047B0000C4BA3620C4BE3620C4B23630C4B9C42EF
:1047C00006D003F16802944202D0D0339C4205D156
:1047D00004F15800BDE8104000F0A6BA10BD00BFBB
:1047E000A9490008CF490008074A00082B4A0008D9
:1047F0004C1E0020024A0349034800F069B800BF7C
:1048000010000020895C00082000002041680C4B4B
:1048100010B59942044601D001F036FAA168094B5F
:10482000994202D0204601F02FFAE168064B9942E6
:1048300004D02046BDE8104001F026BA10BD00BFEC
:104840004C1E0020B41E00201C1F002010B50B4B76
:104850000B4C0C4A20461A6004210022FFF794FFFB
:1048600004F1680001220921FFF78EFF04F1D00056
:104870000222BDE810401221FFF786BF841F0020EE
:104880004C1E0020F5470008014800F04EBA00BF5A
:104890008D1F0020014800F049BA00BF8D1F002085
:1048A00010B50446FFF7F0FF236A1BB1BDE81040C6
:1048B000FFF7F0BF044B2362044B1B68002BF5D1BC
:1048C000FFF7C4FFF2E700BF0D480008841F002077
:1048D0002DE9F8430746884614460026D4E9019599
:1048E000B9F1010905D52468002CF7D13046BDE89F
:1048F000F883AB89012B07D9B5F90E30013303D00A
:1049000029463846C04706436835E9E70EB46FF0DC
:10491000004110B500249DB01FAB02900690079196
:1049200004910948094953F8042B0591006802A92C
:1049300001931B9400F082FB029B1C701DB0BDE82C
:10494000104003B0704700BF1C0000200802FFFFAA
:104950000EB44FF4017270B500259DB021AC54F82F
:10496000046BADF814201B9502900690FBF7FAFB40
:104970000B4B03900B934FF6FF7307900948ADF86C
:1049800016303246234602A900680F95149501940B
:1049900000F0AAFC1DB0BDE8704003B0704700BF36
:1049A000CB4900081C00002010B50C46B1F90E10D0
:1049B00000F06CF90028ABBF636DA3891B1823F4CA
:1049C0008053ACBF6365A38110BD002070472DE903
:1049D000F0411F468B890546DB050C46164605D57A
:1049E00002230022B1F90E1000F03EF9A3893246ED
:1049F00023F48053A38128463B46B4F90E10BDE84A
:104A0000F04100F055B910B50C46B1F90E1000F0A8
:104A10002BF9431CA38915BF606523F4805343F42D
:104A20008053A38118BFA38110BDB1F90E1000F00F
:104A3000ADB803460244934200D1704703F8011B0E
:104A4000F9E70346C9B2184613F8012B12B18A429E
:104A5000F9D17047002918BF0020704710B56AB11E
:104A60000139841810F8012B11F8013F9A4203D143
:104A7000A04201D0002AF5D1D01A10BD1046FCE7A3
:104A8000034610B5013932B111F8014F013A03F86C
:104A9000014B002CF7D100211A44934200D110BDE4
:104AA00003F8011BF9E70000164B2DE9F0411F68E0
:104AB00005467C6C0E46ECB9502000F0ADF902467C
:104AC000786420B95B21104B104800F03FF9C0E931
:104AD0000044C0E90244C0E90444C0E90A44C0E912
:104AE0000C44C0E90E44C0E91044C0E9124484619A
:104AF00004774462314628467A6C0123BDE8F041D0
:104B000000F006B81C000020A36F0008BA6F000870
:104B1000F0B5044608B9146844B10F46204614F8AD
:104B2000015B17F8016B1EB965B91560002005E03F
:104B3000B542F6D1002BF0D114600370F0BD1C46D5
:104B40000CE01DB90E46274614F8013B16F8015B30
:104B5000AB42F6D1002BF2D000233B701460EDE79E
:104B60000A7870B56AB970BD9A4209D10C460546FB
:104B700014F8013F002BF6D015F8016F9E42F7D0D4
:104B800001300378002BEFD11846ECE738B500234D
:104B9000054D044608462B60FCF706FC431C02D179
:104BA0002B6803B1236038BD881F00202D4B70B5E2
:104BB0001B680446834253D0C3691BB3DB6863B1EF
:104BC0000025E369DB685959B1B90435802DF8D166
:104BD000E3692046D96800F0D7F8E369196811B194
:104BE000204600F0D1F8E3699D685DB12946204672
:104BF0002D6800F0C9F8F8E70E68204600F0C4F808
:104C00003146E1E7616911B1204600F0BDF8E16984
:104C100011B1204600F0B8F8216B11B1204600F028
:104C2000B3F8616B11B1204600F0AEF8A16B11B181
:104C3000204600F0A9F8A16C11B1204600F0A4F8BC
:104C4000616C11B1204600F09FF8E16A11B1204675
:104C500000F09AF8236A1BB12046BDE8704018475F
:104C600070BD00BF1C00002038B504460846114640
:104C70000022054D2A601A46FCF7A0FB431C02D116
:104C80002B6803B1236038BD881F002038B5044667
:104C9000084611460022054D2A601A46FCF768FBBB
:104CA000431C02D12B6803B1236038BD881F00204C
:104CB00038B50446084611460022054D2A601A46BA
:104CC000FCF764FB431C02D12B6803B1236038BDA1
:104CD000881F0020014B1868704700BF1C0000208F
:104CE00070B500260C4D0D4C641BA410A64209D1D2
:104CF00001F074FC00260A4D0A4C641BA410A64265
:104D000005D170BD55F8043B98470136EEE755F8DC
:104D1000043B98470136F2E71C7200081C72000839
:104D20001C720008207200087047704770470A44E0
:104D3000914200F1FF3300D1704710B511F8014BDB
:104D4000914203F8014FF9D110BD00001FB5144680
:104D50001A46094B05461B68D8684CB1074BCDE98C
:104D6000013400912B46064900F0B6FF01F070F8BF
:104D7000044B1C46F3E700BF1C0000201470000821
:104D8000217000084168000838B50546002940D068
:104D900051F8043C0C1F002BB8BFE41800F0E6F8F3
:104DA0001C4A136833B9636014602846BDE8384074
:104DB00000F0E2B8A34208D9206821188B4201BF55
:104DC00019685B6809182160EDE71A465B680BB14A
:104DD000A342FAD911685018A0420BD120680144AF
:104DE000501883421160E0D118685B680844106075
:104DF0005360DAE702D90C232B60D6E7206821182C
:104E00008B4201BF19685B680918216063605460B8
:104E1000CBE738BD941F0020024B0146186800F014
:104E200025B800BF1C00002070B50F4E0C4631683D
:104E3000054611B900F0EEFF30602146284600F02B
:104E4000E9FF431C03D14FF0FF34204670BDC41C62
:104E500024F00304A042F8D0211A284600F0DAFF1B
:104E60000130F2D1EFE700BF901F00202DE9F84399
:104E7000CD1C25F0030508350C2D38BF0C25002D61
:104E8000064601DBA94204D90C2333600020BDE8AB
:104E9000F883DFF8D48000F069F8D8F800301C46B9
:104EA00044BB29463046FFF7BFFF431C044658D198
:104EB000D8F800402746002F43D1002C4BD0236860
:104EC0003946304604EB030900F0A4FF814542D186
:104ED000216830466D1A2946FFF7A6FF01303AD007
:104EE00023682B442360D8F800305A6862BBC8F8A6
:104EF00000700FE02268521B20D40B2A17D96119C9
:104F0000A342256018BF5960636808BFC8F8001045
:104F100062514B60304600F02FF804F10B00231D66
:104F200020F00700C21A1CBF1B1AA350AFE762682B
:104F3000A3420CBFC8F800205A60EBE72346646820
:104F4000AEE73C467F68B6E71A465B68A342FBD1F2
:104F500000235360DEE70C233046336000F00CF88A
:104F600094E70560D6E700BF941F00200148FFF7D3
:104F7000DCBE00BF8C1F00200148FFF7D7BE00BF7A
:104F80008C1F00202DE9F0471F468E688246BE42E6
:104F90000C4690460B682DD8B1F90C2012F4906F96
:104FA00026D06569096905EB4505A3EB010905EB09
:104FB000D5757B1C4B446D109D4238BF1D46530573
:104FC00027D52946FFF752FF064660B34A462169B6
:104FD000FFF7ADFEA38923F4906343F08003A38120
:104FE00026614E4426603E466561A5EB0905A56035
:104FF000BE4200D93E4632464146206800F0EFFEF0
:105000000020A3689B1BA360236833442360BDE892
:10501000F0872A4600F023FF06460028E0D15046DC
:105020002169FFF7B1FE0C23CAF80030A3894FF0C5
:10503000FF3043F04003A381E9E700002DE9F04F82
:1050400098468B8907461B060D4614469DB010D521
:105050000B6973B94021FFF709FF2860286130B957
:105060000C233B604FF0FF301DB0BDE8F08F4023B4
:105070006B610023099320238DF8293030234FF0F2
:105080000109CDF80C80DFF898818DF82A3023468D
:105090009A4613F8012B0AB1252AF9D1BAEB040B71
:1050A0000BD05B46224629463846FFF76BFF01309E
:1050B00000F0A780099A5A4409929AF80030002B10
:1050C00000F09F8000234FF0FF32CDE905230AF165
:1050D000010A049307938DF853301A93544605221E
:1050E00014F8011B4E4800F0A5FE049AD8B9D0066A
:1050F00044BF20238DF85330110744BF2B238DF874
:1051000053309AF800302A2B15D0544600204FF027
:105110000A0C079A214611F8013B303B092B4BD969
:10512000B0B1079214E0A0EB080309FA03F31343AC
:10513000A2460493D2E7039B191D1B680391002B21
:10514000BBBF5B4242F0020207930793B8BF0492D1
:1051500023782E2B0AD163782A2B32D1039B023479
:105160001A1D1B68039243EAE3730593DFF8B4A0AA
:1051700003225046217800F05DFE38B14022049BA6
:10518000A0EB0A00824013430134049314F8011B7E
:10519000062225488DF8281000F04CFE002836D055
:1051A000224B1BBB039B073323F0070308330393F6
:1051B000099B334409936AE70C4601200CFB023239
:1051C000A8E700234FF00A0C194601340593204646
:1051D00010F8012B303A092A03D9002BC6D00591CB
:1051E000C4E7044601230CFB0121F0E703AB009365
:1051F0002A4638460E4B04A9AFF30080421C0646EF
:10520000D6D1AB895B063FF52DAF09982CE703ABF0
:1052100000932A463846064B04A900F04BFAEDE706
:1052200050700008567000085A7000080000000016
:10523000854F000838B54B1C144603D14FF0FF359D
:10524000284638BD9389CDB223F020039381636B48
:1052500052688BB1A36B934208DD23685A1E22600B
:1052600003F8015C636801336360E9E7214600F0FD
:105270007EFD0028F1D0E1E72169236851B1994210
:1052800008D213F8011CA94204D1013B013223606A
:105290006260D5E7C4E90F3204F14403636303237A
:1052A000A363234603F8465F23600123DCE710B5C0
:1052B0000C46496B69B104F14403994201D0FFF7F0
:1052C00063FD0020236C6063636013B1E36B2360B4
:1052D00010BD23694FF0FF30236000236360A38972
:1052E00043F02003A381F3E72DE9F04F0C460021A2
:1052F0000646ADF5237DCDE94411AB490DF1040817
:10530000A091AA49AA4FCDF81881A191009392F8D3
:105310000090B9F1000F00F0598117F80930551CC1
:1053200013F0080319D06368002B0FDD23681A7887
:10533000BA5C120701D42A46E9E7459A01330132E3
:10534000459262682360013A6260ECE7214630468C
:10535000A19B98470028E9D0EDE7B9F1250F40F06F
:1053600086804193439353782A2B04BF1023951CC6
:105370004FF00A0208BF4193AA461AF8011BA1F197
:105380003003092B1ED9DFF82CB20322584600F057
:1053900051FD38B101235546419AA0EB0B008340E3
:1053A0001343419315F8013B782B06D8572B10D89F
:1053B000252B5CD056D8002B74D0032347930A23A7
:1053C000429387E0439B554602FB031130394391DA
:1053D000D2E7A3F15802202AEFD801A151F822F018
:1053E000B3540008BB530008BB5300080D55000818
:1053F000BB530008BB530008BB530008BB53000855
:10540000BB530008BB530008BB53000823550008DA
:10541000095500086B5400086B5400086B540008D1
:10542000BB530008C5540008BB530008BB53000819
:10543000BB530008BB53000833550008CD54000887
:10544000AB540008BB530008BB5300082F5500089D
:10545000BB53000809550008BB530008BB530008A4
:10546000B3540008453B022BA7D8052331E06368FD
:10547000002B0DDD23681A784A4540F0A7800133E0
:1054800062682360459B013A01336260459352E7AD
:1054900021463046A19B98470028EBD0449800282D
:1054A00040F08C804FF0FF308CE0419A42F02002B7
:1054B0004192419A42F40072419210226E2B429224
:1054C00002D905E000234293032302E0082342931C
:1054D000042347936368002B39DD419B590604D4AC
:1054E00023681A78BA5C120738D4479B022B47DC32
:1054F0006B462246304641A900F0FAF9012865D0F2
:1055000002287FF418AFC9E70A22D7E729464046A8
:1055100000F0F4FB419B054643F040034193012317
:10552000D7E7419B43F0400341930023D1E7022397
:10553000CFE74198C3063FF5FEAE009B459A191D83
:1055400000911B68C0074CBF1A801A60F3E6214621
:105550003046A19B98470028BFD09FE7459A01326B
:1055600045926268013A002A626002DD01332360DD
:10557000B6E721463046A19B98470028B0D08DE77A
:10558000042B06DC6B462246304641A900F00AFA9D
:10559000B4E7094B002B3FF4CEAE6B4622463046B3
:1055A00041A9AFF30080A9E735520008AF520008C7
:1055B000137100085670000800000000A3895B0604
:1055C0003FF570AF0DF5237DBDE8F08F4498F9E706
:1055D0002DE9F047164698468A680B6907469342BC
:1055E000B8BF1346336091F843200C46DDF8209095
:1055F0000AB1013333602368990642BF336802332E
:105600003360256815F0060506D104F1190AE36830
:1056100032689B1AAB422BDC94F843302268003B83
:1056200018BF0123920630D44146384604F14302A4
:10563000C847013023D02368226903F00603042BF6
:1056400014BF002533684FF0000608BFE56804F179
:105650001A0408BFED1A54F8123C08BF25EAE57594
:105660009342C4BF9B1AED18B5421AD1002008E03E
:105670000123524641463846C847013003D14FF016
:10568000FF30BDE8F0870135C1E73020E11881F82F
:1056900043005A1C94F845102244023382F8431008
:1056A000C2E70123224641463846C8470130E6D0CA
:1056B0000136D9E72DE9FF470F7E9146782F8046C6
:1056C0000C469A460C9E01F1430207D8622F0AD875
:1056D000002F00F0D180582F00F0B88004F142066E
:1056E00084F842703AE0A7F16303152BF6D801A1C4
:1056F00051F823F04D57000861570008DD560008A7
:10570000DD560008DD560008DD5600086157000828
:10571000DD560008DD560008DD560008DD5600089D
:105720005F5800088B57000819580008DD5600081C
:10573000DD56000881580008DD5600088B57000828
:10574000DD560008DD5600082158000833681A1D90
:105750001B68326004F1420684F8423001239CE069
:1057600033682068191D3160060601D51D6803E005
:105770004506FBD5B3F90050002D03DA2D236D4209
:1057800084F843300A23584811E02168336808063A
:1057900053F8045B02D4490648BFADB26F2F3360A3
:1057A00014BF0A2308235048002184F84310666878
:1057B000002EA66005DB21682E4321F00401216044
:1057C0004BD01646B5FBF3F103FB1157C75D06F846
:1057D000017D2F46BB420D46F4D9082B0BD123681F
:1057E000DF0708D5236961689942DEBF302306F8D8
:1057F000013C06F1FF36921B22614B462146404692
:10580000CDF800A003AAFFF7E3FE01304AD14FF024
:10581000FF3004B0BDE8F087236843F02003236025
:105820007827324884F84570236831681F0651F89C
:10583000045B02D45F0648BFADB23160D90744BFF4
:1058400043F0200323601DB11023ADE72648E9E7AC
:10585000236823F020032360F6E71646BDE733688C
:105860002568181D616930602E061B6801D5196016
:1058700002E06806FBD51980002316462361BCE7C9
:10588000336800211A1D32601E686268304600F0DD
:10589000D1FA08B1801B606063682361002384F83B
:1058A0004330AAE73246494640462369D047013093
:1058B000ADD023689B0713D4E068039B9842B8BF20
:1058C0001846A6E70123324649464046D0470130F4
:1058D0009DD00135E36803995B1AAB42F2DCEBE73C
:1058E000002504F11906F5E76170000872700008E0
:1058F0002DE9F84315468A6880460C4632B98A6914
:10590000002A14BF4FF0FF3201228A60002722686C
:10591000DFF88C90D1065FBF1A68111D19601668F8
:10592000A06988B1012807D12B681A7863699B5C4C
:1059300053B9002F31D022E0022820D12B681B78E8
:1059400019F803301B071AD423680137DA065EBF43
:105950002B681B7806F8013B2A686B6801322A60C5
:10596000A268013B013A6B60A26042B1002BD7DC18
:1059700029464046D4F8803198470028D0D0236883
:1059800013F0100305D1E2680132E260A26902B1AE
:105990003370002023693B442361BDE8F88300BFD6
:1059A000137100082DE9F04F0C469846724B87B0F2
:1059B0008246164693E8070003AB83E807006F4B67
:1059C000A1696F4A2746032908BF1A46A3680192B6
:1059D0005A1EB2F5AE7F81BF6FF4AE7503EB0509B9
:1059E00040F25D13A36057F81C3B98BF4FF00009CD
:1059F0003D464FF0000B43F450632360316803AB26
:105A00000222097853F82B0000F014FA28B3BBF1F6
:105A1000010F59D162682AB908212268616042F4F5
:105A200000722260226822F4A0622260A268511EE5
:105A3000A16092B13268511C3160127805F8012BD7
:105A40007268013A002A726007DC31465046D4F889
:105A500080219047002840F085800BF1010BBBF1BD
:105A6000030FCBD163680BB90A23636063684549B0
:105A70006069C91A00F042F94FF0000BA368226870
:105A8000002B3DD03168606991F800C010F80C001F
:105A9000002835D0BCF1300F24D1100522D50BF1F0
:105AA000010BB9F1000F03D0013309F1FF39A360F5
:105AB0007368013B002B73601BDD33680133336077
:105AC000A368013BA360D9E7BBF1020FAED1226806
:105AD00002F4C061B1F5007FC4D1102142F480729C
