:020000040800F2
:1000000000500020E5210008911E0008931E000802
:10001000951E0008971E0008991E000800000000A9
:10002000000000000000000000000000D14E0008A9
:100030009B1E000800000000614F000841390008C5
:100040002D2200082D2200082D2200082D22000854
:100050002D2200082D2200082D2200082D22000844
:100060002D2200082D2200082D2200082D22000834
:100070002D2200082D2200082D2200082D22000824
:100080002D2200082D2200082D2200082D22000814
:100090002D2200082D2200082D2200082D22000804
:1000A0002D2200082D2200082D2200082D220008F4
:1000B0009D1E00082D2200082D2200082D22000878
:1000C0002D2200082D2200082D2200082D220008D4
:1000D0002D220008A91E0008B51E0008C11E000838
:1000E0002D2200082D2200082D220008000000000B
:1000F0000000000000000000000000000000000000
:0C01000000000000000000005FF808F1A3
:1001100010B5054C237833B9044B13B10448AFF341
:1001200000800123237010BDD801002000000000D2
:100130009091000808B5034B1BB103490348AFF386
:10014000008008BD00000000DC0100209091000844
:1001500010F8012B11F8013B012A28BF9A42F7D071
:10016000D01A7047034613F8012B002AFBD1181A46
:100170000138704781F0004102E000BF83F0004386
:1001800030B54FEA41044FEA430594EA050F08BF32
:1001900090EA020F1FBF54EA000C55EA020C7FEAF6
:1001A000645C7FEA655C00F0E2804FEA5454D4EB73
:1001B0005555B8BF6D420CDD2C4480EA020281EA3D
:1001C000030382EA000083EA010180EA020281EA75
:1001D0000303362D88BF30BD11F0004F4FEA0131C7
:1001E0004FF4801C4CEA113102D0404261EB4101D6
:1001F00013F0004F4FEA03334CEA133302D052425C
:1002000063EB430394EA050F00F0A780A4F1010417
:10021000D5F1200E0DDB02FA0EFC22FA05F2801851
:1002200041F1000103FA0EF2801843FA05F3594137
:100230000EE0A5F120050EF1200E012A03FA0EFCB6
:1002400028BF4CF0020C43FA05F3C01851EBE371E0
:1002500001F0004507D54FF0000EDCF1000C7EEBFD
:1002600000006EEB0101B1F5801F1BD3B1F5001F3B
:100270000CD349085FEA30004FEA3C0C04F101045A
:100280004FEA445212F5800F80F09A80BCF1004F83
:1002900008BF5FEA500C50F1000041EB045141EA05
:1002A000050130BD5FEA4C0C404141EB0101013CCE
:1002B00028BFB1F5801FE9D291F0000F04BF0146BD
:1002C0000020B1FA81F308BF2033A3F10B03B3F18F
:1002D00020020CDA0C3208DD02F1140CC2F10C021F
:1002E00001FA0CF021FA02F10CE002F11402D8BF7D
:1002F000C2F1200C01FA02F120FA0CFCDCBF41EA49
:100300000C019040E41AA2BF01EB0451294330BD17
:100310006FEA04041F3C1CDA0C340EDC04F11404F4
:10032000C4F1200220FA04F001FA02F340EA0300CB
:1003300021FA04F345EA030130BDC4F10C04C4F111
:10034000200220FA02F001FA04F340EA03002946F1
:1003500030BD21FA04F0294630BD94F0000F83F43B
:10036000801306BF81F480110134013D4EE77FEA1E
:10037000645C18BF7FEA655C29D094EA050F08BF6A
:1003800090EA020F05D054EA000C04BF194610464B
:1003900030BD91EA030F1EBF0021002030BD5FEA8F
:1003A000545C05D14000494128BF41F0004130BDB7
:1003B00014F580043CBF01F5801130BD01F000450B
:1003C00045F0FE4141F470014FF0000030BD7FEA7E
:1003D000645C1ABF194610467FEA655C1CBF0B4679
:1003E000024650EA013406BF52EA033591EA030F90
:1003F00041F4002130BD00BF90F0000F04BF002188
:10040000704730B54FF4806404F132044FF00005BA
:100410004FF0000150E700BF90F0000F04BF002133
:10042000704730B54FF4806404F1320410F0004599
:1004300048BF40424FF000013EE700BF42004FEA94
:10044000E2014FEA31014FEA02701FBF12F07F4311
:1004500093F07F4F81F06051704732F07F4208BFC8
:10046000704793F07F4F04BF41F40021704730B5CF
:100470004FF4607401F0004521F000411CE700BF1B
:1004800050EA010208BF704730B54FF000050AE09E
:1004900050EA010208BF704730B511F0004502D59F
:1004A000404261EB41014FF4806404F132045FEAA1
:1004B000915C3FF4D8AE4FF003025FEADC0C18BF4A
:1004C00003325FEADC0C18BF033202EBDC02C2F13C
:1004D000200300FA03FC20FA02F001FA03FE40EACE
:1004E0000E0021FA02F11444BDE600BF70B54FF0D2
:1004F000FF0C4CF4E06C1CEA11541DBF1CEA1355B0
:1005000094EA0C0F95EA0C0F00F0DEF82C4481EA17
:10051000030621EA4C5123EA4C5350EA013518BF37
:1005200052EA033541F4801143F4801338D0A0FB24
:1005300002CE4FF00005E1FB02E506F00042E0FBD1
:1005400003E54FF00006E1FB03569CF0000F18BFD7
:100550004EF0010EA4F1FF04B6F5007F64F540747F
:1005600004D25FEA4E0E6D4146EB060642EAC62112
:1005700041EA55514FEAC52040EA5E504FEACE2E7F
:10058000B4F1FD0C88BFBCF5E06F1ED8BEF1004F82
:1005900008BF5FEA500E50F1000041EB045170BDFE
:1005A00006F0004646EA010140EA020081EA030142
:1005B000B4EB5C04C2BFD4EB0C0541EA045170BD3E
:1005C00041F480114FF0000E013C00F3AB8014F1B8
:1005D000360FDEBF002001F0004170BDC4F1000401
:1005E000203C35DA0C341BDC04F11404C4F1200582
:1005F00000FA05F320FA04F001FA05F240EA0200DD
:1006000001F0004221F0004110EBD37021FA04F612
:1006100042EB06015EEA430E08BF20EAD37070BDCC
:10062000C4F10C04C4F1200500FA04F320FA05F02B
:1006300001FA04F240EA020001F0004110EBD3702D
:1006400041F100015EEA430E08BF20EAD37070BD9D
:10065000C4F1200500FA05F24EEA020E20FA04F376
:1006600001FA05F243EA020321FA04F001F0004125
:1006700021FA04F220EA020000EBD3705EEA430E96
:1006800008BF20EAD37070BD94F0000F0FD101F0C5
:100690000046400041EB010111F4801F08BF013CFE
:1006A000F7D041EA060195F0000F18BF704703F03C
:1006B0000046520043EB030313F4801F08BF013DC3
:1006C000F7D043EA0603704794EA0C0F0CEA13557F
:1006D00018BF95EA0C0F0CD050EA410618BF52EA39
:1006E0004306D1D181EA030101F000414FF000003F
:1006F00070BD50EA410606BF1046194652EA43064D
:1007000019D094EA0C0F02D150EA013613D195EAC0
:100710000C0F05D152EA03361CBF104619460AD108
:1007200081EA030101F0004141F0FE4141F4700112
:100730004FF0000070BD41F0FE4141F4780170BD02
:1007400070B54FF0FF0C4CF4E06C1CEA11541DBF67
:100750001CEA135594EA0C0F95EA0C0F00F0A7F869
:10076000A4EB050481EA030E52EA03354FEA013196
:1007700000F088804FEA03334FF0805545EA1313A9
:1007800043EA12634FEA022245EA111545EA106571
:100790004FEA00260EF000419D4208BF964244F108
:1007A000FD0404F5407402D25B084FEA3202B61A27
:1007B00065EB03055B084FEA32024FF480104FF4FB
:1007C000002CB6EB020E75EB030E22BFB61A75466F
:1007D00040EA0C005B084FEA3202B6EB020E75EB02
:1007E000030E22BFB61A754640EA5C005B084FEA6A
:1007F0003202B6EB020E75EB030E22BFB61A754637
:1008000040EA9C005B084FEA3202B6EB020E75EB41
:10081000030E22BFB61A754640EADC0055EA060E02
:1008200018D04FEA051545EA16754FEA06164FEA45
:10083000C30343EA52734FEAC2025FEA1C1CC0D1F1
:1008400011F4801F0BD141EA00014FF000004FF07E
:10085000004CB6E711F4801F04BF01430020B4F13F
:10086000FD0C88BFBCF5E06F3FF6AFAEB5EB030CF7
:1008700004BFB6EB020C5FEA500C50F1000041EBF4
:10088000045170BD0EF0004E4EEA113114EB5C04C1
:10089000C2BFD4EB0C0541EA045170BD41F4801194
:1008A0004FF0000E013C90E645EA060E8DE60CEA9C
:1008B000135594EA0C0F08BF95EA0C0F3FF43BAFB9
:1008C00094EA0C0F0AD150EA01347FF434AF95EA70
:1008D0000C0F7FF425AF104619462CE795EA0C0F54
:1008E00006D152EA03353FF4FDAE1046194622E721
:1008F00050EA410618BF52EA43067FF4C5AE50EAFB
:1009000041047FF40DAF52EA43057FF4EBAE12E7EA
:100910004FF0FF3C06E000BF4FF0010C02E000BFCB
:100920004FF0010C4DF804CD4FEA410C7FEA6C5CAE
:100930004FEA430C18BF7FEA6C5C1BD001B050EA51
:10094000410C0CBF52EA430C91EA030F02BF90EA3C
:10095000020F0020704710F1000F91EA030F58BFFB
:10096000994208BF90422CBFD8176FEAE37040F05D
:10097000010070474FEA410C7FEA6C5C02D150EAFB
:10098000013C07D14FEA430C7FEA6C5CD6D152EAB6
:10099000033CD3D05DF8040B704700BF844610467B
:1009A00062468C461946634600E000BF01B5FFF77A
:1009B000B7FF002848BF10F1000F01BD4DF808ED4A
:1009C000FFF7F4FF0CBF012000205DF808FB00BF1B
:1009D0004DF808EDFFF7EAFF34BF012000205DF875
:1009E00008FB00BF4DF808EDFFF7E0FF94BF0120C2
:1009F00000205DF808FB00BF4DF808EDFFF7CEFFC3
:100A000094BF012000205DF808FB00BF4DF808ED01
:100A1000FFF7C4FF34BF012000205DF808FB00BFD2
:100A20004FEA410C7FEA6C5C02D150EA013C0AD1EA
:100A30004FEA430C7FEA6C5C02D152EA033C02D1DC
:100A40004FF0000070474FF0010070474A0011D28C
:100A500012F5001211D20DD56FF47873B3EB625218
:100A60000ED44FEAC12343F0004343EA505323FA24
:100A700002F070474FF00000704750EA013002D199
:100A80004FF0FF3070474FF0000070474FEA4102CF
:100A9000B2F1E04324BFB3F5001CDCF1FE5C0DD9DC
:100AA00001F0004C4FEAC0024CEA5070B2F1004F26
:100AB00040EB830008BF20F00100704711F0804F29
:100AC00021D113F13872BCBF01F00040704741F4EE
:100AD00080114FEA5252C2F11802C2F1200C10FAF2
:100AE0000CF320FA02F018BF40F001004FEAC123D6
:100AF0004FEAD32303FA0CFC40EA0C0023FA02F37A
:100B00004FEA4303CCE77FEA625307D150EA01334F
:100B10001EBF4FF0FE4040F44000704701F000401F
:100B200040F0FE4040F40000704700BF4FF0FF3C33
:100B300006E000BF4FF0010C02E000BF4FF0010CD7
:100B40004DF804CD4FEA40024FEA41037FEA226CA0
:100B500018BF7FEA236C11D001B052EA530C18BFC2
:100B600090EA010F58BFB2EB030088BFC81738BF27
:100B70006FEAE17018BF40F0010070477FEA226C15
:100B800002D15FEA402C05D17FEA236CE4D15FEA11
:100B9000412CE1D05DF8040B704700BF8446084645
:100BA0006146FFE70FB5FFF7C9FF002848BF10F106
:100BB000000F0FBD4DF808EDFFF7F4FF0CBF01204B
:100BC00000205DF808FB00BF4DF808EDFFF7EAFFD5
:100BD00034BF012000205DF808FB00BF4DF808ED90
:100BE000FFF7E0FF94BF012000205DF808FB00BF85
:100BF0004DF808EDFFF7D2FF94BF012000205DF80B
:100C000008FB00BF4DF808EDFFF7C8FF34BF012017
:100C100000205DF808FB00BF38B500220023044621
:100C20000D46FFF7D5FE28B920462946BDE83840D5
:100C300000F00AB8204605F1004100F005F84042F6
:100C400061EB410138BD00BFD0B500220B4B064619
:100C50000F46FFF74BFCFFF7F9FE0446FFF7CCFB0E
:100C60000022074BFFF742FC02460B46304639464E
:100C7000FFF784FAFFF7EAFE2146D0BD0000F03D01
:100C80000000F0412DE9F74F0D46644904F0CEFE17
:100C9000002604463746DFF8889114B903B0BDE852
:100CA000F08F052220465F4904F09AFE50B92A468B
:100CB0005D49204604F00EFE0020584904F0B6FEBF
:100CC0000446EAE705222046584904F089FE18B98F
:100CD000574905F12002ECE705224946204604F079
:100CE0007FFE18B9534905F14002E2E7052220468C
:100CF000514904F075FE18B9504905F15002D8E782
:100D0000052220464E4904F06BFE18B94D4905F105
:100D10005402CEE7052220464B4904F061FEB0B9EB
:100D20005FB1002EC8D12046484905F15C0204F0AD
:100D3000D1FD431E5E425E41BEE72046444905F1B7
:100D4000580204F0C7FD0128EBD10746B4E705229D
:100D50002046404904F044FE18B93F4905F15D02C0
:100D6000A7E7052220463D4904F03AFE28BBDFF8FC
:100D7000F0A0DFF8F0B005346A465146204601ABDA
:100D800004F0A8FD022897D1DDF8008008F1FF32B9
:100D9000072A0AD8594601A8FFF7DAF9B0FA80F015
:100DA00005EB0803400983F85D002021204604F08C
:100DB0000AFE002880D0441CDEE7052220462A498E
:100DC00004F00EFE00287FF477AFDFF894A0DFF880
:100DD00094B005346A465146204601AB04F07AFDD2
:100DE00002287FF469AFDDF8008008F1FF32022AA3
:100DF0000AD8594601A8FFF7ABF9B0FA80F005EB25
:100E00000803400983F865002021204604F0DBFD3B
:100E100000283FF451AF441CDCE700BFB394000846
:100E2000DE910008B4910008BA910008C991000849
:100E3000CF910008E4910008F3910008F9910008AF
:100E400002920008089200081192000820920008FF
:100E500017920008299200082F9200083892000883
:100E6000419200083E920008499200082DE9F0479F
:100E70004021A748A8B001F0ABFCA64CA64A70BB25
:100E8000237863B3117851BB013B2370A34BFA2045
:100E900019700123137002F0D1FD80219C4801F0EC
:100EA00097FC9F4BF0B91A78E2B99C4922700A70FE
:100EB0000122FA201A7002F0C1FD23780C2B42D8CF
:100EC000DFE813F01300280058008F00DF005C01FA
:100ED0009A0113001300D101F40113001300002341
:100EE0001370DAE700221A70E7E72021884801F042
:100EF0006FFC40BB23780B2B95BF01332070FA2089
:100F00004FF4FA7098BF237002F098FD0022834BD3
:100F10001A7018E001F040F9824B1A789AB1002556
:100F20008149824A0DA81D7004F0B2FC80480DA9C9
:100F300004F0D8FDD0B17F4801F098F82378013350
:100F40002370764B1D7023780C2B00F26782DFE84C
:100F500013F0CE011D027C02D10202030B03310308
:100F60005C037E03CD03F20305041804724801F00C
:100F70007DF8E8E701F010F96A4B1A78002AE2D010
:100F800000216C220DA8197004F015FD0DA9684808
:100F9000FFF778FE664801F069F8219D4FF0824125
:100FA0002846FFF725FE20B128466449FFF716FEC4
:100FB000A8B9634801F05AF80025229E61493046DD
:100FC000FFF716FE30B130465F49FFF707FE0028F5
:100FD00040F0EB835D4801F049F85D48C7E7012523
:100FE000EBE701F0D9F84F4B1A78002AABD0002577
:100FF0006C2229460DA81D7004F0DDFC4C480DA99B
:10100000FFF740FE0126DFF84C81DFF84C910DF12F
:10101000910717F8013F01352A4613B34946684640
:1010200004F036FC684601F021F80026082DF0D1C6
:101030004A4DF6B14A4801F019F840F2DC5002F08E
:10104000FDFC00212378297001332370334B4FF4CA
:1010500096721970364804F0AEFC0022414B1A809B
:1010600071E74146684604F013FC684600F0FEFF55
:10107000DCE73D4800F0FAFF2E704FF496723146DF
:10108000E8E701F089F8274B1A78002A3FF45BAFB4
:1010900000256C2229460DA81D7004F08CFC244804
:1010A0000DA9FFF7EFFD0126DFF8C090DFF8C0A023
:1010B0000DF1910717F8018F01352A46B8F1000F9D
:1010C00019D15146684604F0E3FB684600F0CEFFB4
:1010D0004646082DEED1B6B1264800F0C7FF40F2D3
:1010E000DC5002F0ABFC00212378013323700B4B62
:1010F00019701A4BABE74946684604F0C9FB6846CD
:1011000000F0B4FFE5E71C4800F0B0FFB5E700BF12
:101110000008014001020020F7010020F601002034
:10112000F5010020870500204F920008F8010020FB
:101130005A040020589200087892000800002041CC
:10114000A99200080000304100006041CE920008E2
:101150000E9300086C93000855930008F4010020DA
:101160008093000858040020939300080B94000813
:10117000F39300081E9400083094000801F00CF866
:10118000BE4B1A78002A3FF4DEAE00256C222946B9
:101190000DA81D7004F00FFCB9480DA9FFF772FDF2
:1011A0000126DFF8E082DFF8E0920DF1990717F8E9
:1011B000013F01352A46BBB14946684604F068FB49
:1011C000684600F053FF0026032DF0D1002E3FF4B7
:1011D000BAAEAE4800F04AFF40F2DC5002F02EFCFE
:1011E00023780133237091E64146684604F050FBB2
:1011F000684600F03BFFE7E700F0CEFF9F4B1A7810
:10120000002A3FF4A0AE00256C2229460DA81D70CF
:1012100004F0D1FB9A480DA9FFF734FD0126DFF851
:101220007092DFF870A20DF1990717F8018F013560
:101230002A46B8F1000F0ED15146684604F028FB4B
:10124000684600F013FF4646032DEED1002E3FF412
:101250007AAE9148BEE74946684604F019FB6846F5
:1012600000F004FFF0E720218C4801F0B1FA0546B8
:1012700000287FF468AE00F08FFF804B1A78002AB8
:101280003FF461AE6C2229460DA81D7004F093FB5B
:101290007B480DA9FFF7F6FC9DF890304A2B01D151
:1012A0007F4897E77F4800F0E1FE2FE620217B484A
:1012B00001F08EFA054600287FF445AE00F06CFF81
:1012C0006E4B1A78002A3FF43EAE6C2229460DA8D8
:1012D0001D7004F070FB6A480DA9FFF7D3FC9DF860
:1012E00090304E2B01D1704874E77048DBE7704DA9
:1012F0002C78002C40F092806E4800F063FE22466D
:101300004FF480416C4801F069FA22464FF40061C5
:10131000624801F063FA01224FF40041664801F08F
:101320005DFA01224FF400415C4801F057FA0122B6
:101330000821614801F052FA224620215E4801F05E
:101340004DFA224640215C4801F048FA22468021AD
:10135000594801F043FA4FF496722146484804F088
:101360002AFB64222146554804F025FB544B55487E
:101370001C605C601C7200F079FE0A2002F05EFBCB
:10138000514800F073FE01232B7047E0484C217850
:1013900059B96422494804F00EFB4C4800F066FE3F
:1013A0004B4800F063FE012323704A4A1378ABB325
:1013B0000024424E25463746CDE9004414708DF88E
:1013C00008403846FEF7CEFEA0422AD8002205F19A
:1013D000A0036B44082D03F8A02C30D12A4669469F
:1013E000374804F00FFB364A3B490DA804F050FA89
:1013F0000DA800F0E7FD0A2002F020FB0DA800F088
:10140000E1FD364800F032FE4FF47A7002F016FB30
:10141000334800F0D7FD322002F010FB28B0BDE8C1
:10142000F08716F8013B0D2B07D00A2B1FBF05F1E3
:10143000A0026A4402F8A03C01350134C1E7294802
:1014400028B0BDE8F04700F011BE194C2378002BFE
:10145000E4D1254800F00AFE244800F007FE4FF4CE
:10146000FA7002F0EBFA224800F0ACFD4FF4FA708B
:1014700002F0E4FA024800F0F9FDE5E087050020FB
:101480005A040020A39400088E940008B694000823
:10149000E3940008CD940008F5940008000801408A
:1014A0000B95000821950008559500086B950008DC
:1014B000F60100209F950008000C0140A6030020C3
:1014C000F8010020A6950008BA950008E9950008E3
:1014D000FC9500080B0400202B96000833960008AA
:1014E000599600085E9600089C960008B096000881
:1014F000C8960008B64C23785BB9B64800F0B6FD34
:10150000B54800F0B3FD4FF4FA7002F097FA0123EA
:1015100023702021B14801F05BF988B9B04B1C78E9
:1015200074B9012221461A70AE484FF4967204F045
:1015300042FAAD4BAD481C80AD4B1C7000F042FD33
:101540002021A64801F044F900283FF467AF0022AB
:10155000A34B1A7062E79E4C2378002BD9D1A54883
:1015600000F084FDA448CCE7994C2378002B7FF44D
:1015700055AFA24800F07AFDA14800F077FD4FF486
:10158000FA7002F05BFA01224FF400419D4801F02D
:1015900025F901224FF40041904801F01FF99948C4
:1015A0000122082101F01AF94FF4FA7002F046FA0C
:1015B0008E4847E0864D2C78002C7FF42FAF924860
:1015C00000F000FD914800F051FD914800F04EFD03
:1015D0004FF4FA7002F032FA22464FF40041894883
:1015E00001F0FCF822464FF400417C4801F0F6F887
:1015F00084482246082101F0F1F84FF4FA7002F015
:101600001DFA7A4800F0DEFCBDE6714C2378002B11
:101610007FF404AF01224FF400417A4801F0DEF874
:1016200001224FF400416D4801F0D8F80122082151
:10163000744801F0D3F8774800F018FD764800F0C0
:1016400015FD764800F0BEFC01232370E6E6604DF0
:101650002C78002C7FF4E2AE22464FF400615F4804
:1016600001F0BCF8684800F0ADFC6D4800F0FEFCED
:101670006C4800F0FBFC40F6C41002F0DFF90122D8
:101680002021604801F0AAF8674800F0EFFC40F61E
:10169000C41002F0D3F9224620215A4801F09EF8E6
:1016A00001224021574801F099F8604800F0DEFC23
:1016B00040F6C41002F0C2F922464021514801F020
:1016C0008DF8012280214F4801F088F8584800F039
:1016D000CDFC40F6C41002F0B1F9564800F0C6FC4B
:1016E00022468021474801F079F84CE6384D2C78A5
:1016F000002C7FF493AE22462021424801F06EF880
:10170000224640213F4801F069F8224680213D48A9
:1017100001F064F8484800F0A9FC484800F0A6FC35
:101720004FF47A7002F08AF901224FF400612B48DD
:1017300001F054F865E7264C2278002A7FF46EAE5B
:101740004FF40061254801F049F83D4800F08EFC57
:101750003C4800F08BFC4FF47A7027E71C4C227851
:10176000002A7FF45BAE4FF48041264801F036F842
:101770004FF47A7002F062F9334800F077FC334896
:1017800079E6134C2378002B7FF448AE4FF47A703F
:1017900002F054F92E4800F069FC1A4801224FF477
:1017A000804101F01BF82B4865E6002D3FF415AC95
:1017B00040F2DC5002F042F9274800F057FC0022CA
:1017C000034B1A70237801332370FFF7BCBB00BFB3
:1017D000F6010020CD960008E196000800080140BF
:1017E000F40100205A04002058040020C896000884
:1017F000870500201A9700082E9700087F97000899
:1018000093970008000C01409F950008B5970008C9
:10181000C9970008EA970008FD9700089B98000800
:10182000A2980008B69800087F99000886990008D9
:101830008D990008949900089E990008B2990008B3
:101840001B9A0008309A00089D9A0008B29A000876
:10185000379B00084C9B0008F292000808B5FFF780
:1018600005FB322002F0EAF8F9E7000008B5054C64
:101870002046102100F0B7FF4FF4FA7002F0DEF8B6
:10188000F6E700BF000C01400368B3F1804F01D1BF
:1018900000F0E0BC7047000008B572B6024C20466C
:1018A00000F0E4FBFBE700BFE69B000810B594B036
:1018B000142200210CA804F07EF8142200210DEB64
:1018C000020004F078F81022002101A804F073F857
:1018D00002244FF480330122CDE91143CDE90A23DC
:1018E0004FF4E0130AA80E92139301F02DF808B1FB
:1018F000FFF7D2FF0F23CDE905344FF48063079043
:10190000CDE90830214605A801F0E0F90028EFD123
:101910004FF4404301A80194039301F0B1FA002869
:10192000E6D114B010BD0000F0B58FB000F080FC1F
:10193000FFF7BCFF102200210AA804F03CF8734B0B
:101940004FF4C0419A69724842F010029A619A6954
:10195000002402F010020192019A9A69012742F0D4
:1019600020029A619A69022502F020020292029AEC
:101970009A694FF4805642F004029A619A6902F023
:1019800004020392039A9A6942F008029A619B69E1
:10199000002203F008030493049B00F01FFF0022C1
:1019A00048F610015B4800F019FF00224EF2FE01DC
:1019B000594800F013FF4FF4C04355480AA9CDE938
:1019C0000A37CDE90C4500F02FFE4FF40043504894
:1019D0000AA9CDE90A340C9400F026FEE3234D4811
:1019E0000AA9CDE90A340C9400F01EFE48F6100353
:1019F00048480AA9CDE90A37CDE90C4500F014FEA4
:101A00004EF2FE0344480AA9CDE90A37CDE90C4558
:101A100000F00AFE414B40480AA9CDE90A630C9444
:101A200000F002FE3E483F4A3F4BC0E90244C0E995
:101A300000234FF48043C0E90644C0E90434046243
:101A400000F0DAFE044608B1FFF726FF374D00F03C
:101A500097FA00F0C7FA00F0E7FA354B28462B60FA
:101A60004FF46023CDE907440994AC602C732C75C6
:101A7000EB616C602F6100F0A3FC0028E4D1082327
:101A8000099007A92846CDE9073700F0F5FB044681
:101A90000028D9D1014610220AA803F08CFF254D59
:101AA000254B2846C5E900344FF6FF73CDE90544C0
:101AB000C5E90334C5E90544AC6001F04FFB0028DB
:101AC000C2D128460AA90A9601F07EFB0028BBD1A4
:101AD000CDE9050005A9284601F010FC04460028C0
:101AE000B2D101F03BFF2146144A154801F062FFD4
:101AF000144B2146144A1860144801F05BFF144B44
:101B0000186001F03DFF20460FB0F0BD001002400C
:101B10000010014000080140000C014000001110BD
:101B20005402002000540040A0860100A8020020BA
:101B3000002401400C020020002C0140209E0008DF
:101B40006D18000808020020FC9D00085D180008C0
:101B500004020020114B07B59A690F2142F00102DF
:101B60009A619A696FF0010002F001020092009AF6
:101B7000DA6942F08052DA61DB69002203F08053B7
:101B80000193019B00F0ACFC054A536823F0E0632D
:101B900043F00073536003B05DF804FB0010024093
:101BA0000000014010B5044686B01022002102A8B2
:101BB00003F001FF2268104B9A421BD103F56C43DE
:101BC0009A690E4842F400729A619A6902A902F475
:101BD00000720092009A9A6942F008029A619B6929
:101BE000012203F008030193019B0323CDE90223A3
:101BF00000F01AFD06B010BD00240140000C0140A9
:101C000010B5044686B01022002102A803F0D3FECE
:101C10002268154B9A4224D1144C4FF44072A369A8
:101C2000134843F00803A361A36902A903F0080362
:101C30000093009B1223CDE902230323059300F0B8
:101C4000F3FC0C4A536843F0E06343F00203536033
:101C5000E36943F40013E361E36903F400130193C0
:101C6000019B06B010BD00BF0054004000100240B0
:101C7000000C0140000001400268084B82B09A420B
:101C80000AD103F564439A6942F400629A619B6940
:101C900003F400630193019B02B07047002C0140E4
:101CA00010B504468AB01022002106A803F083FE76
:101CB00023684B4A934231D14A4B4FF400709A69E2
:101CC00006A942F480429A619A69002402F4804293
:101CD0000092009A9A6942F004029A619B6903F0AB
:101CE00004030193019B0223CDE9060303233E482D
:101CF000099300F099FC4FF480633B4806A9CDE9B5
:101D00000634089400F090FC25202246052100F0BE
:101D1000E7FB252000F014FC0AB010BD334A9342C3
:101D20002CD1304B0421DA692F4842F40032DA61B9
:101D3000DA69002402F400320292029A9A6942F0AF
:101D400004029A619B6903F004030393039B02233B
:101D5000CDE90613032306A9099300F065FC0823C7
:101D6000214806A9CDE90634089400F05DFC262040
:101D70002246052100F0B4FB2620CBE71C4A934203
:101D8000CAD1184B1B48DA6906A942F48022DA61ED
:101D9000DA69002402F480220492049A9A6942F0DB
:101DA00008029A619B694FF4806203F0080305936F
:101DB000059B0223CDE906230323099300F034FC9D
:101DC0004FF400630B4806A9CDE90634089400F0EF
:101DD0002BFC27202246052100F082FB272099E7D3
:101DE000003801400010024000080140004400405B
:101DF00000480040000C014070B5214B88B0DA6902
:101E0000054642F00102DA61DB6901A903F0010332
:101E1000029303A8029B01F015F8069B53BB00F048
:101E2000F1FF4FF08043174E336040F2E733F36029
:101E3000154BB0FBF3F3013B736000233046336175
:101E4000B360B36101F08AF9044680B9304601F00D
:101E500091F8044658B91C2000F072FB0F2D0DD8E4
:101E6000224629461C2000F03BFB084B1D60204603
:101E700008B070BD00F0C6FF4000D2E70124F6E7CD
:101E800000100240D802002040420F00080000204D
:101E9000FEE7FEE7FEE7FEE7FEE77047014801F0D8
:101EA00097B800BFD8020020014801F0D5BB00BFA1
:101EB00088050020014801F0CFBB00BF5C03002073
:101EC000014801F0C9BB00BF0C040020012070478D
:101ED00008B503F0C1FE162303604FF0FF3008BDC4
:101EE00008B503F0B9FE16230360FEE770B50D4692
:101EF00014460E46731B9C4201DC204670BDAFF3B6
:101F0000008006F8010BF5E770B50D4614460E4645
:101F1000731B9C4201DC204670BD16F8010BAFF329
:101F20000080F5E74FF0FF3070474FF4005300207A
:101F30004B60704701207047002070470B4A0346F2
:101F4000116810B509B90A491160106809490A4CAD
:101F50000344091B8B4206D903F07EFE0C23036069
:101F60004FF0FF3010BD1360FCE700BF20030020DE
:101F700008210020005000200004000070470000ED
:101F800008B54FF416530C480C4AC0E9002300234F
:101F90000C22C0E90233C0E905230361C36101F0EB
:101FA00077FA08B1FFF778FCBDE808400122044940
:101FB000014801F0B4BC00BF880500200038014092
:101FC0008605002010B50446FEF7CCF82146BDE892
:101FD000104082B24FF0FF33014801F088BA00BFD1
:101FE0008805002008B54FF416530C480C4AC0E988
:101FF000002300230C22C0E90233C0E9052303615A
:10200000C36101F045FA08B1FFF746FCBDE808409E
:1020100001220449014801F082BC00BF5C0300209A
:10202000004400405803002008B54FF416530C48F4
:102030000C4AC0E9002300230C22C0E90233C0E9A6
:1020400005230361C36101F023FA08B1FFF724FC03
:10205000BDE8084001220449014801F060BC00BF0E
:102060000C040020004800400A04002010B504467B
:10207000FEF778F82146BDE8104082B24FF0FF33FA
:10208000014801F034BA00BF0C04002038B50268E2
:102090002E4B04469A4215D100F0E8F82C4B2D49FE
:1020A00018602D4B18782D4B002836D01A88B2F5C1
:1020B000957F32D8551C1D80885401222649284816
:1020C00001F02DFC2268274B9A4210D1264B274A5B
:1020D000187827490D28138827D0622B25D85D1C36
:1020E0001580C85401222049224801F018FC2268BA
:1020F000214B9A4228D1214B214A19782148138833
:10210000D9B1302B19D85C1C1480C1540122BDE810
:1021100038401A491C4801F002BC002218881A8075
:102120000A54012019490870C7E70D20C85401213D
:10213000174B197000231380D4E70021C1540120EC
:10214000144B11801870E1E738BD00BF0038014022
:10215000540400205A040020860500205804002062
:1021600088050020004800400A040020A403002045
:10217000A60300200C040020004400405803002067
:1021800024030020260300205C0300208705002094
:102190000B0400205903002038B50E4D2B78BBB935
:1021A0000D4C2388A3B100F061F80C4B1B68C01ADA
:1021B000C8280DD923880A49B3F5967F24BF40F279
:1021C0002B1323800023228823808B5401222A7022
:1021D00038BD00BF870500205804002054040020AB
:1021E0005A040020FFF7CAFE0B480C490C4A002392
:1021F00002E0D458C4500433C4188C42F9D3094ABD
:10220000094C002301E013600432A242FBD303F027
:1022100029FDFFF789FB704700000020D80100204E
:10222000D0A00008D801002004210020FEE7000013
:10223000074A08B51368032043F01003136000F049
:102240003DF90F20FFF7D8FDFFF784FC002008BD03
:1022500000200240034A044B11681B780B441360B2
:10226000704700BFD005002004000020014B186813
:10227000704700BFD0050020002373B5019390F88C
:1022800024300446012B6CD0012380F824304D68A3
:102290000268062D086805EB850322D81F26556BBA
:1022A000053B9E4025EA060500FA03F32B435363E2
:1022B00009288B6800EB40054FF0070129D9D66843
:1022C0001E3DA94026EA0101AB400B43D360A0F1BB
:1022D0001003012B25D90020002384F8243002B0FC
:1022E00070BD0C2D4FF01F0509D8166B233B9D4088
:1022F00026EA050500FA03F32B431363D8E7D66AF1
:10230000413B9D4026EA050500FA03F32B43D362C7
:10231000CEE71069A94020EA0101AB400B431361ED
:10232000D9E7114B9A4216D193681B02D3D4936814
:10233000102843F400039360CDD10C4B0C4A1B686A
:10234000B3FBF2F30A2253430193019B002BC2D04B
:10235000019B013BF8E7A36A012043F02003A3623D
:10236000BAE70220BBE700BF0024014000000020C4
:1023700040420F0038B5036804469A68D10701D47B
:10238000002038BD9A6822F001029A60FFF76EFFC4
:10239000054623689B68DB07F2D5FFF767FF401B04
:1023A0000228F6D923689B68DA07F2D5A36A0120D0
:1023B00043F01003A362E36A43F00103E362E0E742
:1023C000F8B5044600286DD0836A23B9C36280F84B
:1023D0002430FFF7E7FB2046FFF7CCFFA36A13F09A
:1023E000100361D100285FD1A26A616822F488528B
:1023F00022F0020242F00202E569A668A262227B94
:102400002943B6F5807F41EA420136D0771E7D42EE
:102410007D412D02277D012F06D182BBA269013AA1
:1024200045EA423242F400652268B6F5807F57687B
:1024300027F4694745EA0705556097681D4D05EA89
:10244000070545EA0105956001D0012E02D12369F7
:10245000013B1B05D56A25F470052B43D3629268B6
:10246000154B1340994213D10023E362A36A23F072
:10247000030343F00103A362F8BD3546CAE7A26A2D
:1024800042F02002A262E26A42F00102E262CBE77D
:10249000A36A23F0120343F01003A362E36A43F03C
:1024A0000103E3620120E7E7A36A43F01003A3629C
:1024B000F8E700BFFDF7E1FFFE0E1FFF074903022B
:1024C000CA6803F4E06322F4E0621204120C1343BE
:1024D00043F0BF6343F40033CB60704700ED00E08E
:1024E000154B30B5DC68C4F30224C4F10703251D85
:1024F000042B28BF0423062D4FF0FF3594BF002482
:10250000033C05FA03F321EA0303A54022EA05028E
:10251000A340002843EA0203ACBF00F16040074A31
:102520004FEA0313DBB2ABBF00F5614000F00F00D0
:1025300080F80033135430BD00ED00E014ED00E0EE
:10254000002807DB01234109034A00F01F008340F4
:1025500042F82130704700BF00E100E090F82120F0
:102560000346022A06D0042282630120002283F857
:10257000202070470268C06B116821F00E011160C5
:10258000116821F00101116001211A6C01FA02F2B7
:102590004260002083F82110E8E7000008B590F8B9
:1025A0002130022B03D004238363012008BD03687C
:1025B0001A6822F00E021A601A6822F001021A60EC
:1025C000174A93421FD0143293421ED014329342C2
:1025D0001DD0143293421DD0143293421DD01432B8
:1025E000934214BF4FF080734FF480130D4A536031
:1025F000012380F82130002380F82030436B03B1A1
:1026000098470020D2E70123F0E71023EEE74FF4CC
:102610008073EBE74FF48053E8E74FF48033E5E74E
:1026200008000240000002402DE9F74F00244FF05F
:102630000F0E2646DFF884C1614B00F104080A68DA
:1026400032FA06F502D103B0BDE8F08F012505FA94
:1026500006F702EA070537EA020276D14A68032A3A
:1026600007D8013A022A00F28380DFE802F091964F
:102670009C00122A00F0948069D8112A00F08A8008
:10268000FF2D94BF8146C1464FEA8602D9F80070FB
:1026900088BF203A0EFA02FA27EA0A0704FA02F281
:1026A0001743C9F80070D1F8049019F0805F4CD03E
:1026B000DCF8182026F0030742F00102CCF81820BD
:1026C000DCF8182007F1804702F00102019207F5BB
:1026D000803706F0030A019A4FEA8A0ABA680EFAAE
:1026E0000AFB22EA0B0B374A904260D002F5806267
:1026F00090425ED002F5806290425CD002F580622A
:10270000904214BF0422032202FA0AF242EA0B02A8
:10271000BA609A6819F4801F14BF2A43AA439A60CA
:10272000DA6819F4001F14BF2A43AA43DA605A6812
:1027300019F4003F14BF2A43AA435A601A6819F4D7
:10274000803F14BF2A43AA431A60013677E7DFF8B7
:1027500078904A450CD014D8A9F580194A4507D07D
:1027600009F570294A4503D0A9F580194A4587D152
:102770008A68D2B1012A4FF008040CBF0761476193
:102780007EE7DFF848904A45F2D009F58039EDE759
:10279000CC6875E7CC68043472E7CC6808346FE71E
:1027A000CC680C346CE700246AE7042468E7002254
:1027B000AAE70122A8E70222A6E700BF0010024014
:1027C0000004014000080140000022100000311008
:1027D0008368194214BF0120002070470AB10161CB
:1027E00070470904FBE7C36801EA030221EA030119
:1027F00041EA02410161704770B5044608B9012001
:1028000070BD90F83D3003F0FF021BB980F83C200A
:10281000FFF7F6F9242384F83D3023681A6822F084
:1028200001021A601A6842F400421A601A6822F41F
:1028300000421A6000F0E6FA3F4B65689D4294BF83
:102840003E4B3F4B98428CBF00230123002BD6D137
:10285000394E3C4BB542B0FBF3F388BF4FF496764C
:102860002268516821F03F0141EA030182BF7343AE
:102870004FF47A76B3FBF6F35160116A013321F01D
:102880003F010B431362D169431E2B4821F44F4192
:10289000854221F0FF0132D86D00B3FBF5F340F61D
:1028A000FC700133034242D0C3F30B031943D161DF
:1028B0001168D4E9073021F0C00103430B431360D2
:1028C0009168D4E9030321F40341034321F0FF019C
:1028D0000B439360D168D4E9053021F0FF01034335
:1028E0000B43D3601368002043F0010313602023DF
:1028F000206484F83D30206384F83E0080E7A068BF
:1029000050B905EB4505B3FBF5F30133C3F30B03F6
:102910007BB143F40043C9E719206843B3FBF0F3EC
:102920000133C3F30B0323B143F44043BEE7042355
:10293000BCE70123BAE700BFA08601007F841E0028
:10294000FF083D0040420F002DE9F341054638B332
:102950000368DB0710D42B689F075ED42B68190728
:1029600000F195802B685A0700F1C180EB69002BBC
:1029700040F02C81002029E0904C636803F00C03A8
:10298000042B07D0636803F00C03082B0AD163689B
:10299000DE0307D523689C03DDD56B68002BDAD1F5
:1029A000012013E06B68B3F5803F12D1236843F434
:1029B00080332360FFF75AFC064623689803CAD485
:1029C000FFF754FC801B6428F7D9032002B0BDE850
:1029D000F0819BB9236823F480332360236823F4B8
:1029E00080232360FFF742FC064623689903B2D593
:1029F000FFF73CFC801B6428F7D9E6E7B3F5A02F6E
:102A0000236803D143F480232360CFE723F480338A
:102A10002360236823F48023CBE7684C636813F0BA
:102A20000C0F07D0636803F00C03082B10D1636808
:102A3000DA030DD423689B0702D52B69012BAFD194
:102A400023686A6923F0F80343EAC203236085E739
:102A50002A695B4B6AB101221A60FFF707FC064640
:102A600023689F07ECD4FFF701FC801B0228F7D9ED
:102A7000ABE71A60FFF7FAFB0646236898077FF575
:102A80006DAFFFF7F3FB801B0228F6D99DE7AA691B
:102A90004A4E4B4BE2B10122C3F88024FFF7E6FB1C
:102AA0000446736A9B070DD54FF4FA52454B1B68D9
:102AB000B3FBF2F3019300BF019B5A1E0192002B5E
:102AC000F9D14FE7FFF7D2FB001B0228E9D97CE7D9
:102AD000C3F88024FFF7CAFB0446736A9F077FF59B
:102AE00041AFFFF7C3FB001B0228F6D96DE7334C5B
:102AF000E369D80024D40127E36943F08053E361FC
:102B0000E36903F080530093009B2F4E3368D9058F
:102B100018D5EB68012B26D1236A43F00103236209
:102B2000FFF7A4FB41F288380646236A9B073FD58E
:102B3000002F3FF41BAFE36923F08053E36115E7F7
:102B40000027E2E7336843F480733360FFF78EFBBE
:102B500080463368DA05DCD4FFF788FBA0EB080079
:102B60006428F6D931E7ABB9236A41F2883823F0FB
:102B700001032362236A23F004032362FFF776FB39
:102B80000646236A9807D3D5FFF770FB801B4045A4
:102B9000F7D91AE7052B236A03D143F00403236214
:102BA000BAE723F001032362236A23F00403B6E7A4
:102BB000FFF75CFB801B4045B7D906E700100240D9
:102BC0000000424200000020007000402A4C626871
:102BD00002F00C02082A3ED00022022B274B1A6674
:102BE0002CD1FFF743FB06462368990120D42B6ABA
:102BF000B3F5803F05D16268A96822F400320A4328
:102C00006260696A62680B4322F474121343012202
:102C100063601A4B1A66FFF729FB054623689A0181
:102C20003FF5A8AEFFF722FB401B0228F6D9CCE601
:102C3000FFF71CFB801B0228D6D9C6E6FFF716FB60
:102C4000054623689B017FF595AEFFF70FFB401B00
:102C50000228F6D9B9E6012B3FF4A2AE60682B6AD0
:102C600000F480329A427FF49BAE6B6A00F47010DD
:102C7000C01A18BF0120A9E600100240000042421D
:102C80000D4A536803F00C01082912D10B48C3F315
:102C90008341DB03405C09D55368094AC3F34043D1
:102CA0005043084AD35CB0FBF3F07047064B5843DF
:102CB00070470348704700BF001002405E9E000846
:102CC00000127A005C9E000800093D002DE9F041E9
:102CD0000D46044610B90120BDE8F081444A13684E
:102CE00003F007038B4228D321688E0730D4CA072C
:102CF00043D43F4A136803F00703AB4265D8226808
:102D00003C4D12F0040F6CD1130706D56B68226995
:102D100023F4605343EAC2036B60FFF7B1FF6B68B3
:102D2000354AC3F30313D35CD840344B1860344B9B
:102D30001868FFF761F80020CEE7136823F0070357
:102D40000B431360136803F007038B42C3D1CBE737
:102D5000284B11F0040F1EBF5A6842F4E0625A601B
:102D6000080742BF5A6842F460525A605A68A06825
:102D700022F0F00202435A60B9E762681D4E012A50
:102D800033681AD113F4003FA5D0736841F2883834
:102D900023F0030313437360FFF768FA0746736871
:102DA000626803F00C03B3EB820FA2D0FFF75EFA68
:102DB000C01B4045F3D903208EE7022A02D113F04D
:102DC000007FE1E713F0020FDEE7136823F007034B
:102DD0002B431360136803F00703AB427FF47BAF10
:102DE0008DE76B68E16823F4E0630B436B608BE76E
:102DF00000200240001002404C9E0008000000200D
:102E000008000020044B054A5B68C3F30223D35C2F
:102E1000034A1068D840704700100240449E0008E2
:102E200000000020044B054A5B68C3F3C223D35C57
:102E3000034A1068D840704700100240449E0008C2
:102E4000000000200F2303600B4B5A6802F00302BE
:102E500042605A6802F0F00282605A6802F4E0624E
:102E6000C2605B68DB0803F4E0630361034B1B682B
:102E700003F007030B60704700100240002002407F
:102E800003682DE9F3410546D80721D5364CE3699F
:102E9000D9002BD40126E36943F08053E361E36951
:102EA00003F080530193019B304F3B68DA051FD537
:102EB000236A6A6813F440732ED1236A6A6823F484
:102EC0004073134323621EB1E36923F08053E3612F
:102ED0002A68910706D52449A8684B6823F4404323
:102EE00003434B60D30636D4002012E00026DBE714
:102EF0003B6843F480733B60FFF7B8F980463B685A
:102F0000DB05D5D4FFF7B2F9A0EB08006428F6D9A9
:102F1000032002B0BDE8F08102F440729A42CCD0A6
:102F20000120134A236AC2F84004002023F44071B0
:102F3000DF07C2F840042162BFD5FFF797F941F2DD
:102F400088380746236A9807B7D4FFF78FF9C01B64
:102F50004045F7D9DCE7044AE968536823F4800365
:102F60000B435360C0E700BF0010024000700040F8
:102F70000000424290F83D30012B20D1022380F81E
:102F80003D300368DA6842F00102DA600D4A93428C
:102F90000AD0B3F1804F07D0A2F59432934203D008
:102FA00002F58062934204D19A6802F00702062A71
:102FB00003D01A6842F001021A6000207047012015
:102FC000704700BF002C0140704770477047704742
:102FD000036870B5DD681E690446B1070DD5AA0700
:102FE0000BD56FF002021A61012202779B699B07E1
:102FF00069D0FFF7EAFF00232377710710D56A072E
:103000000ED56FF00402236820461A61022222774F
:103010009B6913F4407F5CD0FFF7D7FF0023237731
:1030200033070FD528070DD56FF008022368204617
:103030001A6104222277DB69990750D0FFF7C5FF98
:1030400000232377F20610D5EB060ED56FF01002A1
:10305000236820461A6108222277DB6913F4407F37
:1030600043D0FFF7B2FF00232377F00708D5E90725
:1030700006D56FF00102236820461A61FEF704FCB2
:10308000320608D52B0606D56FF08002236820464D
:103090001A6100F062F9700608D5690606D56FF06E
:1030A0004002236820461A61FFF791FFB20622D53D
:1030B000AB0620D56FF0200223682046BDE87040A3
:1030C0001A6100F049B9FFF77FFF2046FFF77EFF46
:1030D00091E7FFF779FF2046FFF778FF9EE7FFF7BC
:1030E00073FF2046FFF772FFAAE7FFF76DFF204648
:1030F000FFF76CFFB7E770BD174A036890420AD02C
:10310000B0F1804F07D0A2F59432904203D002F57F
:103110008062904207D14A6823F070031343CA6863
:1031200023F4407313434A6923F08003134303607D
:103130008B68C3620B688362074B984204BF0B69BC
:103140000363012343610369DB0742BF036923F083
:1031500001030361704700BF002C014010B5044615
:1031600030B390F83D3003F0FF021BB980F83C20EB
:10317000FEF782FD0223206884F83D30211DFFF711
:10318000BBFF0123002084F8463084F83E3084F8E9
:103190003F3084F8403084F8413084F8423084F87D
:1031A000433084F8443084F8453084F83D3010BD15
:1031B0000120FCE710B584680A4324F47F4442EA06
:1031C00003222243826010BD38B590F83C3004469B
:1031D000012B4FF0020000F08E80012284F83D00A8
:1031E000206884F83C20836823F47F4323F077032E
:1031F00083600B68602B4FD032D8402B64D016D838
:10320000202B0DD00AD833F0100109D0012384F807
:103210003D30002384F83C30104638BD302BF5D1CA
:10322000826822F07002134343F0070328E0502B1A
:10323000ECD14A68CD68016A036A21F00A0123F0E3
:103240000103036283690A4323F0F00343EA051391
:1032500083610262836823F0700343F057030FE039
:10326000B3F5805F0DD0B3F5005F0CD0702BCDD1DE
:10327000CB68D1E90121FFF79DFF836843F0770315
:1032800083600022C2E7CB68D1E90121FFF792FFFA
:10329000836843F48043F3E7036A026A4D6822F0CF
:1032A0001002C9680262826923F0A00322F470420E
:1032B00043EA051342EA013282610362836823F024
:1032C000700343F06703DBE74A68CD68016A036A6D
:1032D00021F00A0123F00103036283690A4323F00A
:1032E000F00343EA051383610262836823F07003ED
:1032F00043F04703C4E702468EE7000030B590F87C
:103300003C300246012B4FF0020022D0136882F8B5
:103310003D005C680D6824F070042C4398685C6084
:103320000C4CA3420AD0B3F1804F07D0A4F59434DB
:10333000A34203D004F58064A34204D1496820F07D
:103340008000014399600123002082F83D3082F81B
:103350003C0030BD002C014070477047026802F10C
:103360000C0353E8003F23F490730C3242E8003121
:1033700002680029F2D102F1140353E8003F23F060
:10338000010302F1140C4CE800310029F3D1036B66
:10339000012B0BD102F10C0353E8003F23F0100383
:1033A00002F10C0C4CE800310029F3D1202380F805
:1033B000423000230363704710B504460368C168B8
:1033C0001A6922F440520A431A6182680069D96876
:1033D0000243606921F4B05121F00C0102430A4319
:1033E000DA605A69A16922F440720A435A610E4AAE
:1033F000934215D1FFF716FD1923434362682068F5
:103400009200B3FBF2F36422B3FBF2F102FB11333F
:103410001B013233B3FBF2F303EB0113836010BDE6
:10342000FFF7F0FCE8E700BF00380140F7B50546BC
:103430000C4617461E462A68136834EA030301D176
:10344000002021E0701CF7D0FEF710FFC01B864261
:103450001CD3DEB12B68DA685107ECD5802CEAD09A
:10346000402CE8D01A681207E5D5002401941A68A8
:10347000284601925B680193019BFFF76FFF0823C9
:1034800001206B6485F8404003B0F0BD0320FBE7EA
:1034900010B5044648B390F8413003F0FF021BB961
:1034A00080F84020FEF7FCFB2423226884F841309A
:1034B000D368204623F40053D360FFF77DFF2368D1
:1034C00000201A6922F490421A615A6922F02A02F5
:1034D0005A61DA6842F40052DA602023606484F8AA
:1034E000413084F84230606310BD0120FCE72DE9D3
:1034F000F843984690F841300446202B0E46174674
:103500003FD100293FD0002A3DD02123002545642A
:1035100080F84130FEF7AAFEA3688146B3F5805FCC
:10352000A784E78403D123690BB935461E46E38C93
:103530009BB253B943464A4640212046FFF776FFE7
:10354000202350B984F841300AE043464A4680219E
:103550002046FFF76BFF28B12023032084F8413079
:10356000BDE8F88322684EB935F8023BC3F308037F
:103570005360E18C013989B2E184D8E716F8013B48
:10358000F6E70220ECE70120EAE77047704708B54C
:103590000023406AC385C384FFF7F8FF08BD704766
:1035A00090F8423007B5222B42D181680268B1F50C
:1035B000805F836A3FD1016900293FD15268C2F31D
:1035C000080223F8022B8362C38D013B9BB2C385A3
:1035D000002B2DD10268D16821F02001D160D16883
:1035E00021F48071D160516921F0010151612022E3
:1035F00080F842204363026B012A026828D10363EA
:1036000002F10C0353E8003F23F0100302F10C0C0D
:103610004CE800310029F3D11368DB0605D5019190
:103620001368019353680193019B818DFFF7B7FFE6
:1036300003B05DF804FB39B9016929B95268D2B207
:103640001A70836A0133BEE7526802F07F02F7E71F
:10365000FEF71CFDECE70000036873B51A6804462A
:103660001607D9685D6908D1960668D58D0666D5B6
:1036700002B0BDE87040FFF793BF05F0010001F410
:10368000907505435BD0D60705D5CD0542BF636C69
:1036900043F001036364530704D518B1636C43F02E
:1036A00002036364960704D518B1636C43F0040306
:1036B0006364150707D501F0200303431EBF636C45
:1036C00043F008036364636C002B32D0920604D588
:1036D0008B0602D52046FFF763FF266820467369F4
:1036E000626C03F0400302F0080253EA020522D0A4
:1036F000FFF734FE73695E0618D5226802F11403E1
:1037000053E8003F23F04003143242E8003100291F
:10371000F3D1E06B50B1744B4363FEF73FFF40B110
:10372000E06B436B02B0BDE8704018472046FFF7DE
:103730002DFF02B070BDFFF729FF6564F9E7206B2C
:10374000012840F09480D50640F19180C80640F1F0
:103750008E80002201921A6801925A680192019AA1
:103760005A6952064DD5E16B0A68526892B2002A36
:10377000DFD0A08D9042DCD9E2858A69202A36D03C
:1037800003F10C0252E8002F22F4807203F10C00C6
:1037900040E800210029F3D103F1140252E8002F80
:1037A00022F0010203F1140040E800210029F3D1C6
:1037B00003F1140252E8002F22F0400203F114003A
:1037C00040E800210029F3D1202284F8422021631F
:1037D00003F10C0252E8002F22F0100203F10C005A
:1037E00040E800210029F3D1E06BFEF7B7FE022389
:1037F0006363E38DA18DC91A89B22046FFF7CFFE1E
:1038000097E7E28DE08DA18D80B292B2002890D032
:10381000891A89B200298CD003F10C0252E8002FDA
:1038200022F4907203F10C0545E800200028F3D142
:1038300003F1140252E8002F22F0010203F11405F3
:1038400045E800200028F3D1202284F8422020639C
:1038500003F10C0252E8002F22F0100203F10C05D4
:1038600045E800200028F3D102236363C5E716066C
:1038700028D50D0626D594F84120212A7FF459AF8A
:10388000A168226AB1F5805F17D12169A9B932F820
:10389000021BC1F3080159602262E28C013A92B224
:1038A000E284002A7FF445AFDA6822F08002DA6011
:1038B000DA6842F04002DA603BE7511C216212787C
:1038C0005A60EAE750067FF534AF4A067FF531AF1C
:1038D000DA68204622F04002DA60202384F8413082
:1038E000FFF753FE25E700BF8F3500080023C28590
:1038F000436422238285026980F842308162036832
:103900001AB1DA6842F48072DA605A69002042F033
:1039100001025A61DA6842F02002DA60704770B43E
:1039200090F84260202E06D141B13AB100240463E0
:1039300070BCFFF7DBBF022070BC70470120FBE7C3
:1039400008B54FF0E0231B6901F046F8012803D0C9
:10395000BDE8084001F026BB08BD0000EFF3058379
:103960002BB9064B186828B901221A6070476FF00E
:10397000050070474FF0FF30704700BF240D002056
:1039800010B5EFF305845CB9084B1A68012A0AD117
:10399000074AD47702221A6000F086FD204610BD47
:1039A0006FF00500FBE74FF0FF30F8E7240D002033
:1039B00000ED00E0F0B51446002287B00B460592FA
:1039C000EFF30582FAB9F0B154B3A56925B1691EC8
:1039D000372902D9002017E018256268D207F9D4E8
:1039E00066699EB1B2082168D4E9027C87B1BCF156
:1039F000A70F08D9246934B12EB1CDE9014700954C
:103A000000F0ECFC0590059807B0F0BD8022EAE7D5
:103A1000BCF1000FF7D12469002CF4D10C4601E071
:103A20001825802205A9CDE9005192B2214600F067
:103A30000DFD01281CBF00230593E4E708B5EFF353
:103A4000058222B908B100F099FE002008BD6FF090
:103A50000500FBE7034B0360034B0B6080231360FF
:103A6000704700BF7C0C00207C0A0020034B0360E1
:103A7000034B0B604FF4807313607047D409002030
:103A8000D40500204FF0FF3200F10803C0E9022303
:103A900043600361002303607047002303617047A4
:103AA00043689A684B608A60516099600368086156
:103AB00001330360704730B50C68631C0AD1036999
:103AC0005A684A6091608B605960036808610133ED
:103AD000036030BD00F10802134652681568A54224
:103AE000FAD9EDE70369D0E901128A60516059689B
:103AF000814208BF5A60002202611A68013A1A60C6
:103B00001868704710B5044601F0F4F9A46B01F091
:103B100011FAB4FA84F0400910BD70B51646026C73
:103B20000446856B42B906689EB9806800F064FF60
:103B3000A6600135A56370BD6EB9406802F0B9F8A2
:103B40006368226C1344A2686360934224BF2368B5
:103B500063600020EDE7C06802F0ABF8226CE36818
:103B600051429B1A2268E36093423EBFA3685B18F0
:103B7000E360022EEDD10DB1013DEAE72846D8E71A
:103B800003461A6C084610B462B1DC6899681444A4
:103B90008C4228BF1968DC6028BFD960D96810BC86
:103BA00002F087B810BC704770B5044601F0A2F966
:103BB00094F8455004F124066DB2002D01DD636ACE
:103BC000B3B9FF2384F8453001F0B4F901F092F95C
:103BD00094F8445004F110066DB2002D01DD236904
:103BE0007BB9FF2384F84430BDE8704001F0A2B9EE
:103BF000304600F063FE08B100F0E8FE013D6DB212
:103C0000DBE7304600F05AFE08B100F0DFFE013D70
:103C10006DB2E2E738B50D46044640B94FF05003A7
:103C200083F31188BFF36F8FBFF34F8FFEE701F06F
:103C300061F9D4E90F314B432268D0185B1AA060B8
:103C4000626000201A44FF23A063E26084F84430DD
:103C500084F84530A5B9236973B104F1100000F070
:103C60002DFE48B14FF0E0234FF08052C3F8042DF1
:103C7000BFF34F8FBFF36F8F01F05CF9012038BDA8
:103C800004F11000FFF7FEFE04F12400FFF7FAFE36
:103C9000F2E737B50D461C4640B94FF0500383F3A9
:103CA0001188BFF36F8FBFF34F8FFEE743B94FF01B
:103CB000500383F31188BFF36F8FBFF34F8FFEE77D
:103CC0004AB191B94FF0500383F31188BFF36F8F5E
:103CD000BFF34F8FFEE741B14FF0500383F31188DC
:103CE000BFF36F8FBFF34F8FFEE750230193019B0C
:103CF000502B08D04FF0500383F31188BFF36F8F20
:103D0000BFF34F8FFEE70121002D08BF2246C4E913
:103D10000F0584F8461020462260019BFFF77AFFCA
:103D200020469DF8183084F84C3003B030BD2DE9A2
:103D3000FF410F461E460446019240B94FF0500322
:103D400083F31188BFF36F8FBFF34F8FFEE751B935
:103D5000036C43B14FF0500383F31188BFF36F8FAF
:103D6000BFF34F8FFEE7022E0BD1E36B012B08D080
:103D70004FF0500383F31188BFF36F8FBFF34F8F62
:103D8000FEE700F029FE054620B300254FF00008AD
:103D900001F0B0F8A26BE36B9A4227D23246394663
:103DA0002046FFF7BAFE636A1BB104F1240000F05D
:103DB00085FD48B14FF0E0234FF08052C3F8042D49
:103DC000BFF34F8FBFF36F8F01F0B4F8012004B041
:103DD000BDE8F081019B002BD8D04FF0500383F356
:103DE0001188BFF36F8FBFF34F8FFEE7022ED5D040
:103DF000019B1BB901F09EF80020E8E715B902A865
:103E000000F09CFD01F096F800F09EFB01F072F8C6
:103E100094F84430FF2B08BF84F8448094F8453070
:103E2000FF2B08BF84F8458001F084F801A902A89F
:103E300000F090FD38BB01F05DF8A26BE36B9A4295
:103E40000ED101F077F8019904F1100000F0FCFCAC
:103E50002046FFF7A9FE00F01DFC48B1012597E7B9
:103E600001F068F82046FFF79FFE00F013FCF5E72D
:103E70004FF0E0234FF08052C3F8042DBFF34F8F73
:103E8000BFF36F8FEAE72046FFF78EFE00F002FCDB
:103E9000B2E72DE9F843894617461E46044640B965
:103EA0004FF0500383F31188BFF36F8FBFF34F8F31
:103EB000FEE751B9036C43B14FF0500383F311880F
:103EC000BFF36F8FBFF34F8FFEE7022E0BD1E36B73
:103ED000012B08D04FF0500383F31188BFF36F8F8D
:103EE000BFF34F8FFEE701F0DDF8EFF311884FF0DD
:103EF000500383F31188BFF36F8FBFF34F8FA26B13
:103F0000E36B9A4201D3022E1ED194F845503246FB
:103F1000494620466DB2A36BFFF7FFFD6B1C0ED127
:103F2000636A3BB104F1240000F0C8FC10B10FB18A
:103F300001233B60012088F31188BDE8F883013537
:103F40006DB284F84550F5E70020F4E72DE9FF4114
:103F50000E460446019240B94FF0500383F3118896
:103F6000BFF36F8FBFF34F8FFEE751B9036C43B1BF
:103F70004FF0500383F31188BFF36F8FBFF34F8F60
:103F8000FEE700F029FD054618B300254FF00008B4
:103F900000F0B0FFA76B47B331462046013FFFF763
:103FA000EFFDA763236973B104F1100000F086FCF4
:103FB00048B14FF0E0234FF08052C3F8042DBFF317
:103FC0004F8FBFF36F8F00F0B5FF012004B0BDE845
:103FD000F081019B002BD9D04FF0500383F311885F
:103FE000BFF36F8FBFF34F8FFEE7019B1BB900F04C
:103FF000A1FF0020EAE715B902A800F09FFC00F03D
:1040000099FF00F0A1FA00F075FF94F84430FF2BFF
:1040100008BF84F8448094F84530FF2B08BF84F82B
:10402000458000F087FF01A902A800F093FC00BBC7
:104030002046FFF767FDB0B1019904F1240000F0BC
:1040400003FC2046FFF7B0FD00F024FB48B94FF019
:10405000E0234FF08052C3F8042DBFF34F8FBFF31E
:104060006F8F012594E72046FFF79EFD00F012FBBD
:10407000F7E72046FFF798FD00F00CFB2046FFF71E
:1040800041FD0028EDD0B4E7002330B5064A52F8D0
:10409000335002EBC3041DB942F83310606030BDE9
:1040A0000133082BF3D1FAE7280D002070B5044640
:1040B0000D46164600F01EFF94F84430FF2B04BF57
:1040C000002384F8443094F84530FF2B04BF0023CC
:1040D00084F8453000F02EFFA36B2BB932462946F9
:1040E00004F1240000F0CAFB2046BDE87040FFF751
:1040F0005BBD00002DE9F041044600F0FBFE304BB3
:10410000304E1A68304F01321A603568002D4BD19D
:1041100034601B68012B1FD1B84640460135FFF7BC
:10412000B1FC382D08F11408F7D1DFF8A080284D34
:104130004046FFF7A7FC2846FFF7A4FC2548FFF7F9
:10414000A1FC2548FFF79EFC2448FFF79BFC244B6D
:10415000C3F80080234B1D601420234A13680133E9
:104160001360224A63641168E36A8B4200FB0370A8
:1041700004F1040188BF1360FFF792FC00F0DAFE3F
:104180001B4B1B6873B13368DA6AE36A9A4209D23F
:104190004FF0E0234FF08052C3F8042DBFF34F8F50
:1041A000BFF36F8FBDE8F081114B1A68E36A002AF4
:1041B000D2D13268D26A9A4298BF3460CCE700BF4D
:1041C0008C0D002060120020000E0020EC0D00205D
:1041D000D80D0020BC0D0020A80D0020900D00205F
:1041E000D40D0020D00D0020700D0020840D002083
:1041F000800D0020F8B50646144B154D1C68286844
:104200000F460430FFF76EFC731C07D137B12968E5
:1042100010480431BDE8F840FFF742BC2B68A419F0
:104220005C6007D30C4B18682968BDE8F84004317E
:10423000FFF741BC094B186829680431FFF73BFCC4
:10424000074B1A68A24288BF1C60F8BD880D002089
:1042500060120020900D0020D00D0020D40D002011
:104260006C0D0020064A13681968064B19B94FF007
:10427000FF321A6070471268D268D2685268F8E755
:10428000D40D00206C0D002010B50446543001F010
:104290004FFC94F8A5303BB9206B00F0EFFF2046AF
:1042A000BDE8104000F0EABF012BF8D0022B08D087
:1042B0004FF0500383F31188BFF36F8FBFF34F8F1D
:1042C000FEE710BD80B5134C134F144D236873B92E
:1042D000134B1B68012BF8D94FF0E0234FF08052AD
:1042E000C3F8042DBFF34F8FBFF36F8FEDE700F0DE
:1042F00001FEFB68DE68301DFFF7F4FB2B68013B15
:104300002B602368013B236000F014FE3046FFF76A
:10431000BBFFDBE7A40D0020A80D00208C0D0020C2
:10432000000E00202DE9F0470D46DDE909949600C6
:1043300032460746A521206B984601F03CFB236BD3
:10434000043E1E4426F00706002D41D06B1E04F1EA
:1043500033020F3513F8011F02F8011F09B1AB42F8
:10436000F8D1002384F84330089D4FF0000A372D20
:1043700028BF3725201DE562E564C4F850A0FFF78B
:104380008CFBC5F1380504F11800FFF786FB4C22C1
:104390005146C4F8A0A02461A561646284F8A4A079
:1043A00004F1540001F007FB0B4B394603F168029E
:1043B000A365D033E26530464246236600F076FDC1
:1043C0002060B9F1000F01D0C9F80040BDE8F087C6
:1043D00084F83450C8E700BFB81F002070B586B01D
:1043E000DDE90B5445B94FF0500383F31188BFF357
:1043F0006F8FBFF34F8FFEE744B94FF0500383F345
:104400001188BFF36F8FBFF34F8FFEE7A826059685
:10441000059EA82E08D04FF0500383F31188BFF3F8
:104420006F8FBFF34F8FFEE72563022584F8A550F9
:1044300004AD01950A9D02940095059EFFF772FF59
:104440002046FFF757FE049806B070BD2DE9F043F3
:10445000074685B0900088461646994600F076FEDD
:10446000054620B94FF0FF3005B0BDE8F083A82025
:1044700000F06CFE044698B1002380F8A5300D9B37
:10448000056301930C9B32464146029000933846E7
:104490004B46FFF747FF2046FFF72CFE0120E3E7DE
:1044A000284600F0EBFEDDE710B5002488B007AA2F
:1044B00006A905A8CDE90544FFF7CCFA059B079AA4
:1044C0000293069B1949CDE9004319482346FFF79B
:1044D00085FF40B300F024FB012819D14FF05003B1
:1044E00083F31188BFF36F8FBFF34F8F114B124AC5
:1044F0001B68543313604FF0FF32104B1A60104B9F
:104500001860104B1C6008B0BDE8104000F072BD90
:10451000013008D14FF0500383F31188BFF36F8F40
:10452000BFF34F8FFEE708B010BD00BF099C000825
:10453000C5420008601200201C0000206C0D002005
:10454000800D0020880D0020024A1368013313609B
:10455000704700BF680D0020014B1868704700BF0E
:10456000880D0020404B2DE9F74F1B68002B73D1BD
:104570003E4B1C6801341C60BCB93D4B1A68126884
:1045800042B14FF0500383F31188BFF36F8FBFF335
:104590004F8FFEE7374A1968106818601160364A75
:1045A000136801331360FFF75DFE344D4FF0000BCD
:1045B0002B68334E9C42334F12D214213A68D26A90
:1045C0004A43B258022A304A28BF4FF0010B126802
:1045D000002A18BF4FF0010B584603B0BDE8F08F1A
:1045E000DFF88C90DFF8A4A0D9F8002012681AB97F
:1045F0004FF0FF322A60E0E7D9F80020D268D2F805
:104600000C80D8F804108C4201D22960D5E708F15B
:10461000040318460193FFF765FAD8F8281019B17A
:1046200008F11800FFF75EFA1423D8F82C00DAF826
:104630000010884288BFCAF8000008F1040103FB9B
:104640000060FFF72DFA3868D8F82C10C26A914242
:1046500028BF4FF0010BC7E70D4A4FF0000B13685E
:1046600001331360B8E700BF680D0020880D0020FB
:10467000D40D0020D00D0020740D00206C0D002002
:10468000000E002060120020780D0020840D002014
:104690007C0D00202DE9F041304C236843B94FF0E8
:1046A000500383F31188BFF36F8FBFF34F8FFEE783
:1046B00000F020FC2368013B236024682CB1002417
:1046C00000F038FC2046BDE8F081254B1B68002B2C
:1046D000F5D0244D244EDFF894801DE0EB68DC68B3
:1046E000271D04F11800FFF7FDF93846FFF7FAF926
:1046F0001420E36A326800FB03809342394688BF86
:104700003360FFF7CDF91A4BE26A1B68DB6A9A4205
:1047100002D30122174B1A602B68002BDED10CB19B
:10472000FFF7A0FD144D2C6844B10127114EFFF78F
:1047300019FF00B13760013CF9D12C600D4B1B68AB
:10474000002BBCD04FF0E0234FF08052C3F8042D73
:10475000BFF34F8FBFF36F8F0124B1E7680D0020C7
:104760008C0D0020BC0D0020840D0020000E0020C8
:1047700060120020780D00207C0D002008B550B993
:104780004FF0E0234FF08052C3F8042DBFF34F8F5A
:10479000BFF36F8F08BD0A4B196841B14FF050034A
:1047A00083F31188BFF36F8FBFF34F8FFEE7FFF7DF
:1047B000CBFEFFF71FFDFFF76DFF0028E0D0E9E714
:1047C000680D00201A4B70B51A681A4B12B10122FD
:1047D0001A6070BD1426184D1A602A68174906FB26
:1047E00002F3CC58C818B4B14468083364680B4469
:1047F0009C4208BF6368446008BF4360142303FB06
:1048000002114B68D9680E4B19602A601B680D4A6B
:1048100054331360DDE742B94FF0500383F311883E
:10482000BFF36F8FBFF34F8FFEE7013AD7E700BFAB
:10483000680D0020780D0020840D0020000E00205F
:10484000601200201C00002010B50C4640B94FF04B
:10485000500383F31188BFF36F8FBFF34F8FFEE7D1
:10486000054B19681831FFF726F92046BDE81040BE
:104870000121FFF7BFBC00BF6012002038B50D4614
:10488000144640B94FF0500383F31188BFF36F8F84
:10489000BFF34F8FFEE7084B19681831FFF700F997
:1048A000002C214608BF2846BDE8384018BF4FF00D
:1048B000FF30FFF79FBC00BF6012002038B5C3680F
:1048C000DC6844B94FF0500383F31188BFF36F8F56
:1048D000BFF34F8FFEE704F118052846FFF702F9F2
:1048E000104B1B68DBB9251D2846FFF7FBF80E4A65
:1048F00014201168E36A8B42294688BF13600B4A73
:1049000000FB0320FFF7CCF8094BE26A1B68DB6A67
:104910009A4285BF0120074B0020186038BD294608
:104920000548EFE7680D0020840D0020000E0020F0
:1049300060120020780D0020BC0D0020034B1B6886
:104940000360034B1B684360704700BF740D002079
:10495000880D002070B50C46054640B94FF0500355
:1049600083F31188BFF36F8FBFF34F8FFEE741B919
:104970004FF0500383F31188BFF36F8FBFF34F8F56
:10498000FEE700F0B7FA0F4B196823685A1C10D0E5
:104990000D482E6800686A68864201D08A420FD9A5
:1049A000881A83420AD95B1A134428462360FFF70A
:1049B000C5FF002400F0BEFA204670BD002323602E
:1049C0000124F7E7880D0020740D00200122014B1F
:1049D0001A607047780D0020054B1B6833B1054BFA
:1049E0001868B0FA80F04009400070470120704715
:1049F000800D0020680D002038B508B9002038BDB2
:104A00001B4B1C68844208D04FF0500383F311887D
:104A1000BFF36F8FBFF34F8FFEE7236D43B94FF0A6
:104A2000500383F31188BFF36F8FBFF34F8FFEE7FF
:104A3000E16AE26C013B91422365DFD0002BDDD1BE
:104A4000251D2846FFF74EF81420E36CC3F1380209
:104A5000A261084AE36211688B4288BF1360064A6C
:104A6000294600FB0320FFF71BF80120C7E700BF22
:104A700060120020840D0020000E0020914208B535
:104A8000416000610AD8D21A83699A420DD2084B5C
:104A9000011D1868FFF70FF8002008BD9A4201D2E7
:104AA000994202D2034B011DF3E70120F5E700BF55
:104AB0006013002064130020F7B5114C00F01AFABF
:104AC0002568BDB90F4F104E3846FEF7DBFF304664
:104AD000FEF7D8FF0D4B10211F600D4B0A201E6002
:104AE0000C4A0D4B0095FFF7D4F8206010B10B492C
:104AF000FFF7CAFA03B0BDE8F04000F01BBA00BFF0
:104B00005C1300207C130020681300206413002035
:104B100060130020B4120020641200200E9C0008D4
:104B200010B588B0FFF7C8FF124B1B68B3B1002463
:104B300007AA06A905A8CDE90544FEF797FF059B3E
:104B4000079A0293069B0C49019302230B4800939A
:104B50002346FFF743FC0A4B186040B94FF050035F
:104B600083F31188BFF36F8FBFF34F8FFEE70120F0
:104B700008B010BD5C130020139C0008814C000895
:104B8000581300207FB5164604461A4640B94FF028
:104B9000500383F31188BFF36F8FBFF34F8FFEE78E
:104BA0000D4D286880B10529CDE9001602940DDC71
:104BB000FFF712FF0023022818BF1A46694608BFF4
:104BC000089A2868FFF7B3F804B070BD002369465F
:104BD000FFF75FF9F8E700BF5C1300202DE9F3470A
:104BE0000646FFF7B9FCDFF88C800546D8F80030A0
:104BF000834209D9204F3B681A686AB91F4A116875
:104C000013603960012300E0002328463360C8F8B0
:104C1000005002B0BDE8F087DB68DC68D3F8009094
:104C200004F1040A5046FEF75DFF236A20469847C8
:104C300094F828305B07DED5A3694B44994506D22A
:104C40005146386863602461FEF735FFD3E70023DF
:104C50004A46194620460093FFF794FF0028CAD120
:104C60004FF0500383F31188BFF36F8FBFF34F8F63
:104C7000FEE700BF541300206413002060130020DF
:104C80002DE9F0436E4D6F4E89B02B68D3F800804C
:104C9000B8F1000F35D00024DB68D3F80080FFF7AF
:104CA00053FC04A8FFF79AFF049B8146002B69D1AF
:104CB000002C4CD1404550D3FFF7ECFC2B68DB684F
:104CC000DF68381DFEF70EFF97F8283058071AD511
:104CD000B96943464A4638464144FFF7CFFEB0B172
:104CE00023464246214638460094FFF74BFF70B9F1
:104CF0004FF0500383F31188BFF36F8FBFF34F8FD3
:104D0000FEE70124CBE723F0010387F8283038467B
:104D10003B6A98470022306804A9FFF717F900287A
:104D2000B3D0049B0698002B2FDB069C6369002BF5
:104D300032D103A8FFF752FF049B0246092BE9D8A2
:104D4000DFE803F02E2E2E575E762E2E575E3E4B5A
:104D50001B681C68B4FA84F4640922463068A8EB26
:104D60000901FFF7A3F9FFF795FC0028D2D14FF016
:104D7000E0234FF08052C3F8042DBFF34F8FBFF3F1
:104D80006F8FC7E7FFF786FCC4E7059B0799984735
:104D9000049B002BBEDBC8E7201DFEF7A3FEC8E77F
:104DA00094F82830A16943F0010384F82830059B6A
:104DB00020461944FFF762FE0028ABD0236A204644
:104DC000984794F828305907A4D50023A26905997B
:104DD00020460A4400931946FFF7D4FE002899D1D3
:104DE0004FF0500383F31188BFF36F8FBFF34F8FE2
:104DF000FEE794F8283023F0010384F8283089E78F
:104E000094F8283043F0010384F828300599A16113
:104E100041B94FF0500383F31188BFF36F8FBFF395
:104E20004F8FFEE7034601442046FFF727FE71E758
:104E300094F828309A07DED4204600F01FFA69E77C
:104E4000641300205C1300206013002006480068F3
:104E5000006880F3088862B661B6BFF34F8FBFF376
:104E60006F8F00DF00BF000008ED00E0002382B07C
:104E700001930D4B1B68013308D04FF0500383F3AF
:104E80001188BFF36F8FBFF34F8FFEE74FF05003D2
:104E900083F31188BFF36F8FBFF34F8F019B002BFC
:104EA000FCD002B0704700BF0C0000204FF08073B0
:104EB00040F8043C054B21F0010140F8081C40F883
:104EC0000C3C40F8202C4038704700BF6D4E000865
:104ED000074B19680868B0E8F00F80F30988BFF342
:104EE0006F8F4FF0000080F311884EF00D0E704769
:104EF000601200204FF0500383F31188BFF36F8FCF
:104F0000BFF34F8F0A4A13680133012B13600ED190
:104F10004FF0E023D3F8043DDBB243B14FF0500330
:104F200083F31188BFF36F8FBFF34F8FFEE7704796
:104F30000C000020084A136843B94FF0500383F374
:104F40001188BFF36F8FBFF34F8FFEE7013B1360F4
:104F50000BB983F3118870470C000020000000009B
:104F6000EFF30980BFF36F8F0D4B1A6820E9F00F44
:104F700010602DE908404FF0500080F31188FFF7D2
:104F800021FC4FF0000080F31188BDE8084019684B
:104F90000868B0E8F00F80F30988BFF36F8F70479F
:104FA0006012002008B54FF0500383F31188BFF35F
:104FB0006F8FBFF34F8FFFF7D5FA28B14FF0E02383
:104FC0004FF08052C3F8042D002383F3118808BDED
:104FD0004FF0E02200234FF47A7113619361044B88
:104FE0001B68B3FBF1F3013B536107231361704767
:104FF0000000002013B5274B1A78D2B20192FF228D
:105000001A701B78244ADBB28DF803309DF8033008
:1050100003F0500313700723204A13609DF8031018
:10502000136809060AD4032B11D04FF0500383F301
:105030001188BFF36F8FBFF34F8FFEE7013B136003
:105040009DF803305B00DBB28DF80330E6E74FF4E8
:1050500040731360019B0F4ADBB213704FF0E023E3
:105060000024D3F8202D42F47002C3F8202DD3F889
:10507000202D42F07042C3F8202DFFF7A9FF084B06
:105080001C60FFF7E3FEFFF79DFB2046FFF7EEFEF7
:1050900002B010BD00E400E0941300209013002043
:1050A0000C000020EFF305830F2B0ED9114A9B5CF7
:1050B000114A12789A4208D94FF0500383F31188AD
:1050C000BFF36F8FBFF34F8FFEE74FF0E0230B4A24
:1050D000D3F80C3D126803F4E063934208D94FF013
:1050E000500383F31188BFF36F8FBFF34F8FFEE739
:1050F000704700BFF0E300E09413002090130020FD
:1051000010B5104B1A461B688342FBD35468111923
:10511000884201BF4168104609195160446801196D
:105120008B420CD1084909688B4203D0596821444D
:10513000416019689042016018BF106010BD1946A7
:10514000F8E700BFB0130020AC1300202DE9F041B8
:105150000446FFF7F9F94249424D0B680BBB424A3E
:1051600056071FBFD01D20F0070002F54062131A3A
:105170000CBF4FF440630246002013443B4E083BF3
:1051800023F0070370603260C3E90000981AC2E997
:1051900000300B60364B1860364B18604FF0004300
:1051A0002B602E68264255D1002C46D004F108030E
:1051B00060071CBF23F007030833002B4AD02D4F94
:1051C0003C689C4246D3294A15686868984204D2D4
:1051D000D5F800C0BCF1000F15D10968A94239D03B
:1051E0002968D2F800801160C21A102A12D9E81872
:1051F00041070BD04FF0500383F31188BFF36F8F3B
:10520000BFF34F8FFEE72A466546DEE742606B60DC
:10521000FFF776FF00236A681549A41A1643164A59
:1052200008682B601368844203F101033C6038BFB7
:105230000C606E6008F108041360FFF72BFA630737
:105240000AD04FF0500383F31188BFF36F8FBFF381
:105250004F8FFEE70024F0E72046BDE8F08100BF55
:10526000AC13002098130020B8130020B0130020C6
:10527000A4130020A8130020A013002010B504469A
:1052800090B31A4A50F8043C1268134208D14FF008
:10529000500383F31188BFF36F8FBFF34F8FFEE787
:1052A00050F8081C41B14FF0500383F31188BFF34D
:1052B0006F8FBFF34F8FFEE723EA020340F8043CF1
:1052C000FFF742F90A4A54F8043C1168A4F10800B7
:1052D0000B441360FFF714FFBDE81040054A136844
:1052E00001331360FFF7D6B910BD00BF981300203B
:1052F000A81300209C1300202DE9F04F87B00393E2
:105300008B6891465A1EB2F5AE7F82BF6FF4AE75C0
:1053100003EB050B40F25D130A464FF0000588BF12
:105320008B600B68804643F4F06342F81C3B0C46EC
:1053300098BF4FF0000B1646AA462F46CDE90455FC
:1053400001920295A2685AB1D9F800301B784E2B11
:1053500062D8402B3AD8A3F12B01C8B20E2838D915
:105360001FB1236823F4807323600AF1FF3ABAF176
:10537000010F00F21481019B9E4200F20581012081
:1053800007B0BDE8F08FA3F161020D2AE8D801A1B2
:1053900051F822F0DD540008615300086153000801
:1053A000615300083955000813550008615300087F
:1053B00061530008EB540008615300086153000872
:1053C0006153000861530008A7540008A3F141028B
:1053D000DBE70E29C4D801A050F821F0975400084B
:1053E00061530008975400082755000861530008CE
:1053F000395400087D5400087D5400087D5400088D
:105400007D5400087D5400087D5400087D54000838
:105410007D5400087D5400086E2B09D8602BB2D84B
:10542000542B7BD0592B9BD1072D99D108252FE0E8
:10543000742B73D0792BF6E72168C8051ED521F0AF
:10544000800121600137BBF1000F03D001320BF165
:10545000FF3BA260A368013BA36023690133236182
:10546000D9F80430013B002BC9F8043040F38380A5
:10547000D9F800300133C9F8003063E71AEB0501B1
:105480007FF46EAF0D468A46226822F4C072226015
:1054900006F8013BDEE7226810067FF561AF22F0D7
:1054A00080022260F4E7BAF1000F0CD177B92268CC
:1054B00002F4E061B1F5E06F08D122F4F0624FF040
:1054C000010A2260E4E7BAF1020F51D0012D02D0A7
:1054D000042D7FF445AF0135EDB2D9E7BAF1010FE4
:1054E0007FF43EAF4FF0020AD2E775B9002F7FF488
:1054F00038AF226802F4E061B1F5E06F40F0FF8060
:1055000022F4F06201252260C2E7032DE3D0052DCD
:10551000DFE7022D7FF424AF0325B9E7062D7FF4E2
:105520001FAF0725B4E7226891057FF519AF22F474
:10553000207222600297ABE7226802F4A061B1F505
:10554000806F05D050057FF50BAF002F00F0D7809E
:10555000910558BF029922F4F06258BF791A42F4BB
:10556000C0724FF0000758BFCDE9041622608FE7E4
:105570004FF0030A8CE749464046D4F880319847FB
:1055800000283FF4DFAEEBE6D4F87C314A464046D3
:1055900016F8011D98472369013B2361EBE66B1E5A
:1055A000062B24D8022D36D8019B9E427FF6E7AE0B
:1055B000D4F87C314A46404616F8011D98472369C5
:1055C000013B2361F0E7D4F87C314A4640461BF8A2
:1055D000011D98472369013B23610AF1FF3A5FFAF5
:1055E0008AFABAF1020FEED1033DEDB2761B2368C1
:1055F000DA0530D55B0511D5019B9E427FF6BFAE23
:10560000D4F87C314A46404616F8011D9847236974
:10561000013B2361F0E7AA46B346DEE716F8011C1A
:105620002369652903F1FF3306F1FF3523610CD0AF
:1056300045290AD0D4F87C314A4640469847236928
:1056400016F8021C013BB51E23614A464046D4F8B9
:105650007C3198472E46226812F0100201D00020BB
:105660008EE63270236803F4C063B3F5806F25D1F2
:10567000029B9F420AD0DA1B04F26F139E4228BF9E
:1056800004F5B77630461F4900F002F90022404683
:10569000019901F039FA039B25681B6815F0020F88
:1056A00006460F4603F1040215D003990A601B68F1
:1056B000C3E90067E3680133E360D0E7049B002B94
:1056C000E4D005990A234046013101F09DFA049B7C
:1056D000059EC21AD0E76D07E7D4039D2A601D68B6
:1056E00002460B46FBF79CF920B1074800F0F0FAA0
:1056F0002860DFE730463946FBF7C8F9F8E70027AE
:1057000033E600BF1B9C0008B5940008002310B5C9
:105710000446C0E90033C0E90433836081814366F5
:10572000C2818361194608225C3000F044F90D4BB8
:10573000246263620C4BA3620C4BE3620C4B236349
:105740000C4B9C4206D003F16802944202D0D03345
:105750009C4205D104F15800BDE8104000F0A6BA03
:1057600010BD00BF2D590008535900088B5900087F
:10577000AF590008B81F0020024A0349034800F04F
:1057800069B800BF10000020117900082000002037
:1057900041680C4B10B59942044601D002F0B8F8AC
:1057A000A168094B994202D0204602F0B1F8E168A5
:1057B000064B994204D02046BDE8104002F0A8B83C
:1057C00010BD00BFB81F002020200020882000202E
:1057D00010B50B4B0B4C0C4A20461A6004210022DA
:1057E000FFF794FF04F1680001220921FFF78EFF03
:1057F00004F1D0000222BDE810401221FFF786BF5D
:10580000F0200020B81F002079570008014800F060
:105810004EBA00BFF9200020014800F049BA00BF8D
:10582000F920002010B50446FFF7F0FF236A1BB1F2
:10583000BDE81040FFF7F0BF044B2362044B1B6828
:10584000002BF5D1FFF7C4FFF2E700BF9157000826
:10585000F02000202DE9F84307468846144600262C
:10586000D4E90195B9F1010905D52468002CF7D1D7
:105870003046BDE8F883AB89012B07D9B5F90E3066
:10588000013303D029463846C04706436835E9E767
:105890000EB46FF0004110B500249DB01FAB029014
:1058A0000690079104910948094953F8042B059182
:1058B000006802A901931B9401F004FA029B1C707A
:1058C0001DB0BDE8104003B0704700BF1C000020B1
:1058D0000802FFFF0EB44FF4017270B500259DB0B1
:1058E00021AC54F8046BADF814201B95029006907F
:1058F000FAF738FC0B4B03900B934FF6FF730790AE
:105900000948ADF816303246234602A900680F95C3
:105910001495019401F02CFB1DB0BDE8704003B05C
:10592000704700BF4F5900081C00002010B50C46FE
:10593000B1F90E1000F06CF90028ABBF636DA389BC
:105940001B1823F48053ACBF6365A38110BD0020F6
:1059500070472DE9F0411F468B890546DB050C4653
:10596000164605D502230022B1F90E1000F03EF9CB
:10597000A389324623F48053A38128463B46B4F9D9
:105980000E10BDE8F04100F055B910B50C46B1F964
:105990000E1000F02BF9431CA38915BF606523F49A
:1059A000805343F48053A38118BFA38110BDB1F984
:1059B0000E1000F0ADB803460244934200D1704788
:1059C00003F8011BF9E70346C9B2184613F8012B87
:1059D00012B18A42F9D17047002918BF00207047E0
:1059E00010B56AB10139841810F8012B11F8013F84
:1059F0009A4203D1A04201D0002AF5D1D01A10BD9D
:105A00001046FCE7034610B5013932B111F8014FD9
:105A1000013A03F8014B002CF7D100211A449342BC
:105A200000D110BD03F8011BF9E70000164B2DE96A
:105A3000F0411F6805467C6C0E46ECB9502000F022
:105A4000B1F90246786420B95B21104B104800F090
:105A500043F9C0E90044C0E90244C0E90444C0E994
:105A60000A44C0E90C44C0E90E44C0E91044C0E94E
:105A70001244846104774462314628467A6C0123DB
:105A8000BDE8F04100F006B81C000020209C000892
:105A9000379C0008F0B5044608B9146844B10F46B5
:105AA000204614F8015B17F8016B1EB965B9156043
:105AB000002005E0B542F6D1002BF0D11460037050
:105AC000F0BD1C460CE01DB90E46274614F8013BFC
:105AD00016F8015BAB42F6D1002BF2D000233B70ED
