:020000040800F2
:1000000000500020312C0008DD260008E5260008FD
:10001000ED260008F5260008FD2600080000000077
:10002000000000000000000000000000E17C00086B
:100030000527000800000000C17E000841590008A3
:10004000792C0008792C0008792C0008792C0008FC
:10005000792C0008792C0008792C0008792C0008EC
:10006000792C0008792C0008792C0008792C0008DC
:10007000792C0008792C0008792C0008792C0008CC
:10008000792C0008792C0008792C0008792C0008BC
:10009000792C0008792C0008792C0008792C0008AC
:1000A000792C0008792C0008792C0008792C00089C
:1000B00011270008792C0008792C0008792C0008F9
:1000C000792C0008792C0008792C0008792C00087C
:1000D000792C000825270008392700084D2700083B
:1000E000792C0008792C0008792C00080000000009
:1000F0000000000000000000000000000000000000
:0C01000000000000000000005FF808F1A3
:1001100010B5054C237833B9044B13B10448AFF341
:1001200000800123237010BDD801002000000000D2
:1001300080C2000808B5034B1BB103490348AFF365
:10014000008008BD00000000DC01002080C2000823
:1001500010F8012B11F8013B012A28BF9A42F7D071
:10016000D01A7047034613F8012B002AFBD1181A46
:100170000138704781F0004102E000BF83F0004386
:1001800030B54FEA41044FEA430594EA050F08BF32
:1001900090EA020F1FBF54EA000C55EA020C7FEAF6
:1001A000645C7FEA655C00F0E2804FEA5454D4EB73
:1001B0005555B8BF6D420CDD2C4480EA020281EA3D
:1001C000030382EA000083EA010180EA020281EA75
:1001D0000303362D88BF30BD11F0004F4FEA0131C7
:1001E0004FF4801C4CEA113102D0404261EB4101D6
:1001F00013F0004F4FEA03334CEA133302D052425C
:1002000063EB430394EA050F00F0A780A4F1010417
:10021000D5F1200E0DDB02FA0EFC22FA05F2801851
:1002200041F1000103FA0EF2801843FA05F3594137
:100230000EE0A5F120050EF1200E012A03FA0EFCB6
:1002400028BF4CF0020C43FA05F3C01851EBE371E0
:1002500001F0004507D54FF0000EDCF1000C7EEBFD
:1002600000006EEB0101B1F5801F1BD3B1F5001F3B
:100270000CD349085FEA30004FEA3C0C04F101045A
:100280004FEA445212F5800F80F09A80BCF1004F83
:1002900008BF5FEA500C50F1000041EB045141EA05
:1002A000050130BD5FEA4C0C404141EB0101013CCE
:1002B00028BFB1F5801FE9D291F0000F04BF0146BD
:1002C0000020B1FA81F308BF2033A3F10B03B3F18F
:1002D00020020CDA0C3208DD02F1140CC2F10C021F
:1002E00001FA0CF021FA02F10CE002F11402D8BF7D
:1002F000C2F1200C01FA02F120FA0CFCDCBF41EA49
:100300000C019040E41AA2BF01EB0451294330BD17
:100310006FEA04041F3C1CDA0C340EDC04F11404F4
:10032000C4F1200220FA04F001FA02F340EA0300CB
:1003300021FA04F345EA030130BDC4F10C04C4F111
:10034000200220FA02F001FA04F340EA03002946F1
:1003500030BD21FA04F0294630BD94F0000F83F43B
:10036000801306BF81F480110134013D4EE77FEA1E
:10037000645C18BF7FEA655C29D094EA050F08BF6A
:1003800090EA020F05D054EA000C04BF194610464B
:1003900030BD91EA030F1EBF0021002030BD5FEA8F
:1003A000545C05D14000494128BF41F0004130BDB7
:1003B00014F580043CBF01F5801130BD01F000450B
:1003C00045F0FE4141F470014FF0000030BD7FEA7E
:1003D000645C1ABF194610467FEA655C1CBF0B4679
:1003E000024650EA013406BF52EA033591EA030F90
:1003F00041F4002130BD00BF90F0000F04BF002188
:10040000704730B54FF4806404F132044FF00005BA
:100410004FF0000150E700BF90F0000F04BF002133
:10042000704730B54FF4806404F1320410F0004599
:1004300048BF40424FF000013EE700BF42004FEA94
:10044000E2014FEA31014FEA02701FBF12F07F4311
:1004500093F07F4F81F06051704732F07F4208BFC8
:10046000704793F07F4F04BF41F40021704730B5CF
:100470004FF4607401F0004521F000411CE700BF1B
:1004800050EA010208BF704730B54FF000050AE09E
:1004900050EA010208BF704730B511F0004502D59F
:1004A000404261EB41014FF4806404F132045FEAA1
:1004B000915C3FF4D8AE4FF003025FEADC0C18BF4A
:1004C00003325FEADC0C18BF033202EBDC02C2F13C
:1004D000200300FA03FC20FA02F001FA03FE40EACE
:1004E0000E0021FA02F11444BDE600BF70B54FF0D2
:1004F000FF0C4CF4E06C1CEA11541DBF1CEA1355B0
:1005000094EA0C0F95EA0C0F00F0DEF82C4481EA17
:10051000030621EA4C5123EA4C5350EA013518BF37
:1005200052EA033541F4801143F4801338D0A0FB24
:1005300002CE4FF00005E1FB02E506F00042E0FBD1
:1005400003E54FF00006E1FB03569CF0000F18BFD7
:100550004EF0010EA4F1FF04B6F5007F64F540747F
:1005600004D25FEA4E0E6D4146EB060642EAC62112
:1005700041EA55514FEAC52040EA5E504FEACE2E7F
:10058000B4F1FD0C88BFBCF5E06F1ED8BEF1004F82
:1005900008BF5FEA500E50F1000041EB045170BDFE
:1005A00006F0004646EA010140EA020081EA030142
:1005B000B4EB5C04C2BFD4EB0C0541EA045170BD3E
:1005C00041F480114FF0000E013C00F3AB8014F1B8
:1005D000360FDEBF002001F0004170BDC4F1000401
:1005E000203C35DA0C341BDC04F11404C4F1200582
:1005F00000FA05F320FA04F001FA05F240EA0200DD
:1006000001F0004221F0004110EBD37021FA04F612
:1006100042EB06015EEA430E08BF20EAD37070BDCC
:10062000C4F10C04C4F1200500FA04F320FA05F02B
:1006300001FA04F240EA020001F0004110EBD3702D
:1006400041F100015EEA430E08BF20EAD37070BD9D
:10065000C4F1200500FA05F24EEA020E20FA04F376
:1006600001FA05F243EA020321FA04F001F0004125
:1006700021FA04F220EA020000EBD3705EEA430E96
:1006800008BF20EAD37070BD94F0000F0FD101F0C5
:100690000046400041EB010111F4801F08BF013CFE
:1006A000F7D041EA060195F0000F18BF704703F03C
:1006B0000046520043EB030313F4801F08BF013DC3
:1006C000F7D043EA0603704794EA0C0F0CEA13557F
:1006D00018BF95EA0C0F0CD050EA410618BF52EA39
:1006E0004306D1D181EA030101F000414FF000003F
:1006F00070BD50EA410606BF1046194652EA43064D
:1007000019D094EA0C0F02D150EA013613D195EAC0
:100710000C0F05D152EA03361CBF104619460AD108
:1007200081EA030101F0004141F0FE4141F4700112
:100730004FF0000070BD41F0FE4141F4780170BD02
:1007400070B54FF0FF0C4CF4E06C1CEA11541DBF67
:100750001CEA135594EA0C0F95EA0C0F00F0A7F869
:10076000A4EB050481EA030E52EA03354FEA013196
:1007700000F088804FEA03334FF0805545EA1313A9
:1007800043EA12634FEA022245EA111545EA106571
:100790004FEA00260EF000419D4208BF964244F108
:1007A000FD0404F5407402D25B084FEA3202B61A27
:1007B00065EB03055B084FEA32024FF480104FF4FB
:1007C000002CB6EB020E75EB030E22BFB61A75466F
:1007D00040EA0C005B084FEA3202B6EB020E75EB02
:1007E000030E22BFB61A754640EA5C005B084FEA6A
:1007F0003202B6EB020E75EB030E22BFB61A754637
:1008000040EA9C005B084FEA3202B6EB020E75EB41
:10081000030E22BFB61A754640EADC0055EA060E02
:1008200018D04FEA051545EA16754FEA06164FEA45
:10083000C30343EA52734FEAC2025FEA1C1CC0D1F1
:1008400011F4801F0BD141EA00014FF000004FF07E
:10085000004CB6E711F4801F04BF01430020B4F13F
:10086000FD0C88BFBCF5E06F3FF6AFAEB5EB030CF7
:1008700004BFB6EB020C5FEA500C50F1000041EBF4
:10088000045170BD0EF0004E4EEA113114EB5C04C1
:10089000C2BFD4EB0C0541EA045170BD41F4801194
:1008A0004FF0000E013C90E645EA060E8DE60CEA9C
:1008B000135594EA0C0F08BF95EA0C0F3FF43BAFB9
:1008C00094EA0C0F0AD150EA01347FF434AF95EA70
:1008D0000C0F7FF425AF104619462CE795EA0C0F54
:1008E00006D152EA03353FF4FDAE1046194622E721
:1008F00050EA410618BF52EA43067FF4C5AE50EAFB
:1009000041047FF40DAF52EA43057FF4EBAE12E7EA
:100910004FF0FF3C06E000BF4FF0010C02E000BFCB
:100920004FF0010C4DF804CD4FEA410C7FEA6C5CAE
:100930004FEA430C18BF7FEA6C5C1BD001B050EA51
:10094000410C0CBF52EA430C91EA030F02BF90EA3C
:10095000020F0020704710F1000F91EA030F58BFFB
:10096000994208BF90422CBFD8176FEAE37040F05D
:10097000010070474FEA410C7FEA6C5C02D150EAFB
:10098000013C07D14FEA430C7FEA6C5CD6D152EAB6
:10099000033CD3D05DF8040B704700BF844610467B
:1009A00062468C461946634600E000BF01B5FFF77A
:1009B000B7FF002848BF10F1000F01BD4DF808ED4A
:1009C000FFF7F4FF0CBF012000205DF808FB00BF1B
:1009D0004DF808EDFFF7EAFF34BF012000205DF875
:1009E00008FB00BF4DF808EDFFF7E0FF94BF0120C2
:1009F00000205DF808FB00BF4DF808EDFFF7CEFFC3
:100A000094BF012000205DF808FB00BF4DF808ED01
:100A1000FFF7C4FF34BF012000205DF808FB00BFD2
:100A20004FEA410C7FEA6C5C02D150EA013C0AD1EA
:100A30004FEA430C7FEA6C5C02D152EA033C02D1DC
:100A40004FF0000070474FF0010070474A0011D28C
:100A500012F5001211D20DD56FF47873B3EB625218
:100A60000ED44FEAC12343F0004343EA505323FA24
:100A700002F070474FF00000704750EA013002D199
:100A80004FF0FF3070474FF0000070474FEA4102CF
:100A9000B2F1E04324BFB3F5001CDCF1FE5C0DD9DC
:100AA00001F0004C4FEAC0024CEA5070B2F1004F26
:100AB00040EB830008BF20F00100704711F0804F29
:100AC00021D113F13872BCBF01F00040704741F4EE
:100AD00080114FEA5252C2F11802C2F1200C10FAF2
:100AE0000CF320FA02F018BF40F001004FEAC123D6
:100AF0004FEAD32303FA0CFC40EA0C0023FA02F37A
:100B00004FEA4303CCE77FEA625307D150EA01334F
:100B10001EBF4FF0FE4040F44000704701F000401F
:100B200040F0FE4040F40000704700BF4FF0FF3C33
:100B300006E000BF4FF0010C02E000BF4FF0010CD7
:100B40004DF804CD4FEA40024FEA41037FEA226CA0
:100B500018BF7FEA236C11D001B052EA530C18BFC2
:100B600090EA010F58BFB2EB030088BFC81738BF27
:100B70006FEAE17018BF40F0010070477FEA226C15
:100B800002D15FEA402C05D17FEA236CE4D15FEA11
:100B9000412CE1D05DF8040B704700BF8446084645
:100BA0006146FFE70FB5FFF7C9FF002848BF10F106
:100BB000000F0FBD4DF808EDFFF7F4FF0CBF01204B
:100BC00000205DF808FB00BF4DF808EDFFF7EAFFD5
:100BD00034BF012000205DF808FB00BF4DF808ED90
:100BE000FFF7E0FF94BF012000205DF808FB00BF85
:100BF0004DF808EDFFF7D2FF94BF012000205DF80B
:100C000008FB00BF4DF808EDFFF7C8FF34BF012017
:100C100000205DF808FB00BF38B500220023044621
:100C20000D46FFF7D5FE28B920462946BDE83840D5
:100C300000F00AB8204605F1004100F005F84042F6
:100C400061EB410138BD00BFD0B500220B4B064619
:100C50000F46FFF74BFCFFF7F9FE0446FFF7CCFB0E
:100C60000022074BFFF742FC02460B46304639464E
:100C7000FFF784FAFFF7EAFE2146D0BD0000F03D01
:100C80000000F04180B5C2B000AF4021AB4802F097
:100C90004FFD0346002B1AD1A94B1B78002B16D011
:100CA000A84B1B7883F00103DBB2002B0FD0A44BC1
:100CB0001B78013BDAB2A24B1A70A34B00221A70C8
:100CC000A04B01221A70FA2004F02EFF02E09D4B87
:100CD00000221A708021994802F02AFD0346002B59
:100CE00013D19A4B1B7883F00103DBB2002B0CD09D
:100CF000934B00221A70944B00221A70934B0122DE
:100D00001A70FA2004F010FF02E0904B00221A70D3
:100D10008B4B1B780D2B00F2898301A252F823F034
:100D2000590D0008990D0008EF0D0008CF0E0008BE
:100D30002B100008331100080B120008590D000891
:100D4000590D00082713000899130008590D0008D1
:100D5000590D0008590D00082021784802F0E8FCE0
:100D60000346002B40F05183754B1B780C2B09D8A0
:100D7000734B1B780133DAB2714B1A70FA2004F00E
:100D8000D3FE05E06E4B00221A70FA2004F0CCFE70
:100D90006D4B00221A7038E301F018FF6C4B1B7882
:100DA000002B00F034836A4B00221A7007F1CC0349
:100DB000684A6949184607F0E3FD07F1CC03194674
:100DC000664807F007FF0346002B0CD0644801F08B
:100DD00035FE5B4B1B780133DAB2594B1A705A4B14
:100DE00000221A7013E35F4801F028FE0FE301F0C0
:100DF000EDFE574B1B78002B00F00B83544B002269
:100E00001A7007F134036C220021184607F04BFEDC
:100E100007F134031946514800F0A0FE002387F87B
:100E20000731002387F806314C4801F007FED7F858
:100E300084304FF082411846FFF7DAFE0346002B5C
:100E40000CD0D7F8843048491846FFF7C7FE034650
:100E5000002B03D0012387F8073102E0434801F05B
:100E6000EDFDD7F8883042491846FFF7C1FE03462A
:100E7000002B0CD0D7F888303E491846FFF7AEFE5D
:100E80000346002B03D0012387F8063102E03A48DD
:100E900001F0D4FD97F80731002B14D097F80631F4
:100EA000002B10D040F2DC5004F03EFE334801F03D
:100EB000C5FD254B00221A70214B1B780133DAB295
:100EC0001F4B1A70A5E22E4801F0B8FDA1E201F017
:100ED0007DFE1F4B1B78002B00F09D821C4B0022D7
:100EE0001A70012387F8053107F134036C220021C1
:100EF000184607F0D8FD07F134031946174800F0EB
:100F00002DFE0023C7F800315AE007F19202D7F80E
:100F1000003113441B78002B36D0002387F80531AD
:100F2000D7F800315A1C3B461649184607F028FDF1
:100F30003B46184601F082FD3DE000BF000801403D
:100F4000F401002001020020020200200302002020
:100F500070030020F801002098C2000874030020EC
:100F6000A4C20008C4C2000800002041F8C2000862
:100F7000000030410000604120C3000844C3000865
:100F800060C30008A8C3000807F19202D7F8003137
:100F900013441B7883F00103DBB2002B0BD0D7F88E
:100FA00000315A1C3B46B549184607F0E9FC3B4660
:100FB000184601F043FDD7F800310133C7F800317E
:100FC000D7F80031072BA0DD97F80531002B1CD096
:100FD000AB4801F033FD40F2DC5004F0A5FDA94B15
:100FE0001B780133DAB2A74B1A70A74B00221A7094
:100FF000A64B00221A704FF496720021A44807F005
:1010000052FDA44B00221A8005E2A34801F016FD10
:101010009D4B00221A704FF4967200219C4807F0F5
:1010200042FD9C4B00221A80F5E101F0CFFD9B4B65
:101030001B78002B00F0F181984B00221A700123DD
:1010400087F8FF3007F134036C220021184607F0BF
:101050002AFD07F1340319468D4800F07FFD002377
:10106000C7F8F83033E007F19202D7F8F8301344AC
:101070001B7883F00103DBB2002B0FD0002387F82D
:10108000FF30D7F8F8305A1C3B468549184607F020
:1010900077FC3B46184601F0D1FC13E007F19202C1
:1010A000D7F8F83013441B78002B0BD0D7F8F83062
:1010B0005A1C3B467B49184607F062FC3B461846E3
:1010C00001F0BCFCD7F8F8300133C7F8F830D7F896
:1010D000F830072BC7DD97F8FF30002B1CD0724883
:1010E00001F0ACFC40F2DC5004F01EFD654B1B78B7
:1010F0000133DAB2634B1A70644B00221A70624BF0
:1011000000221A704FF496720021614807F0CBFC60
:10111000604B00221A8080E1644801F08FFC4FF49C
:10112000967200215A4807F0BEFC5A4B00221A80E2
:1011300073E101F04BFD594B1B78002B00F06F81E0
:10114000564B00221A70012387F8F73007F1340359
:101150006C220021184607F0A6FC07F1340319465B
:101160004B4800F0FBFC0023C7F8F03033E007F1F8
:101170009A02D7F8F03013441B78002B0FD00023CD
:1011800087F8F730D7F8F0305A1C3B4648491846E4
:1011900007F0F6FB3B46184601F050FC16E007F15D
:1011A0009A02D7F8F03013441B7883F00103DBB2C6
:1011B000002B0BD0D7F8F0305A1C3B463D4918465F
:1011C00007F0DEFB3B46184601F038FCD7F8F0305C
:1011D0000133C7F8F030D7F8F030022BC7DD97F8AD
:1011E000F730002B00F01B81334801F027FC40F260
:1011F000DC5004F099FC234B1B780133DAB2214B0D
:101200001A70224B00221A7009E101F0DFFC234B17
:101210001B78002B00F00581204B00221A7001235F
:1012200087F8EF3007F134036C220021184607F0ED
:101230003AFC07F134031946154800F08FFC0023EF
:10124000C7F8E83055E007F19A02D7F8E8301344C0
:101250001B7883F00103DBB2002B31D0002387F829
:10126000EF30D7F8E8305A1C3B461449184607F0CF
:1012700087FB3B46184601F0E1FB35E0C0C30008A0
:10128000D4C30008F4010020040200200202002060
:1012900074030020A0040020E8C3000870030020AD
:1012A00048C4000860C4000874C4000888C400086A
:1012B000E8C4000800C5000814C500082CC50008D3
:1012C00007F19A02D7F8E83013441B78002B0BD0B3
:1012D000D7F8E8305A1C3B46A249184607F050FBA5
:1012E0003B46184601F0AAFBD7F8E8300133C7F8AF
:1012F000E830D7F8E830022BA5DD97F8EF30002B67
:1013000000F08F80984801F099FB40F2DC5004F027
:101310000BFC964B1B780133DAB2944B1A70944B4A
:1013200000221A707DE02021924802F001FA034663
:10133000002B78D101F04AFC8F4B1B78002B72D028
:101340008D4B00221A7007F134036C2200211846DD
:1013500007F0A9FB07F134031946884800F0FEFBAB
:1013600097F890304A2B10D1854801F067FB40F286
:10137000DC5004F0D9FB7D4B1B780133DAB27B4B98
:101380001A707B4B00221A704DE07E4801F056FB2C
:10139000774B00221A7046E02021764802F0C8F907
:1013A0000346002B41D101F011FC734B1B78002B3D
:1013B0003BD0714B00221A7007F134036C220021DC
:1013C000184607F070FB07F1340319466B4800F02C
:1013D000C5FB97F890304E2B10D16B4801F02EFBD7
:1013E00040F2DC5004F0A0FB604B1B780133DAB212
:1013F0005E4B1A705E4B00221A7016E0634801F0D3
:101400001DFB5B4B00221A700FE000BF0EE000BF17
:101410000CE000BF0AE000BF08E000BF06E000BF2C
:1014200004E000BF02E000BF00E000BF4F4B1B78AC
:101430000D2B00F2538301A252F823F0751400081B
:101440001715000871160008AB16000825170008CC
:101450009F170008F5170008691800080919000807
:10146000AD190008031A0008391A0008691A0008A3
:10147000991A00083E4B1B7883F00103DBB2002B66
:1014800000F02E83424801F063FA00224FF48041BD
:10149000404802F064F900224FF40061354802F040
:1014A0005EF901224FF400413A4802F058F9012256
:1014B0004FF400412F4802F052F90122082135482B
:1014C00002F04DF900222021324802F048F90022B2
:1014D0004021304802F043F9002280212D4802F0DB
:1014E0003EF94FF496720021244807F0DCFA64229A
:1014F0000021294807F0D7FA09220021274807F0E0
:10150000D2FA274801F09AFA0A2004F00DFB184B92
:1015100001221A70E4E2164B1B7883F00103DBB260
:10152000002B0AD0642200211B4807F0BCFA1D489A
:1015300001F084FA0E4B01221A701B4B1B78002B12
:1015400000F0D082184B00221A7007F1C00300226D
:101550001A605A601A720023C7F8E4300023C7F8F3
:10156000E03045E044C5000858C50008F4010020FB
:1015700002020020000801407003002074030020D4
:1015800070C5000888C50008BCC50008D4C500089F
:1015900008C60008000C0140F4040020F8010020F7
:1015A00010C6000824C60008F0040020C04AD7F87E
:1015B000E03013441B780D2B15D0BD4AD7F8E0302E
:1015C00013441B780A2B0ED0D7F8E4305A1CC7F806
:1015D000E420B749D7F8E0200A44127803F5847371
:1015E0003B4403F8482CD7F8E0300133C7F8E0302B
:1015F000AF48FEF7B7FD0246D7F8E0309A42D5D89B
:1016000007F1C002D7F8E430134400221A70D7F86B
:10161000E430082B28D107F1C00308221946A54859
:1016200007F068FA07F1A003A24AA349184607F099
:10163000A7F907F1A003184601F08AF90A2004F07F
:1016400073FA07F1A003184601F082F99B4801F0F4
:10165000F5F94FF47A7004F067FA994801F078F9D7
:10166000322004F061FA3DE2964801F0E7F939E2F0
:10167000954B1B7883F00103DBB2002B00F0348222
:10168000924801F0DBF94FF4FA7004F04DFA9048FB
:1016900001F05EF94FF4FA7004F046FA8D4801F05B
:1016A000CDF9894B01221A701EE2874B1B7883F01B
:1016B0000103DBB2002B09D0874801F0BFF94FF4DA
:1016C000FA7004F031FA804B01221A70202183480D
:1016D00002F02EF80346002B18D1814B1B7883F0C3
:1016E0000103DBB2002B11D07D4B01221A704FF4A5
:1016F00096720021774807F0D6F97A4B00221A80BB
:10170000794B00221A70724801F022F920217348A7
:1017100002F00EF80346002B00F0E881704B002227
:101720001A70E3E1684B1B7883F00103DBB2002BF6
:1017300009D06E4801F082F94FF4FA7004F0F4F920
:10174000614B01221A702021644801F0F1FF034629
:10175000002B18D1624B1B7883F00103DBB2002B06
:1017600011D05F4B01221A704FF496720021594834
:1017700007F099F95B4B00221A805B4B00221A702C
:10178000534801F0E5F82021544801F0D1FF034609
:10179000002B00F0AD81524B00221A70A8E14A4B99
:1017A0001B7883F00103DBB2002B00F0A3815048CB
:1017B00001F044F94FF4FA7004F0B6F901224FF445
:1017C00000414C4801F0CBFF01224FF40041434857
:1017D00001F0C5FF01220821464801F0C0FF4FF487
:1017E000FA7004F0A1F93A4801F0B2F8364B012240
:1017F0001A707FE1344B1B7883F00103DBB2002BBE
:1018000000F07A813C4801F0A3F83C4801F016F959
:101810004FF4FA7004F088F900224FF40041354883
:1018200001F09DFF00224FF400412C4801F097FF8A
:10183000002208212F4801F092FF4FF4FA7004F0C3
:1018400073F94FF496720021224807F02CF9254BCA
:1018500000221A80244B00221A701D4801F078F8EB
:10186000194B01221A7047E1174B1B7883F00103D3
:10187000DBB2002B00F0428101224FF400411D48F1
:1018800001F06DFF01224FF40041144801F067FFA1
:1018900001220821174801F062FF194801F0CEF833
:1018A000184801F055F8084B01221A7026E100BFD4
:1018B000F4040020F801002038C6000840C60008E3
:1018C00068C6000870C6000802020020B0C6000802
:1018D000C4C6000874030020CCC6000800080140FC
:1018E00004020020A004002070030020E0C60008CD
:1018F000F4C60008000C014008C6000808C700082C
:101900001CC7000830C70008854B1B7883F0010313
:10191000DBB2002B00F0F48000224FF4006181481C
:1019200001F01DFF804801F013F8804801F086F8AF
:1019300040F2DC5004F0F8F8012220217C4801F04C
:101940000EFF7C4801F07AF840F2DC5004F0ECF82D
:1019500000222021764801F002FF01224021744834
:1019600001F0FDFE744801F069F840F2DC5004F02B
:10197000DBF8002240216E4801F0F1FE01228021B7
:101980006B4801F0ECFE6D4801F058F840F2DC5075
:1019900004F0CAF86A4801F051F800228021644836
:1019A00001F0DDFE5E4B01221A70A9E05C4B1B7852
:1019B00083F00103DBB2002B00F0A4800022202181
:1019C0005B4801F0CCFE00224021594801F0C7FEDF
:1019D00000228021564801F0C2FE5A4801F02EF83C
:1019E0004FF47A7004F0A0F801224FF400614D48E2
:1019F00001F0B5FE544800F0ABFF494B01221A70CC
:101A000080E0474B1B7883F00103DBB2002B7BD0D7
:101A100000224FF40061434801F0A1FE4B4801F061
:101A20000DF84FF47A7004F07FF8474800F090FF0B
:101A30003B4B01221A7067E0394B1B7883F001039E
:101A4000DBB2002B62D000224FF48041384801F015
:101A500086FE4FF47A7004F067F83D4800F0EEFF20
:101A60002F4B01221A7051E02D4B1B7883F001039C
:101A7000DBB2002B4CD04FF47A7004F055F83548A7
:101A800000F0DCFF01224FF48041294801F067FE9D
:101A9000234B01221A703BE0214B1B7883F001039A
:101AA000DBB2002B36D04FF47A7004F03DF82A48B0
:101AB00000F0C4FF00224FF400411D4801F04FFE2A
:101AC00041F2766004F030F801224FF400411848EA
:101AD00001F045FE124B01221A701BE000BF1AE014
:101AE00000BF18E000BF16E000BF14E000BF12E026
:101AF00000BF10E000BF0EE000BF0CE000BF0AE036
:101B000000BF08E000BF06E000BF04E000BF02E045
:101B100000BF00E000BF00BF07F58477BD4680BD71
:101B2000020200200008014008C6000838C700086B
:101B3000000C01404CC7000854C700085CC70008EF
:101B400064C7000870C70008C4C6000884C700083E
:101B50009CC70008B4C70008CCC7000880B58CB08B
:101B600000AF786039609449786806F0D7FFF86272
:101B7000002387F82B30002387F82A3012E1052252
:101B80008E49F86A06F0A4FF0346002B06D13B6895
:101B90001A468B49F86A06F015FFFEE005228949CE
:101BA000F86A06F095FF0346002B07D13B68203307
:101BB0001A468549F86A06F005FFEEE005228349DA
:101BC000F86A06F085FF0346002B07D13B684033D7
:101BD0001A467F49F86A06F0F5FEDEE005227D49E7
:101BE000F86A06F075FF0346002B07D13B685033B7
:101BF0001A467949F86A06F0E5FECEE005227749F3
:101C0000F86A06F065FF0346002B07D13B685433A2
:101C10001A467349F86A06F0D5FEBEE005227149FE
:101C2000F86A06F055FF0346002B2BD197F82B30AE
:101C300083F00103DBB2002B0DD03B6858331A460A
:101C40006949F86A06F0BEFE0346012B03D1012361
:101C500087F82B30A1E097F82A3083F00103DBB23C
:101C6000002B00F09A803B685C331A465F49F86AA3
:101C700006F0A8FE0346012B40F08F80012387F871
:101C80002A308AE005225A49F86A06F021FF034605
:101C9000002B07D13B685D331A465649F86A06F0B7
:101CA00091FE7AE005225449F86A06F011FF0346D6
:101CB000002B33D1FB6A05337B6223E07B69002B69
:101CC00015DD7B69082B12DC07F110034B49184620
:101CD000FEF73EFA02467B69013B002A0CBF012257
:101CE0000022D1B23A6813440A4683F85E202021CC
:101CF000786A06F0E0FEB861BB69002B4AD0BB6988
:101D000001337B6207F1100307F114023C49786A42
:101D100006F058FE0346022BD0D03EE0052239499A
:101D2000F86A06F0D5FE0346002B36D1FB6A053370
:101D30003B6223E0FB68002B15DDFB68032B12DC04
:101D400007F108032D491846FEF702FA0246FB6820
:101D5000013B002A0CBF01220022D1B23A68134491
:101D60000A4683F866202021386A06F0A4FEF8614E
:101D7000FB69002B10D0FB6901333B6207F10803BC
:101D800007F10C021E49386A06F01CFE0346022BBE
:101D9000D0D002E000BF00E000BF0749002006F0FD
:101DA000BDFEF862FB6A002B7FF4E9AE00BF00BF06
:101DB0003037BD4680BD00BFE4C70008E8C7000853
:101DC000F0C7000800C8000808C8000818C80008C4
:101DD00020C8000830C8000838C8000844C80008F7
:101DE0004CC8000858C8000860C800086CC8000843
:101DF00078C8000880C800088CC8000894C800088B
:101E000098C80008A0C8000880B500AF00F036FFF1
:101E100000F032F800F048F900F0C8F800F068FD72
:101E200000F0ACFD00F0DAFD00F082F800F0ECF814
:101E300003F0A0FD0A4A00210A4803F0E3FD03462F
:101E4000094A1360094A0021094803F0DBFD0346F3
:101E5000084A136003F0B0FD0023184680BD00BFA0
:101E6000F4C800081D220008D402002018C9000888
:101E700005220008D802002080B594B000AF07F119
:101E8000280328220021184606F00DFE07F114034E
:101E900000221A605A609A60DA601A613B1D0022C3
:101EA0001A605A609A60DA600123BB624FF4803393
:101EB000FB6200233B630123BB6302237B644FF47B
:101EC0008033BB644FF4E013FB6407F1280318462A
:101ED00001F0BAFD0346002B01D000F0BFF90F233B
:101EE0007B610223BB610023FB614FF480633B6293
:101EF00000237B6207F114030221184602F026F842
:101F00000346002B01D000F0A9F902237B604FF4B7
:101F10004043FB603B1D184602F0D6F90346002BF8
:101F200001D000F09BF900BF5037BD4680BD0000D6
:101F300080B584B000AF3B1D00221A605A609A60E1
:101F4000184B194A1A60174B00229A60154B002251
:101F50001A73144B00221A75124B4FF46022DA6187
:101F6000104B00225A600F4B01221A610D4800F0FD
:101F7000B7FE0346002B01D000F070F908237B6008
:101F80000123BB600023FB603B1D1946054800F0A0
:101F90007FFF0346002B01D000F060F900BF10372F
:101FA000BD4680BD080200200024014080B500AF7E
:101FB000124B134A1A60114B124A5A600F4B0022FF
:101FC0009A600E4B0022DA600C4B4FF480421A618B
:101FD0000A4B00225A61094B00229A61074B0022EA
:101FE000DA61064B00221A62044801F0E9FB03465D
:101FF000002B01D000F032F900BF80BD3802002074
:1020000000540040A086010080B586B000AF07F103
:10201000080300221A605A609A60DA603B46002288
:102020001A605A601E4B1F4A1A601D4B00225A60EC
:102030001B4B00229A601A4B4FF6FF72DA60184B66
:1020400000221A61164B00225A61154B00229A6138
:10205000134802F0EFF90346002B01D000F0FEF820
:102060004FF48053BB6007F1080319460C4802F097
:1020700073FB0346002B01D000F0F0F800233B6017
:1020800000237B603B461946054802F055FD034698
:10209000002B01D000F0E2F800BF1837BD4680BD2C
:1020A0008C020020002C014080B588B000AF07F101
:1020B000100300221A605A609A60DA604C4B9B69E8
:1020C0004B4A43F010039361494B9B6903F01003A3
:1020D000FB60FB68464B9B69454A43F020039361D4
:1020E000434B9B6903F02003BB60BB68404B9B697B
:1020F0003F4A43F0040393613D4B9B6903F00403A3
:102100007B607B683A4B9B69394A43F008039361D3
:10211000374B9B6903F008033B603B6800224FF498
:10212000C041344801F01BFB002248F61001324840
:1021300001F015FB00224EF2FE01304801F00FFBCA
:102140004FF4C0433B6101237B610023BB61022349
:10215000FB6107F110031946264801F065F94FF4B9
:1021600000433B6100237B610023BB6107F1100347
:102170001946204801F058F9E3233B6100237B61B5
:102180000023BB6107F1100319461B4801F04CF90D
:1021900048F610033B6101237B610023BB610223EE
:1021A000FB6107F110031946134801F03DF94EF2A7
:1021B000FE033B6101237B610023BB610223FB61C2
:1021C00007F1100319460D4801F02EF94FF4805322
:1021D0003B610B4B7B610023BB6107F11003194688
:1021E000064801F021F900BF2037BD4680BD00BF81
:1021F000001002400010014000080140000C0140A6
:102200000000111080B582B000AF7860FEF73AFD93
:10221000322003F089FC00BFF8E7000080B582B0EF
:1022200000AF78601021044801F0B1FA4FF4FA7061
:1022300003F07AFC00BFF5E7000C014080B582B0E6
:1022400000AF78607B681B68B3F1804F01D100F06C
:102250002BFD00BF0837BD4680BD000080B500AF34
:1022600072B600BF014800F0E9FBFBE7C8C80008F0
:1022700080B584B000AF184B9B69174A43F0010347
:102280009361154B9B6903F00103BB60BB68124B64
:10229000DB69114A43F08053D3610F4BDB6903F0D4
:1022A00080537B607B6800220F216FF0010000F0FB
:1022B000DEFF0A4B5B68FB60FB6823F0E063FB60BA
:1022C000FB6843F00073FB60044AFB68536000BF87
:1022D0001037BD4680BD00BF001002400000014025
:1022E00080B588B000AF786007F1100300221A6053
:1022F0005A609A60DA607B681B68144A934221D165
:10230000134B9B69124A43F400739361104B9B6912
:1023100003F40073FB60FB680D4B9B690C4A43F0B0
:10232000080393610A4B9B6903F00803BB60BB6819
:1023300001233B6103237B6107F110031946054824
:1023400001F072F800BF2037BD4680BD0024014077
:1023500000100240000C014080B58AB000AF7860E8
:1023600007F1140300221A605A609A60DA607B68F1
:102370001B681D4A934232D11C4B9B691B4A43F098
:1023800008039361194B9B6903F008033B613B69A8
:102390004FF440737B611223BB6103233B6207F15F
:1023A00014031946124801F03FF8124B5B687B6238
:1023B0007B6A43F0E0637B627B6A43F002037B62EB
:1023C0000C4A7B6A5360094BDB69084A43F40013EB
:1023D000D361064BDB6903F40013FB60FB6800BFAD
:1023E0002837BD4680BD00BF0054004000100240A9
:1023F000000C01400000014080B485B000AF78605F
:102400007B681B68094A93420BD1094B9B69084AB8
:1024100043F400639361064B9B6903F40063FB6024
:10242000FB6800BF1437BD4680BC7047002C0140DC
:102430000010024080B58CB000AF786007F1200337
:1024400000221A605A609A60DA607B681B685F4AF3
:1024500093423AD15E4B9B695D4A43F4804393615A
:102460005B4B9B6903F48043FB61FB69584B9B69A1
:10247000574A43F004039361554B9B6903F00403EF
:10248000BB61BB694FF400733B6202237B62032391
:10249000FB6207F1200319464E4800F0C5FF4FF4D8
:1024A00080633B6200237B620023BB6207F1200351
:1024B0001946484800F0B8FF00220521252000F009
:1024C000D6FE252000F0EFFE7CE07B681B68424AC8
:1024D000934238D13E4BDB693D4A43F40033D3612C
:1024E0003B4BDB6903F400337B617B69384B9B69B1
:1024F000374A43F004039361354B9B6903F00403AF
:102500003B613B6904233B6202237B620323FB6242
:1025100007F1200319462F4800F086FF08233B628D
:1025200000237B620023BB6207F120031946294880
:1025300000F07AFF00220521262000F098FE2620D8
:1025400000F0B1FE3EE07B681B68244A934239D11B
:102550001F4BDB691E4A43F48023D3611C4BDB69AC
:1025600003F48023FB60FB68194B9B69184A43F016
:1025700008039361164B9B6903F00803BB60BB68BB
:102580004FF480633B6202237B620323FB6207F10B
:1025900020031946124800F047FF4FF400633B62E6
:1025A00000237B620023BB6207F1200319460C481D
:1025B00000F03AFF00220521272000F058FE2720D6
:1025C00000F071FE00BF3037BD4680BD00380140CD
:1025D0000010024000080140004400400048004054
:1025E000000C014080B58EB000AF78600023FB6224
:1025F0000023BB62002387F83330344BDB69334A56
:1026000043F00103D361314BDB6903F00103FB604D
:10261000FB6807F1100207F114031146184601F098
:1026200005FE3B6AFB62FB6A002B03D101F0D6FD7D
:10263000786304E001F0D2FD03465B007B637B6BB3
:10264000234AA2FB03239B0C013BBB62214B4FF0AF
:1026500080421A601F4B40F2E732DA601D4ABB6AC3
:1026600053601C4B00221A611A4B00229A60194BCE
:1026700000229A61174801F0DDFE034687F83330E7
:1026800097F83330002B1BD1124801F023FF03468B
:1026900087F8333097F83330002B11D11C2000F02D
:1026A00002FE7B680F2B08D8002279681C2000F0FE
:1026B000DEFD094A7B68136002E0012387F83330AE
:1026C00097F8333018463837BD4680BD00100240B9
:1026D00083DE1B43DC0200200400002080B400AF36
:1026E00000BFFDE780B400AF00BFFDE780B400AFDE
:1026F00000BFFDE780B400AF00BFFDE780B400AFCE
:1027000000BFFDE780B400AF00BFBD4680BC70478E
:1027100080B500AF024801F02FFF00BF80BD00BFB1
:10272000DC02002080B500AF024802F075FB00BF5C
:1027300080BD00BF2803002080B500AF024802F032
:102740006BFB00BF80BD00BF5C05002080B500AF03
:10275000024802F061FB00BF80BD00BFA80400205A
:1027600080B400AF01231846BD4680BC704780B5D9
:1027700082B000AF7860396006F0E6FA03461622B0
:102780001A604FF0FF3318460837BD4680BD80B54C
:1027900082B000AF78604FF0FF317868FFF7E7FF55
:1027A00000BFFDE780B586B000AFF860B9607A6021
:1027B00000237B610AE0AFF300800146BB685A1C2E
:1027C000BA60CAB21A707B6901337B617A697B682F
:1027D0009A42F0DB7B6818461837BD4680BD80B54D
:1027E00086B000AFF860B9607A6000237B6109E0D1
:1027F000BB685A1CBA601B781846AFF300807B692F
:1028000001337B617A697B689A42F1DB7B68184609
:102810001837BD4680BD80B483B000AF78604FF0FC
:10282000FF3318460C37BD4680BC704780B483B078
:1028300000AF786039603B684FF400525A60002363
:1028400018460C37BD4680BC704780B483B000AFDB
:102850007860012318460C37BD4680BC704780B4B1
:1028600085B000AFF860B9607A600023184614376D
:10287000BD4680BC7047000080B586B000AF786070
:10288000144A154BD31A7B617B693B61134B1B6860
:10289000002B02D1114B124A1A60104B1A687B6848
:1028A00013443A699A4207D206F04EFA03460C22C4
:1028B0001A604FF0FF3309E0084B1B68FB60074BC1
:1028C0001A687B681344054A1360FB68184618377A
:1028D000BD4680BD005000200004000024030020FD
:1028E0001821002080B400AF00BFBD4680BC7047F7
:1028F00080B500AF134B144A1A60124B4FF41652B6
:102900005A60104B00229A600E4B0022DA600D4B89
:1029100000221A610B4B0C225A610A4B00229A6169
:10292000084B0022DA61074802F076F90346002BD3
:1029300001D0FFF793FC01220449024802F047FA54
:1029400000BF80BD28030020003801407103002033
:1029500080B582B000AF78607868FDF703FC03466D
:102960009AB24FF0FF337968034802F0A5F900BF2F
:102970000837BD4680BD00BF2803002080B500AFEA
:10298000134B144A1A60124B4FF416525A60104BF4
:1029900000229A600E4B0022DA600D4B00221A6171
:1029A0000B4B0C225A610A4B00229A61084B002201
:1029B000DA61074802F030F90346002B01D0FFF737
:1029C0004DFC01220449024802F001FA00BF80BD1B
:1029D0005C05002000440040A505002080B500AF44
:1029E000134B144A1A60124B4FF416525A60104B94
:1029F00000229A600E4B0022DA600D4B00221A6111
:102A00000B4B0C225A610A4B00229A61084B0022A0
:102A1000DA61074802F000F90346002B01D0FFF706
:102A20001DFC01220449024802F0D1F900BF80BD1B
:102A3000A804002000480040F104002080B582B0C6
:102A400000AF78607868FDF78DFB03469AB24FF0CF
:102A5000FF337968034802F02FF900BF0837BD46FD
:102A600080BD00BFA804002080B582B000AF7860B0
:102A70007B681B68424A93422AD100F027F903463B
:102A8000404A1360404B1B78002B10D03F4B1B88F3
:102A9000B3F5957F0BD83D4B1B885A1C91B23B4A2E
:102AA00011801A46384B1978394B99540BE0374B43
:102AB0001B881A46364B00219954364B01221A7056
:102AC000324B00221A8001222F49334802F07FF94D
:102AD0007B681B68314A934224D1314B1B780D2B04
:102AE0000FD0304B1B88622B0BD82E4B1B885A1CE7
:102AF00091B22C4A11801A46294B19782A4B9954C5
:102B00000BE0284B1B881A46274B0D219954274B65
:102B100001221A70234B00221A80012220492448E6
:102B200002F055F97B681B68224A934224D1224B5C
:102B30001B78002B0FD0214B1B88302B0BD81F4B41
:102B40001B885A1C91B21D4A11801A461A4B1978DB
:102B50001B4B99540BE0194B1B881A46184B00214C
:102B60009954184B01221A70144B00221A8001222A
:102B70001149154802F02BF900BF0837BD4680BD4A
:102B800000380140A404002071030020A0040020AC
:102B90007403002070030020280300200048004038
:102BA000F104002058050020F4040020F004002067
:102BB000A804002000440040A5050020DA050020FC
:102BC000A8050020A40500205C05002080B500AF0A
:102BD000134B1B78002B20D1124B1B88002B1CD0D1
:102BE00000F074F80246104B1B68D31AC82B14D996
:102BF0000C4B1B88B3F5967F03D30A4B40F22B1284
:102C00001A80084B1B881A46084B00219954044B24
:102C100001221A70034B00221A8000BF80BD00BF42
:102C200070030020A0040020A404002074030020EE
:102C3000FFF758FE0B480C490C4A002302E0D45819
:102C4000C4500433C4188C42F9D3094A094C0023F8
:102C500001E013600432A242FBD306F07BF8FFF7D9
:102C6000D3F8704700000020D8010020A8CD00084C
:102C7000D801002014210020FEE7000080B500AF3D
:102C8000084B1B68074A43F010031360032000F051
:102C9000E3FA0F20FFF7A6FCFFF7EAFA0023184635
:102CA00080BD00BF0020024080B400AF054B1B7800
:102CB0001A46054B1B681344034A136000BFBD4608
:102CC00080BC704708000020DC05002080B400AF05
:102CD000024B1B681846BD4680BC7047DC050020CF
:102CE00080B586B000AF78600023FB7500233B61A0
:102CF0000023BB600023FB607B68002B01D1012314
:102D0000BEE07B689B68002B7B689B6A002B09D127
:102D10007B680022DA627B68002283F824207868CE
:102D2000FFF7DEFA786800F0ABF90346FB757B68C5
:102D30009B6A03F01003002B40F09980FB7D002B71
:102D400040F095807B689B6A23F4885323F002034C
:102D500043F002027B689A627B685A687B68DB6991
:102D60001A437B681B7B5B001343BA681343BB6049
:102D70007B689B68B3F5807F03D07B689B68012BE1
:102D800002D14FF4807300E000233A6913433B61A2
:102D90007B681B7D012B19D17B681B7B002B09D124
:102DA0007B689B69013B5A033B69134343F400630F
:102DB0003B610BE07B689B6A43F020027B689A6270
:102DC0007B68DB6A43F001027B68DA627B681B6820
:102DD0005B6823F469417B681B683A690A435A605F
:102DE0007B681B689A68284B13407A681268B96838
:102DF0000B4393607B689B68B3F5807F03D07B684F
:102E00009B68012B04D17B681B69013B1B05FB60A0
:102E10007B681B68DB6A23F470017B681B68FA68B7
:102E20000A43DA627B681B689A68184B1340BA68D9
:102E30009A420BD17B680022DA627B689B6A23F09E
:102E4000030343F001027B689A6218E07B689B6A87
:102E500023F0120343F010027B689A627B68DB6AFE
:102E600043F001027B68DA620123FB7507E07B68AF
:102E70009B6A43F010027B689A620123FB75FB7D1D
:102E800018461837BD4680BDFDF7E1FFFE0E1FFF57
:102E900080B485B000AF786039600023FB730023F5
:102EA000BB607B6893F82430012B01D10223DCE066
:102EB0007B68012283F824203B685B68062B1CD8C2
:102EC0007B681B68596B3B685A6813469B00134428
:102ED000053B1F2202FA03F3DB4319403B681868E5
:102EE0003B685A6813469B001344053B00FA03F203
:102EF0007B681B680A435A633CE03B685B680C2BA9
:102F00001CD87B681B68196B3B685A6813469B008A
:102F10001344233B1F2202FA03F3DB4319403B68AF
:102F200018683B685A6813469B001344233B00FA19
:102F300003F27B681B680A431A631BE07B681B680B
:102F4000D96A3B685A6813469B001344413B1F22D1
:102F500002FA03F3DB4319403B6818683B685A6880
:102F600013469B001344413B00FA03F27B681B6845
:102F70000A43DA623B681B68092B1CD97B681B6813
:102F8000D9683B681A6813465B0013441E3B07224E
:102F900002FA03F3DB4319403B6898683B681A6800
:102FA00013465B0013441E3B00FA03F27B681B6868
:102FB0000A43DA6019E07B681B6819693B681A6884
:102FC00013465B001344072202FA03F3DB43194064
:102FD0003B6898683B681A6813465B00134400FA24
:102FE00003F27B681B680A431A613B681B68102B5D
:102FF00003D03B681B68112B32D17B681B681D4ACC
:10300000934225D17B681B689B6803F40003002B67
:1030100026D17B681B689A687B681B6842F40002B3
:103020009A603B681B68102B1AD1134B1B68134A1C
:10303000A2FB03239A0C13469B0013445B00BB6066
:1030400002E0BB68013BBB60BB68002BF9D107E025
:103050007B689B6A43F020027B689A620123FB73C2
:103060007B68002283F82420FB7B18461437BD467A
:1030700080BC7047002401400000002083DE1B4319
:1030800080B584B000AF78600023FB607B681B686C
:103090009B6803F00103012B2ED17B681B689A68A3
:1030A0007B681B6822F001029A60FFF70FFEF86050
:1030B0001BE0FFF70BFE0246FB68D31A022B14D964
:1030C0007B681B689B6803F00103012B0DD17B68B3
:1030D0009B6A43F010027B689A627B68DB6A43F06C
:1030E00001027B68DA62012307E07B681B689B684A
:1030F00003F00103012BDCD0002318461037BD4636
:1031000080BD000080B485B000AF78607B6803F0BC
:103110000703FB600C4BDB68BB60BA684FF6FF032C
:103120001340BB60FB681A02BB68134343F0BF63E4
:1031300043F40033BB60044ABB68D36000BF14375C
:10314000BD4680BC704700BF00ED00E080B400AF1A
:10315000044BDB681B0A03F007031846BD4680BC1E
:10316000704700BF00ED00E080B483B000AF0346BD
:10317000FB7197F90730002B0BDBFB7903F01F0283
:10318000064997F907305B09012000FA02F241F87D
:10319000232000BF0C37BD4680BC704700E100E033
:1031A00080B483B000AF03463960FB7197F90730F4
:1031B000002B0ADB3B68DAB20C4997F907301201A1
:1031C000D2B20B4483F800230AE03B68DAB2084924
:1031D000FB7903F00F03043B1201D2B20B441A76C1
:1031E00000BF0C37BD4680BC704700BF00E100E067
:1031F00000ED00E080B489B000AFF860B9607A609B
:10320000FB6803F00703FB61FB69C3F10703042BB1
:1032100028BF0423BB61FB690433062B02D9FB6979
:10322000033B00E000237B614FF0FF32BB6902FAF1
:1032300003F3DA43BB681A407B699A404FF0FF31D1
:103240007B6901FA03F3D9437B680B4013431846AB
:103250002437BD4680BC704780B582B000AF78602F
:103260007868FFF74FFF00BF0837BD4680BD80B5C7
:1032700086B000AF0346B9607A60FB7300237B61C0
:10328000FFF764FF78617A68B9687869FFF7B2FF81
:10329000024697F90F3011461846FFF781FF00BF2D
:1032A0001837BD4680BD80B582B000AF0346FB71C4
:1032B00097F907301846FFF757FF00BF0837BD469C
:1032C00080BD80B485B000AF78600023FB737B685D
:1032D00093F82130DBB2022B08D07B6804229A637A
:1032E0007B68002283F82020012320E07B681B6894
:1032F0001A687B681B6822F00E021A607B681B68E4
:103300001A687B681B6822F001021A607B681A6CDD
:103310007B68DB6B012101FA02F25A607B680122B3
:1033200083F821207B68002283F82020FB7B18464D
:103330001437BD4680BC704780B584B000AF78605C
:103340000023FB737B6893F82130DBB2022B05D09E
:103350007B6804229A630123FB7351E07B681B683E
:103360001A687B681B6822F00E021A607B681B6873
:103370001A687B681B6822F001021A607B681B6870
:10338000224A934229D07B681B68214A934222D06B
:103390007B681B681F4A93421AD07B681B681E4AD1
:1033A000934212D07B681B681C4A93420AD07B6808
:1033B0001B681B4A934202D14FF480130EE04FF07A
:1033C00080730BE04FF4803308E04FF4805305E046
:1033D0004FF4807302E0102300E00123114A536090
:1033E0007B68012283F821207B68002283F820205B
:1033F0007B685B6B002B03D07B685B6B78689847BE
:10340000FB7B18461037BD4680BD00BF0800024058
:103410001C000240300002404400024058000240BC
:103420006C0002400000024080B48BB000AF7860B6
:10343000396000237B6200233B6269E101227B6AE1
:1034400002FA03F3FB613B681B68FA691340BB6136
:10345000BA69FB699A4240F058813B685B689A4AB6
:1034600093425ED0984A934275D8984A934258D076
:10347000964A93426FD8964A934252D0944A9342C6
:1034800069D8944A93424CD0924A934263D8924A64
:10349000934246D0904A93425DD8122B2AD8122BE1
:1034A00059D801A252F823F023350008FD34000852
:1034B0000F3500085135000857350008573500080A
:1034C00057350008573500085735000857350008AC
:1034D000573500085735000857350008573500089C
:1034E00057350008573500085735000805350008DE
:1034F00019350008794A934213D02CE03B68DB6809
:103500003B6229E03B68DB6804333B6224E03B68B4
:10351000DB6808333B621FE03B68DB680C333B62CF
:103520001AE03B689B68002B02D104233B6213E046
:103530003B689B68012B05D108233B627B68FA69D5
:103540001A6109E008233B627B68FA695A6103E06B
:1035500000233B6200E000BFBB69FF2B01D87B6802
:1035600001E07B6804337B61BB69FF2B02D87B6A77
:103570009B0002E07B6A083B9B003B617B691A6809
:103580000F213B6901FA03F3DB431A40396A3B69B7
:1035900001FA03F31A437B691A603B685B6803F026
:1035A0008053002B00F0B1804D4B9B694C4A43F097
:1035B000010393614A4B9B6903F00103BB60BB6845
:1035C000484A7B6A9B08023352F82330FB607B6ACF
:1035D00003F003039B000F2202FA03F3DB43FA68B4
:1035E0001340FB607B68404A934213D07B683F4A9C
:1035F00093420DD07B683E4A934207D07B683D4A98
:10360000934201D1032306E0042304E0022302E0F5
:10361000012300E000237A6A02F003029200934043
:10362000FA681343FB602F497B6A9B080233FA68F0
:1036300041F823203B685B6803F48013002B06D01D
:103640002D4B9A682C49BB6913438B6006E02A4BCB
:103650009A68BB69DB43284913408B603B685B6811
:1036600003F40013002B06D0234BDA682249BB6910
:103670001343CB6006E0204BDA68BB69DB431E498D
:103680001340CB603B685B6803F40033002B06D02B
:10369000194B5A681849BB6913434B6006E0164B37
:1036A0005A68BB69DB43144913404B603B685B6855
:1036B00003F48033002B21D00F4B1A680E49BB69ED
:1036C00013430B6021E000BF0000321000003110F6
:1036D0000000221000002110000012100000111044
:1036E000001002400000014000080140000C0140B1
:1036F0000010014000140140000401400B4B1A6807
:10370000BB69DB43094913400B607B6A01337B6271
:103710003B681A687B6A22FA03F3002B7FF48EAEB3
:1037200000BF00BF2C37BD4680BC7047000401407D
:1037300080B485B000AF78600B467B807B689A6868
:103740007B881340002B02D00123FB7301E0002390
:10375000FB73FB7B18461437BD4680BC704780B4B2
:1037600083B000AF78600B467B8013467B707B781C
:10377000002B03D07A887B681A6103E07B881A04E7
:103780007B681A6100BF0C37BD4680BC704780B4AF
:1037900085B000AF78600B467B807B68DB68FB60A0
:1037A0007A88FB6813401A04FB68D9437B880B4076
:1037B0001A437B681A6100BF1437BD4680BC70474E
:1037C00080B584B000AF78607B68002B01D1012305
:1037D0002BE17B6893F83D30DBB2002B06D17B6890
:1037E000002283F83C207868FEF7B6FD7B6824222F
:1037F00083F83D207B681B681A687B681B6822F091
:1038000001021A607B681B681A687B681B6842F4B7
:1038100000421A607B681B681A687B681B6822F488
:1038200000421A6000F0DAFCF8607B685B68814A4D
:10383000934207D8FB68804A934294BF0123002338
:10384000DBB206E0FB687D4A934294BF012300236C
:10385000DBB2002B01D00123E7E0FB68784AA2FB32
:1038600003239B0CBB607B681B685B6823F03F01F4
:103870007B681B68BA680A435A607B681B681B6ACE
:1038800023F03F017B685B686A4A934202D8BB68B9
:10389000013309E0BB684FF4967202FB03F3694AF7
:1038A000A2FB03239B0901337A6812680B4313625E
:1038B0007B681B68DB6923F44F4222F0FF027B68C0
:1038C0005B685C498B4219D8FB68591E7B685B6852
:1038D0005B00B1FBF3F3591C40F6FC730B40002B6B
:1038E0000AD0FB68591E7B685B685B00B1FBF3F391
:1038F0000133C3F30B0351E004234FE07B689B6863
:10390000002B11D1FB68581E7B6859680B465B0081
:103910000B44B0FBF3F30133C3F30B03002B0CBFD9
:1039200001230023DBB212E0FB68581E7B68596854
:103930000B469B000B4499000B44B0FBF3F301339F
:10394000C3F30B03002B0CBF01230023DBB2002BBE
:1039500001D0012322E07B689B68002B0ED1FB681D
:10396000581E7B6859680B465B000B44B0FBF3F3B1
:103970000133C3F30B0343F400430FE0FB68581E0D
:103980007B6859680B469B000B4499000B44B0FBC5
:10399000F3F30133C3F30B0343F44043796809683D
:1039A0001343CB617B681B681B6823F0C0017B68F5
:1039B000DA697B681B6A1A437B681B680A431A60D2
:1039C0007B681B689B6823F4034323F0FF037A683A
:1039D00011697A68D26811437A6812680B43936060
:1039E0007B681B68DB6823F0FF017B685A697B6892
:1039F0009B691A437B681B680A43DA607B681B6813
:103A00001A687B681B6842F001021A607B6800221A
:103A10001A647B68202283F83D207B6800221A63A9
:103A20007B68002283F83E20002318461037BD46ED
:103A300080BD00BFA08601007F841E00FF083D00FE
:103A400083DE1B43D34D621080B586B000AF786033
:103A50007B68002B01D1012372E27B681B6803F0B5
:103A60000103002B00F08780924B5B6803F00C038E
:103A7000042B0CD08F4B5B6803F00C03082B12D186
:103A80008C4B5B6803F48033B3F5803F0BD1894BDB
:103A90001B6803F40033002B6CD07B685B68002B41
:103AA00068D101234CE27B685B68B3F5803F06D1A7
:103AB000804B1B687F4A43F4803313602EE07B68A1
:103AC0005B68002B0CD17B4B1B687A4A23F4803354
:103AD0001360784B1B68774A23F4802313601DE042
:103AE0007B685B68B3F5A02F0CD1724B1B68714AE1
:103AF00043F4802313606F4B1B686E4A43F480339A
:103B000013600BE06B4B1B686A4A23F4803313602D
:103B1000684B1B68674A23F4802313607B685B68EB
:103B2000002B13D0FFF7D2F8386108E0FFF7CEF88A
:103B300002463B69D31A642B01D9032300E25D4B93
:103B40001B6803F40033002BF0D014E0FFF7BEF83D
:103B5000386108E0FFF7BAF802463B69D31A642BD4
:103B600001D90323ECE1534B1B6803F40033002B12
:103B7000F0D100E000BF7B681B6803F00203002B5C
:103B800063D04C4B5B6803F00C03002B0BD0494B0C
:103B90005B6803F00C03082B1CD1464B5B6803F4F5
:103BA0008033002B16D1434B1B6803F00203002B1C
:103BB00005D07B681B69012B01D00123C0E13D4B7F
:103BC0001B6823F0F8027B685B69DB00394913430B
:103BD0000B603AE07B681B69002B20D0364B01223A
:103BE0001A60FFF773F8386108E0FFF76FF80246D4
:103BF0003B69D31A022B01D90323A1E12D4B1B688A
:103C000003F00203002BF0D02A4B1B6823F0F802CC
:103C10007B685B69DB00274913430B6015E0264B8B
:103C200000221A60FFF752F8386108E0FFF74EF8FB
:103C300002463B69D31A022B01D9032380E11D4BB5
:103C40001B6803F00203002BF0D17B681B6803F0B4
:103C50000803002B3AD07B689B69002B19D0174BC7
:103C600001221A60FFF732F8386108E0FFF72EF8FA
:103C700002463B69D31A022B01D9032360E10D4BA5
:103C80005B6A03F00203002BF0D0012000F0FEFA83
:103C90001CE00A4B00221A60FFF718F838610FE0A9
:103CA000FFF714F802463B69D31A022B08D9032305
:103CB00046E100BF00100240000042428004424240
:103CC000924B5B6A03F00203002BE9D17B681B680F
:103CD00003F00403002B00F0A6800023FB758B4B40
:103CE000DB6903F08053002B0DD1884BDB69874AD9
:103CF00043F08053D361854BDB6903F08053BB6095
:103D0000BB680123FB75824B1B6803F48073002B97
:103D100018D17F4B1B687E4A43F480731360FEF713
:103D2000D5FF386108E0FEF7D1FF02463B69D31AA0
:103D3000642B01D9032303E1754B1B6803F48073E3
:103D4000002BF0D07B68DB68012B06D16F4B1B6A20
:103D50006E4A43F0010313622DE07B68DB68002BA1
:103D60000CD16A4B1B6A694A23F001031362674B4B
:103D70001B6A664A23F0040313621CE07B68DB685D
:103D8000052B0CD1614B1B6A604A43F0040313629C
:103D90005E4B1B6A5D4A43F0010313620BE05B4B11
:103DA0001B6A5A4A23F001031362584B1B6A574A95
:103DB00023F0040313627B68DB68002B15D0FEF749
:103DC00085FF38610AE0FEF781FF02463B69D31A9E
:103DD00041F28832934201D90323B1E04B4B1B6A75
:103DE00003F00203002BEED014E0FEF76FFF386102
:103DF0000AE0FEF76BFF02463B69D31A41F28832B4
:103E0000934201D903239BE0404B1B6A03F002035A
:103E1000002BEED1FB7D012B05D13C4BDB693B4AEE
:103E200023F08053D3617B68DB69002B00F087802F
:103E3000364B5B6803F00C03082B61D07B68DB69B1
:103E4000022B46D1334B00221A60FEF73FFF386148
:103E500008E0FEF73BFF02463B69D31A022B01D96B
:103E600003236DE0294B1B6803F00073002BF0D196
:103E70007B681B6AB3F5803F08D1244B5B6823F451
:103E800000327B689B68214913434B601F4B5B6882
:103E900023F474127B68196A7B685B6A0B431B49C5
:103EA00013434B601B4B01221A60FEF70FFF386172
:103EB00008E0FEF70BFF02463B69D31A022B01D93B
:103EC00003233DE0114B1B6803F00073002BF0D07F
:103ED00035E0104B00221A60FEF7F8FE386108E06A
:103EE000FEF7F4FE02463B69D31A022B01D90323E5
:103EF00026E0064B1B6803F00073002BF0D11EE098
:103F00007B68DB69012B07D1012319E00010024017
:103F100000700040600042420B4B5B68FB60FB6836
:103F200003F480327B681B6A9A4206D1FB6803F473
:103F300070127B685B6A9A4201D0012300E0002383
:103F400018461837BD4680BD0010024080B584B0C9
:103F500000AF786039607B68002B01D10123D0E08D
:103F60006A4B1B6803F007033A689A4210D9674B03
:103F70001B6823F0070265493B6813430B60634BE2
:103F80001B6803F007033A689A4201D00123B8E0A6
:103F90007B681B6803F00203002B20D07B681B6842
:103FA00003F00403002B05D0594B5B68584A43F4D7
:103FB000E06353607B681B6803F00803002B05D0A7
:103FC000534B5B68524A43F460535360504B5B68F9
:103FD00023F0F0027B689B684D4913434B607B687C
:103FE0001B6803F00103002B40D07B685B68012B4A
:103FF00007D1474B1B6803F40033002B15D1012375
:104000007FE07B685B68022B07D1414B1B6803F0A4
:104010000073002B09D1012373E03D4B1B6803F0B3
:104020000203002B01D101236BE0394B5B6823F0C5
:1040300003027B685B68364913434B60FEF746FE1C
:10404000F8600AE0FEF742FE0246FB68D31A41F22E
:104050008832934201D9032353E02D4B5B6803F070
:104060000C027B685B689B009A42EBD1274B1B6874
:1040700003F007033A689A4210D2244B1B6823F0DE
:10408000070222493B6813430B60204B1B6803F077
:1040900007033A689A4201D0012332E07B681B682B
:1040A00003F00403002B08D0194B5B6823F4E06293
:1040B0007B68DB68164913434B607B681B6803F021
:1040C0000803002B09D0124B5B6823F460527B6815
:1040D0001B69DB000E4913434B6000F021F80246D8
:1040E0000B4B5B681B0903F00F030A49CB5C22FAF8
:1040F00003F3094A1360094B1B681846FEF772FA6E
:10410000002318461037BD4680BD00BF0020024086
:10411000001002403CC900080000002004000020FC
:1041200080B487B000AF0023FB600023BB60002396
:104130007B6100237B6000233B611E4B5B68FB605F
:10414000FB6803F00C03042B02D0082B03D027E0FC
:10415000194B3B6127E0FB689B0C03F00F03174AE8
:10416000D35C7B60FB6803F48033002B10D0114BD1
:104170005B685B0C03F00103114AD35CBB607B6896
:104180000D4A03FB02F2BB68B2FBF3F37B6104E070
:104190007B680C4A02FB03F37B617B693B6102E0B5
:1041A000054B3B6100BF3B6918461C37BD4680BCD0
:1041B000704700BF0010024000127A0054C9000886
:1041C00064C9000800093D0080B400AF024B1B68C1
:1041D0001846BD4680BC70470000002080B500AF87
:1041E000FFF7F2FF0246054B5B681B0A03F007036B
:1041F0000349CB5C22FA03F3184680BD001002404D
:104200004CC9000880B500AFFFF7DEFF0246054B42
:104210005B68DB0A03F007030349CB5C22FA03F374
:10422000184680BD001002404CC9000880B483B01D
:1042300000AF786039607B680F221A60114B5B68B1
:1042400003F003027B685A600E4B5B6803F0F002D8
:104250007B689A600B4B5B6803F4E0627B68DA6012
:10426000084B5B68DB0803F4E0627B681A61064B6D
:104270001B6803F007023B681A6000BF0C37BD469D
:1042800080BC7047001002400020024080B485B01E
:1042900000AF78600A4B1B680A4AA2FB03235B0A43
:1042A0007A6802FB03F3FB6000BFFB685A1EFA60EA
:1042B000002BF9D100BF00BF1437BD4680BC70474A
:1042C00000000020D34D621080B586B000AF78604A
:1042D00000233B610023FB607B681B6803F0010344
:1042E000002B7DD00023FB754F4BDB6903F080531F
:1042F000002B0DD14C4BDB694B4A43F08053D3610B
:10430000494BDB6903F08053BB60BB680123FB753D
:10431000464B1B6803F48073002B18D1434B1B687A
:10432000424A43F480731360FEF7D0FC386108E022
:10433000FEF7CCFC02463B69D31A642B01D9032358
:104340006DE03A4B1B6803F48073002BF0D0364BC2
:104350001B6A03F44073FB60FB68002B2ED07B6864
:104360005B6803F44073FA689A4227D02E4B1B6AAD
:1043700023F44073FB602E4B01221A602C4B002269
:104380001A60294AFB681362FB6803F00103002BE3
:1043900014D0FEF79BFC38610AE0FEF797FC02465A
:1043A0003B69D31A41F28832934201D9032336E0A4
:1043B0001D4B1B6A03F00203002BEED01A4B1B6A45
:1043C00023F440727B685B68174913430B62FB7DE3
:1043D000012B05D1144BDB69134A23F08053D361C1
:1043E0007B681B6803F00203002B08D00E4B5B6850
:1043F00023F440427B689B680B4913434B607B6806
:104400001B6803F01003002B08D0074B5B6823F4F4
:1044100080027B68DB68044913434B600023184625
:104420001837BD4680BD00BF00100240007000403C
:104430004004424280B582B000AF78607B68002BB8
:1044400001D1012341E07B6893F83D30DBB2002BC2
:1044500006D17B68002283F83C207868FDF7CCFF0A
:104460007B68022283F83D207B681A687B680433EE
:104470001946104600F05CFA7B68012283F846205A
:104480007B68012283F83E207B68012283F83F206D
:104490007B68012283F840207B68012283F8412059
:1044A0007B68012283F842207B68012283F8432045
:1044B0007B68012283F844207B68012283F8452031
:1044C0007B68012283F83D20002318460837BD464B
:1044D00080BD000080B485B000AF78607B6893F841
:1044E0003D30DBB2012B01D001233AE07B68022290
:1044F00083F83D207B681B68DA687B681B6842F0A4
:104500000102DA607B681B68184A93420ED07B6810
:104510001B68B3F1804F09D07B681B68144A934233
:1045200004D07B681B68134A934211D17B681B68D7
:104530009B6803F00703FB60FB68062B10D07B68C9
:104540001B681A687B681B6842F001021A6007E06A
:104550007B681B681A687B681B6842F001021A605E
:10456000002318461437BD4680BC7047002C01401C
:10457000000400400008004080B584B000AF7860BF
:104580007B681B68DB68FB607B681B681B69BB6022
:10459000BB6803F00203002B20D0FB6803F002038A
:1045A000002B1BD07B681B686FF002021A617B68CE
:1045B00001221A777B681B689B6903F00303002BB9
:1045C00003D0786800F098F905E0786800F08BF97E
:1045D000786800F09AF97B6800221A77BB6803F0CC
:1045E0000403002B20D0FB6803F00403002B1BD036
:1045F0007B681B686FF004021A617B6802221A77DD
:104600007B681B689B6903F44073002B03D07868B8
:1046100000F072F905E0786800F065F9786800F05C
:1046200074F97B6800221A77BB6803F00803002B3B
:1046300020D0FB6803F00803002B1BD07B681B68AD
:104640006FF008021A617B6804221A777B681B6886
:10465000DB6903F00303002B03D0786800F04CF90A
:1046600005E0786800F03FF9786800F04EF97B6863
:1046700000221A77BB6803F01003002B20D0FB68E0
:1046800003F01003002B1BD07B681B686FF0100237
:104690001A617B6808221A777B681B68DB6903F460
:1046A0004073002B03D0786800F026F905E07868A5
:1046B00000F019F9786800F028F97B6800221A7771
:1046C000BB6803F00103002B0CD0FB6803F001036F
:1046D000002B07D07B681B686FF001021A617868B5
:1046E000FDF7ACFDBB6803F08003002B0CD0FB682A
:1046F00003F08003002B07D07B681B686FF08002FB
:104700001A61786800F07FFABB6803F04003002B61
:104710000CD0FB6803F04003002B07D07B681B68BC
:104720006FF040021A61786800F0F8F8BB6803F097
:104730002003002B0CD0FB6803F02003002B07D0D4
:104740007B681B686FF020021A61786800F052FAEB
:1047500000BF1037BD4680BD80B584B000AF786023
:1047600039600023FB737B6893F83C30012B01D147
:104770000223B4E07B68012283F83C207B6802229C
:1047800083F83D207B681B689B68BB60BB6823F097
:104790007703BB60BB6823F47F43BB607B681B6807
:1047A000BA689A603B681B68B3F5005F3ED0B3F50A
:1047B000005F00F28780B3F5805F00F08680B3F57C
:1047C000805F7FD8702B1AD0702B7BD8602B50D095
:1047D000602B77D8502B3CD0502B73D8402B58D01F
:1047E000402B6FD8302B64D0302B6BD8202B60D06F
:1047F000202B67D8002B5CD0102B5AD062E07B684E
:1048000018683B6899683B685A683B68DB6800F049
:1048100074F97B681B689B68BB60BB6843F07703D7
:10482000BB607B681B68BA689A604FE07B68186859
:104830003B6899683B685A683B68DB6800F05DF943
:104840007B681B689A687B681B6842F480429A60A8
:104850003CE07B6818683B6859683B68DB681A462F
:1048600000F0D4F87B681B685021184600F02BF943
:104870002CE07B6818683B6859683B68DB681A461F
:1048800000F0F2F87B681B686021184600F01BF905
:104890001CE07B6818683B6859683B68DB681A460F
:1048A00000F0B4F87B681B684021184600F00BF953
:1048B0000CE07B681A683B681B681946104600F0DC
:1048C00002F903E00123FB7300E000BF7B680122D3
:1048D00083F83D207B68002283F83C20FB7B184650
:1048E0001037BD4680BD80B483B000AF786000BF94
:1048F0000C37BD4680BC704780B483B000AF786091
:1049000000BF0C37BD4680BC704780B483B000AF99
:10491000786000BF0C37BD4680BC704780B483B060
:1049200000AF786000BF0C37BD4680BC7047000008
:1049300080B485B000AF786039607B681B68FB602D
:104940007B682F4A93420BD07B68B3F1804F07D02E
:104950007B682C4A934203D07B682B4A934208D150
:10496000FB6823F07003FB603B685B68FA681343E5
:10497000FB607B68224A93420BD07B68B3F1804F87
:1049800007D07B681F4A934203D07B681E4A93423C
:1049900008D1FB6823F44073FB603B68DB68FA686E
:1049A0001343FB60FB6823F080023B685B691343A1
:1049B000FB607B68FA681A603B689A687B68DA6219
:1049C0003B681A687B689A627B680D4A934203D100
:1049D0003B681A697B681A637B6801225A617B68AD
:1049E0001B6903F00103002B05D07B681B6923F0D2
:1049F00001027B681A6100BF1437BD4680BC704756
:104A0000002C0140000400400008004080B487B042
:104A100000AFF860B9607A60FB681B6A7B61FB6875
:104A20001B6A23F00102FB681A62FB689B693B6109
:104A30003B6923F0F0033B617B681B013A69134338
:104A40003B617B6923F00A037B617A69BB6813438E
:104A50007B61FB683A699A61FB687A691A6200BFF8
:104A60001C37BD4680BC704780B487B000AFF8608B
:104A7000B9607A60FB681B6A7B61FB681B6A23F084
:104A80001002FB681A62FB689B693B613B6923F477
:104A900070433B617B681B033A6913433B617B694D
:104AA00023F0A0037B61BB681B017A6913437B6120
:104AB000FB683A699A61FB687A691A6200BF1C3721
:104AC000BD4680BC704780B485B000AF7860396067
:104AD0007B689B68FB60FB6823F07003FB603A68AF
:104AE000FB68134343F00703FB607B68FA689A6036
:104AF00000BF1437BD4680BC704780B487B000AF9C
:104B0000F860B9607A603B60FB689B687B617B6999
:104B100023F47F437B613B681A027B681A43BB68BE
:104B200013437A6913437B61FB687A699A6000BF1B
:104B30001C37BD4680BC704780B485B000AF78603C
:104B400039607B6893F83C30012B01D1022346E0A9
:104B50007B68012283F83C207B68022283F83D2099
:104B60007B681B685B68FB607B681B689B68BB603D
:104B7000FB6823F07003FB603B681B68FA68134313
:104B8000FB607B681B68FA685A607B681B68164A82
:104B900093420ED07B681B68B3F1804F09D07B68CD
:104BA0001B68124A934204D07B681B68104A9342E8
:104BB0000CD1BB6823F08003BB603B685B68BA68BC
:104BC0001343BB607B681B68BA689A607B680122EC
:104BD00083F83D207B68002283F83C2000231846A0
:104BE0001437BD4680BC7047002C014000040040D3
:104BF0000008004080B483B000AF786000BF0C377D
:104C0000BD4680BC704780B483B000AF786000BF01
:104C10000C37BD4680BC704780B582B000AF78606D
:104C20007B68002B01D1012342E07B6893F841307F
:104C3000DBB2002B06D17B68002283F84020786825
:104C4000FDF7F8FB7B68242283F841207B681B6812
:104C5000DA687B681B6822F40052DA60786800F03A
:104C6000B7FD7B681B681A697B681B6822F4904259
:104C70001A617B681B685A697B681B6822F02A02EC
:104C80005A617B681B68DA687B681B6842F40052D3
:104C9000DA607B6800225A647B68202283F8412016
:104CA0007B68202283F842207B6800225A6300231D
:104CB00018460837BD4680BD80B58AB002AFF8609F
:104CC000B9603B601346FB8000237B61FB6893F86F
:104CD0004130DBB2202B75D1BB68002B02D0FB88A2
:104CE000002B01D101236EE0FB6800225A64FB68AF
:104CF000212283F84120FDF7E9FF7861FB68FA88FB
:104D00009A84FB68FA88DA84FB689B68B3F5805F55
:104D100008D1FB681B69002B04D10023FB61BB6831
:104D2000BB6103E0BB68FB610023BB612EE03B6815
:104D300000937B6900228021F86800F01CFB034689
:104D4000002B05D0FB68202283F8412003233AE0A2
:104D5000FB69002B0BD1BB691B881A46FB681B68DB
:104D6000C2F308025A60BB690233BB6107E0FB690A
:104D70001A78FB681B685A60FB690133FB61FB68AA
:104D8000DB8C9BB2013B9AB2FB68DA84FB68DB8C5C
:104D90009BB2002BCBD13B6800937B690022402162
:104DA000F86800F0E8FA0346002B05D0FB682022E3
:104DB00083F84120032306E0FB68202283F841208A
:104DC000002300E0022318462037BD4680BD80B591
:104DD00084B000AFF860B9601346FB80FB6893F8BD
:104DE0004230DBB2202B12D1BB68002B02D0FB88F3
:104DF000002B01D101230BE0FB6800221A63FB8822
:104E00001A46B968F86800F00FFB034600E0022379
:104E100018461037BD4680BD80B5BAB000AF786087
:104E20007B681B681B68C7F8E4307B681B68DB681D
:104E3000C7F8E0307B681B685B69C7F8DC3000238B
:104E4000C7F8D8300023C7F8D430D7F8E43003F0DF
:104E50000F03C7F8D830D7F8D830002B0FD1D7F8C8
:104E6000E43003F02003002B09D0D7F8E03003F042
:104E70002003002B03D0786800F0ECFB5BE2D7F84E
:104E8000D830002B00F0DE80D7F8DC3003F00103CF
:104E9000002B06D1D7F8E03003F49073002B00F01C
:104EA000D180D7F8E43003F00103002B0BD0D7F802
:104EB000E03003F48073002B05D07B685B6C43F01B
:104EC00001027B685A64D7F8E43003F00403002B36
:104ED0000BD0D7F8DC3003F00103002B05D07B6842
:104EE0005B6C43F002027B685A64D7F8E43003F04D
:104EF0000203002B0BD0D7F8DC3003F00103002BAA
:104F000005D07B685B6C43F004027B685A64D7F879
:104F1000E43003F00803002B11D0D7F8E03003F0A1
:104F20002003002B05D1D7F8DC3003F00103002B60
:104F300005D07B685B6C43F008027B685A647B6831
:104F40005B6C002B00F0F281D7F8E43003F0200313
:104F5000002B08D0D7F8E03003F02003002B02D05C
:104F6000786800F077FB7B681B685B6903F040039F
:104F7000002B14BF01230023DBB2C7F8D4307B68B9
:104F80005B6C03F00803002B03D1D7F8D430002B5F
:104F90004FD0786800F081FA7B681B685B6903F08A
:104FA0004003002B41D07B681B681433C7F89C304A
:104FB000D7F89C3053E8003FC7F89830D7F89830BE
:104FC00023F04003C7F8D0307B681B681433D7F850
:104FD000D020C7F8A820C7F8A430D7F8A410D7F875
:104FE000A82041E80023C7F8A030D7F8A030002B54
:104FF000D9D17B68DB6B002B13D07B68DB6B7E4ADF
:105000005A637B68DB6B1846FEF796F90346002B64
:1050100016D07B68DB6B5B6B7A68D26B1046984767
:105020000EE0786800F093F90AE0786800F08FF9F4
:1050300006E0786800F08BF97B6800225A6475E11D
:1050400000BF73E17B681B6B012B40F04F81D7F8E9
:10505000E43003F01003002B00F04881D7F8E03073
:1050600003F01003002B00F041810023BB607B683C
:105070001B681B68BB607B681B685B68BB60BB68A8
:105080007B681B685B6903F04003002B00F0B6806F
:105090007B68DB6B1B685B68A7F8BE30B7F8BE3077
:1050A000002B00F045817B689B8DB7F8BE209A42AB
:1050B00080F03E817B68B7F8BE20DA857B68DB6BC9
:1050C0009B69202B00F088807B681B680C33C7F835
:1050D0008830D7F8883053E8003FC7F88430D7F8D5
:1050E000843023F48073C7F8B8307B681B680C33B6
:1050F000D7F8B820C7F89420C7F89030D7F89010A8
:10510000D7F8942041E80023C7F88C30D7F88C30CA
:10511000002BD9D17B681B6814337B677B6F53E806
:10512000003F3B673B6F23F00103C7F8B4307B6857
:105130001B681433D7F8B420C7F88020FB67F96FD9
:10514000D7F8802041E80023BB67BB6F002BE1D17B
:105150007B681B6814333B663B6E53E8003FFB657E
:10516000FB6D23F04003C7F8B0307B681B68143335
:10517000D7F8B020FA66BB66B96EFA6E41E8002334
:105180007B667B6E002BE3D17B68202283F8422074
:105190007B6800221A637B681B680C33FB64FB6C22
:1051A00053E8003FBB64BB6C23F01003C7F8AC307E
:1051B0007B681B680C33D7F8AC20BA657B65796DCA
:1051C000BA6D41E800233B653B6D002BE3D17B6862
:1051D000DB6B1846FEF775F87B6802225A637B6822
:1051E0009A8D7B68DB8D9BB2D31A9BB21946786887
:1051F00000F0B6F89CE000BF5F5500087B689A8D10
:105200007B68DB8D9BB2D31AA7F8CE307B68DB8D31
:105210009BB2002B00F08E80B7F8CE30002B00F050
:1052200089807B681B680C33BB63BB6B53E8003F12
:105230007B637B6B23F49073C7F8C8307B681B6873
:105240000C33D7F8C8207A643B64396C7A6C41E837
:105250000023FB63FB6B002BE3D17B681B681433DB
:105260007B627B6A53E8003F3B623B6A23F00103A9
:10527000C7F8C4307B681B681433D7F8C4203A637E
:10528000FB62F96A3A6B41E80023BB62BB6A002B00
:10529000E3D17B68202283F842207B6800221A63D6
:1052A0007B681B680C333B613B6953E8003FFB6044
:1052B000FB6823F01003C7F8C0307B681B680C3311
:1052C000D7F8C020FA61BB61B969FA6941E80023E7
:1052D0007B617B69002BE3D17B6802225A63B7F8BC
:1052E000CE301946786800F03BF823E0D7F8E43078
:1052F00003F08003002B09D0D7F8E03003F08003DF
:10530000002B03D0786800F03EF914E0D7F8E430C1
:1053100003F04003002B0ED0D7F8E03003F0400339
:10532000002B08D0786800F07DF904E000BF02E0AF
:1053300000BF00E000BFE837BD4680BD80B483B049
:1053400000AF786000BF0C37BD4680BC704780B4AA
:1053500083B000AF786000BF0C37BD4680BC70479B
:1053600080B483B000AF78600B467B8000BF0C3701
:10537000BD4680BC704780B586B000AFF860B960AC
:105380003B601346FB713BE03B6AB3F1FF3F37D014
:10539000FDF79CFC02463B68D31A3A6A9A4202D354
:1053A0003B6A002B01D103233AE0FB681B68DB68F2
:1053B00003F00403002B23D0BB68802B20D0BB68F4
:1053C000402B1DD0FB681B681B6803F00803082BEB
:1053D00016D100237B61FB681B681B687B61FB683F
:1053E0001B685B687B617B69F86800F056F8FB68B6
:1053F00008225A64FB68002283F8402001230FE052
:10540000FB681B681A68BB681340BA689A420CBFF5
:1054100001230023DBB21A46FB799A42B4D0002361
:1054200018461837BD4680BD80B485B000AFF8601F
:10543000B9601346FB80FB68BA689A62FB68FA8819
:105440009A85FB68FA88DA85FB6800225A64FB6853
:10545000222283F84220FB681B69002B07D0FB68DF
:105460001B68DA68FB681B6842F48072DA60FB68CC
:105470001B685A69FB681B6842F001025A61FB68AD
:105480001B68DA68FB681B6842F02002DA600023C0
:1054900018461437BD4680BC704780B495B000AF45
:1054A00078607B681B680C337B637B6B53E8003F41
:1054B0003B633B6B23F49073FB647B681B680C338A
:1054C000FA6C3A64FB63F96B3A6C41E80023BB6306
:1054D000BB6B002BE5D17B681B6814333B623B6AD6
:1054E00053E8003FFB61FB6923F00103BB647B6869
:1054F0001B681433BA6CFA62BB62B96AFA6A41E893
:1055000000237B627B6A002BE5D17B681B6B012B40
:1055100019D17B681B680C33FB60FB6853E8003FC4
:10552000BB60BB6823F010037B647B681B680C3393
:105530007A6CBA617B617969BA6941E800233B61A1
:105540003B69002BE5D17B68202283F842207B68F1
:1055500000221A6300BF5437BD4680BC704780B537
:1055600084B000AF78607B685B6AFB60FB680022F8
:10557000DA85FB680022DA84F868FFF7E8FE00BFEE
:105580001037BD4680BD80B485B000AF78607B68C1
:1055900093F84130DBB2212B3ED17B689B68B3F599
:1055A000805F14D17B681B69002B10D17B681B6A5C
:1055B000FB60FB681B881A467B681B68C2F3080205
:1055C0005A607B681B6A9A1C7B681A6208E07B68D9
:1055D0001B6A591C7A6811621A787B681B685A60CA
:1055E0007B68DB8C9BB2013B9BB27A681946D18405
:1055F000002B0FD17B681B68DA687B681B6822F080
:105600008002DA607B681B68DA687B681B6842F09E
:105610004002DA60002300E0022318461437BD463A
:1056200080BC704780B582B000AF78607B681B6833
:10563000DA687B681B6822F04002DA607B6820220F
:1056400083F841207868FFF779FE00231846083771
:10565000BD4680BD80B58CB000AF78607B6893F8A4
:105660004230DBB2222B40F0AE807B689B68B3F502
:10567000805F17D17B681B69002B13D10023FB626D
:105680007B689B6ABB627B681B685B689BB2C3F3E9
:1056900008039AB2BB6A1A807B689B6A9A1C7B6873
:1056A0009A6226E07B689B6AFB620023BB627B6890
:1056B0009B68B3F5805F07D07B689B68002B0AD19D
:1056C0007B681B69002B06D17B681B685B68DAB2BC
:1056D000FB6A1A7008E07B681B685B68DBB203F04A
:1056E0007F03DAB2FB6A1A707B689B6A5A1C7B687C
:1056F0009A627B68DB8D9BB2013B9BB27A6819464C
:10570000D185002B5DD17B681B68DA687B681B68DC
:1057100022F02002DA607B681B68DA687B681B680D
:1057200022F48072DA607B681B685A697B681B68A8
:1057300022F001025A617B68202283F842207B68B4
:1057400000225A637B681B6B012B35D17B680022DA
:105750001A637B681B680C337B617B6953E8003FED
:105760003B613B6923F010037B627B681B680C3351
:105770007A6A3A62FB61F9693A6A41E80023BB61DF
:10578000BB69002BE5D17B681B681B6803F0100325
:10579000102B0AD10023FB607B681B681B68FB6031
:1057A0007B681B685B68FB60FB687B689B8D1946A8
:1057B0007868FFF7D5FD02E07868FDF755F900231A
:1057C00002E0002300E0022318463037BD4680BDCA
:1057D00080B584B000AF78607B681B681B6923F4D8
:1057E00040517B68DA687B681B680A431A617B68F2
:1057F0009A687B681B691A437B685B691343BB60CB
:105800007B681B68DB6823F4B05323F00C037A68D1
:105810001268B9680B43D3607B681B685B6923F42B
:1058200040717B689A697B681B680A435A617B6890
:105830001B682C4A934203D1FEF7E4FCF86002E0B7
:10584000FEF7CCFCF860FA6813469B0013449A00FC
:105850001A447B685B689B00B2FBF3F3224AA2FB0D
:1058600003235B091901FA6813469B0013449A004D
:105870001A447B685B689B00B2FBF3F21A4BA3FBF4
:1058800002035B09642000FB03F3D31A1B013233CC
:10589000154AA2FB03235B0903F0F0031944FA68DD
:1058A00013469B0013449A001A447B685B689B0074
:1058B000B2FBF3F20C4BA3FB02035B09642000FB79
:1058C00003F3D31A1B013233074AA2FB03235B09FC
:1058D00003F00F027B681B680A449A6000BF103710
:1058E000BD4680BD003801401F85EB5180B483B0B8
:1058F00000AF03463960FB7197F90730002B0ADBD4
:105900003B68DAB20C4997F907301201D2B20B4466
:1059100083F800230AE03B68DAB20849FB7903F018
:105920000F03043B1201D2B20B441A7600BF0C37AE
:10593000BD4680BC704700BF00E100E000ED00E024
:1059400080B500AF054B1B6801F038FD0346012B05
:1059500001D002F0D9FA00BF80BD00BF10E000E026
:1059600080B500AF00216FF00400FFF7BFFF00BF5C
:1059700080BD000080B483B000AFEFF305833B60CF
:105980003B68002B03D06FF005037B600CE0094BF4
:105990001B68002B05D1074B01221A6000237B6096
:1059A00002E04FF0FF337B607B6818460C37BD4642
:1059B00080BC7047E005002080B582B000AFEFF3F7
:1059C00005833B603B68002B03D06FF005037B60D1
:1059D00010E00B4B1B68012B09D1FFF7C1FF084BEF
:1059E00002221A6001F08AF800237B6002E04FF087
:1059F000FF337B607B6818460837BD4680BD00BF1B
:105A0000E005002080B58EB004AFF860B9607A6020
:105A100000233B61EFF305837B617B69002B7ED123
:105A2000FB68002B7BD080233B621823FB610023A3
:105A30007B624FF0FF33BB617B68002B45D07B68F6
:105A40001B68002B02D07B681B687B627B689B69AC
:105A5000002B02D07B689B69FB61FB69002B08D09F
:105A6000FB69382B05D87B685B6803F00103002BCA
:105A700001D0002354E07B685B69002B03D07B6876
:105A80005B699B083B627B689B68002B0ED07B6840
:105A9000DB68A72B0AD97B681B69002B06D07B68C3
:105AA0005B69002B02D00123BB6110E07B689B681F
:105AB000002B0CD17B68DB68002B08D17B681B694D
:105AC000002B04D10023BB6101E00023BB61BB6953
:105AD000012B10D17B681B697A689268029201934E
